:020000040800F2
:100000004873002029030008E73C00088D350008EC
:10001000E53C0008C30800086D4900080000000026
:10002000000000000000000000000000690200085D
:10003000AF0C000800000000C502000819400008CD
:100040004303000843030008430300084303000878
:100050004303000843030008430300084303000868
:10006000430300084303000843030008350B00085E
:10007000410B00084D0B0008590B0008650B0008E8
:10008000710B00087D0B0008430300086509000898
:10009000410900084D0900085909000843030008F8
:1000A00043030008214100084303000843030008FC
:1000B0004303000843030008430300084303000808
:1000C00043030008430300084303000843030008F8
:1000D000430300080948000821480008394800087F
:1000E00043030008430300084303000843030008D8
:1000F000430300084303000843030008890B00087A
:1001000043030008430300084303000843030008B7
:10011000B1430008C9430008430300084303000833
:1001200043030008950B0008A10B000843030008D7
:10013000430300084303000843030008150A0008AE
:10014000F1090008FD090008090A0008E93C000857
:1001500043030008AD0B0008B90B00084548000830
:100160004303000843030008430300084303000857
:100170004303000843030008430300080000000095
:10018000430300084303000800F002F800F05CF8A5
:100190000AA090E8000C82448344AAF10107DA45E2
:1001A00001D100F051F8AFF2090EBAE80F0013F0D8
:1001B000010F18BFFB1A43F0010318479CB9000058
:1001C000BCB900000A444FF0000C10F8013B13F0DA
:1001D000070408BF10F8014B1D1108BF10F8015BA0
:1001E000641E05D010F8016B641E01F8016BF9D193
:1001F00013F0080F1EBF10F8014BAD1C0C1B09D1EA
:100200006D1E58BF01F801CBFAD505E014F8016B5B
:1002100001F8016B6D1EF9D59142D6D370470000ED
:100220000023002400250026103A28BF78C1FBD8FF
:10023000520728BF30C148BF0B6070471FB50BF095
:100240000FF81FBD10B510BD00F083FA1146FFF77F
:10025000F5FF07F0D9F800F0A1FA03B4FFF7F2FFB9
:1002600003BC00F0B1FA00002C4B19680868B0E834
:10027000F04F80F30988BFF36F8F4FF0000080F3D9
:10028000118870470000000008480068006880F38B
:1002900008884FF0000080F3148862B661B6BFF39F
:1002A0004F8FBFF36F8F00DF00BF00BF08ED00E08E
:1002B000DFF80C00016841F470010160704700BF75
:1002C00088ED00E0EFF30980BFF36F8F134B1A68DE
:1002D0001EF0100F08BF20ED108A20E9F04F1060CB
:1002E00009B44FF0500080F31188BFF34F8FBFF374
:1002F0006F8F08F083FE4FF0000080F3118809BC77
:1003000019680868B0E8F04F1EF0100F08BFB0EC95
:10031000108A80F30988BFF36F8F7047280200208E
:10032000EFF30580704700000948804709480047FF
:10033000FEE7FEE7FEE7FEE7FEE7FEE7FEE7FEE795
:10034000FEE7FEE704480549054A064B70470000F2
:10035000CD40000889010008485D00204873002056
:10036000486D0020486D0020018042804360704746
:100370002DE9F04F02884768B0F802804888D1F82C
:10038000049082B04FF0000A1646824207BF0988E7
:1003900088456FF0020002B018BFBDE8F08F4FEA49
:1003A000980B02EB42000190C8F34000CDF800002A
:1003B00009EB8A01BBF1000F33D0019801EB820CED
:1003C00001EB80043B46E64601EBC2054FEA0B0019
:1003D00093ED000A401E81ED000A93ED010A01EB46
:1003E00002118CED000A93ED020A0CEB021C85ED64
:1003F000000A93ED030A05EB021584ED000A04EBF5
:10040000021403F11003E3D10EEB820000EB820033
:1004100000EB8201ABF10100504307EB0B1701EB3E
:10042000001118F0030C21D03B1FA1EB82011CF03E
:10043000010F06D093ED010A01EB82011B1D81ED36
:10044000000A009880B100BF93ED010A01EB82041D
:1004500001EBC20184ED000A93ED020A401E81ED1A
:10046000000A03F10803EFD107EB8C070AF1010042
:100470001FFA80FA701E0604360C99D102B00020D3
:10048000BDE8F08F53EA020C00F069802DE9F04BD3
:100490004FF00006002B1FBFB3FA83F503FA05F4F3
:1004A00024FA05F65E4012BF1643B2FA82F502FA4C
:1004B00005F4C5F120051EBF22FA05FC44EA0C0430
:1004C000203556EA044C4FEA144418BF641C4FF020
:1004D00000084FF00009904271EB030C39D300295A
:1004E00019BFB1FA81F701FA07F6B0FA80F700FAFE
:1004F00007F6C7F120071EBF20FA07FC46EA0C06E4
:100500002037B6FBF4FCA7EB0507103F07F01F0BE5
:10051000CBF120060CFA0BFB2CFA06F644BFB346CF
:100520000026202FA4BF5E464FF0000B5BEA060CAE
:1005300008BF4FF0010B19EB0B09ABFB027C48EB3A
:100540000608C01B06FB02CC0BFB03CC71EB0C01B5
:10055000C1E70B46024641464846BDE8F08B13B55D
:100560004FF000004FF00001AFF30080BDE81C40E9
:100570007047032A40F2308010F0030C00F0158021
:1005800011F8013BBCF1020F624498BF11F801CB96
:1005900000F8013B38BF11F8013BA2F1040298BFFB
:1005A00000F801CB38BF00F8013B11F0030300F065
:1005B0002580083AC0F0088051F8043B083A51F809
:1005C00004CBA0E80810F5E7121D5CBF51F8043B0E
:1005D00040F8043BAFF30080D20724BF11F8013B81
:1005E00011F801CB48BF11F8012B24BF00F8013BE3
:1005F00000F801CB48BF00F8012B704710B5203A36
:10060000C0F00B80B1E81850203AA0E81850B1E8CB
:100610001850A0E81850BFF4F5AF5FEA027C24BF81
:10062000B1E81850A0E8185044BF18C918C0BDE878
:1006300010405FEA827C24BF51F8043B40F8043B41
:1006400008BF7047D20728BF31F8023B48BF11F8F6
:10065000012B28BF20F8023B48BF00F8012B704750
:100660004FF000020429C0F0128010F0030C00F0DB
:100670001B80CCF1040CBCF1020F18BF00F8012B59
:10068000A8BF20F8022BA1EB0C0100F00DB85FEA27
:10069000C17C24BF00F8012B00F8012B48BF00F8F3
:1006A000012B70474FF0000200B513469446964662
:1006B000203922BFA0E80C50A0E80C50B1F1200175
:1006C000BFF4F7AF090728BFA0E80C5048BF0CC023
:1006D0005DF804EB890028BF40F8042B08BF704781
:1006E00048BF20F8022B11F0804F18BF00F8012BF3
:1006F000704770477047704710B500F00DF80068FC
:1007000010BD10B5044600F007F8046010BD0000ED
:1007100000487047E45C002000487047E45C00201B
:100720001FB584B000200A9C06AB04AA02A900945D
:10073000AFF3008018B1DDE9020108B010BD034835
:10074000204000F039F800200146F6E70000207C48
:1007500070477546FFF7DCFFAE4605006946534615
:1007600020F00700854618B020B5FFF7EBFDBDE887
:1007700020404FF000064FF000074FF000084FF008
:10078000000B21F00701AC46ACE8C009ACE8C00999
:10079000ACE8C009ACE8C0098D46704710B5044606
:1007A000AFF300802046BDE81040FFF756BD00289B
:1007B00001D000F009B8704710B500F025F8BDE889
:1007C0001040FFF7F4BF000001491820ABBEFEE760
:1007D0002600020070B505460C460A2000E06D1C9C
:1007E00000F068F835B128780028F8D102E0641CE0
:1007F00000F060F814B120780028F8D1BDE870400E
:100800000A2000F057B8000010B5022803D04101BB
:1008100003D50DA112E0002010BD010101D50FA1EB
:100820000CE0C10001D511A108E0810001D512A1A1
:1008300004E0400001D513A100E0002115A0FFF75E
:10084000C9FF012010BD0000496E76616C6964200B
:100850004F7065726174696F6E000000446976695B
:100860006465204279205A65726F00004F76657288
:10087000666C6F7700000000556E646572666C6F81
:1008800077000000496E6578616374205265737566
:100890006C7400005349474650453A2041726974D0
:1008A000686D6574696320657863657074696F6EDF
:1008B0003A20000008B569468DF800000320ABBE61
:1008C00008BDFEE792084A6100220A6101220A621D
:1008D00000F070BB2DE9F04117460D46804600241C
:1008E00040F6FF7626E000BF14F0030106D0012990
:1008F00007D0022908D0032910D108E04001286060
:100900000CE04001686009E04001A86006E0400199
:10091000E860224629464046FFF7D4FF07EB8400F3
:100920004068B04204D1224629464046FFF7CAFF3C
:10093000641CE4B257F82400B042D5D1BDE8F08180
:10094000014800F09BBC00004C090020014800F069
:1009500095BC00004C090020014800F08FBC00004D
:100960004C090020014800F089BC00004C0900201F
:100970000E2303EB92024A6101220A610A6200F02F
:1009800019BB00002DE9F04117460D4680460024B2
:1009900040F6FF7626E000BF14F0030106D00129DF
:1009A00007D0022908D0032910D108E040012860AF
:1009B0000CE04001686009E04001A86006E04001E9
:1009C000E860224629464046FFF7D2FF07EB840045
:1009D0004068B04204D1224629464046FFF7C8FF8E
:1009E000641CE4B257F82400B042D5D1BDE8F081D0
:1009F000014800F043BC000074090020014800F0E9
:100A00003DBC000074090020014800F037BC000024
:100A100074090020014800F031BC00007409002076
:100A20009FED0A1A80ED001A80ED051A80ED090A83
:100A3000C0ED0A0AB7EE000A80ED070A80ED081A39
:100A400080ED0B0A80ED011A7047000000000000E5
:100A50002DE9F0410C46054601F10C03012202216B
:100A60000C30FFF781FC04F114030122022105F18F
:100A70001400FFF779FC04F11C030122022105F1A7
:100A80001C00FFF771FC022205F1240004F174033D
:100A900011460746FFF768FC022205F12C0004F11D
:100AA000840311468046FFF75FFC022204F19403A1
:100AB000114605F14400FFF757FC022204F1A4039C
:100AC000114605F14C00FFF74FFC022204F14403EC
:100AD000114605F15400FFF747FC022204F12403FC
:100AE000114605F15C00FFF73FFC022204F13403DC
:100AF000114605F16400FFF737FC022205F13400CE
:100B000004F1540311460646FFF72EFC31463846E1
:100B1000FFF72EFC04F16403022205F13C001146AC
:100B20000446FFF721FC21464046BDE8F041FFF7AF
:100B30001FBC0000014800F01DBF00005C0D00203C
:100B4000014800F017BF00009C0F0020014800F092
:100B500011BF00009C0C0020014800F00BBF0000FA
:100B6000FC0F0020014800F005BF0000FC0C002035
:100B7000014800F0FFBE0000DC0E0020014800F03C
:100B8000F9BE00003C0F0020014800F0F3BE000059
:100B9000BC0D0020014800F0EDBE00005C100020FC
:100BA000014800F0E7BE00001C0E0020014800F0E4
:100BB000E1BE0000BC100020014800F0DBBE0000D8
:100BC0007C0E002001680A4BCAB2103AA3FB023225
:100BD0001209084B9B5CC365032A04D96FF3090112
:100BE000091D816502E06FF309018165806D704721
:100BF000ABAAAAAAC4B90008014600208A6A8B6978
:100C0000002B0FD0B3F5005F1DD08AB3012A30D07E
:100C1000022A2ED0032A04D1C96A11F0807F00D0A5
:100C2000012070471AB1012A07D0022AF9D1C96AF6
:100C300011F0807FF5D001207047C96AB1F1C07F03
:100C4000FAD1012070475AB1012A0BD0022A07D0ED
:100C5000032AF7D1C96AB1F1C07FF3D101207047EF
:100C600001207047C96A11F0807FFAD001207047D7
:100C7000FFE70120704710B4D0F800C0DCF8004056
:100C800024F48024CCF80040D0F800C0CCF8043024
:100C90008368402B05D0036899600068C26010BC6F
:100CA000704703689A600068C16010BC7047704765
:100CB000704700000180002100F10802416082ECD1
:100CC000070A9FED020A80ED090A70470000000044
:100CD000DFED3E3A9FED3F3A00B5F0EE632A9FED1F
:100CE0003C2AF0EE431A9FED3C1ADFED3C0A9FEDE3
:100CF0003C0A02213B4800F0A3F89FED3C4A3948EA
:100D0000DFED392AB0EE442ADFED391A9FED391AAA
:100D1000F0EE630AB0EE430A0121243000F090F8AF
:100D2000DFED374ADFED340A9FED340A2D48B0EE8F
:100D3000603AF0EE402AB0EE642AF0EE641AB0EEAB
:100D4000631A0121483000F089F89FED2F1A2548D9
:100D50009FED2C3AF0EE442AB0EE412AF0EE441A10
:100D6000DFED2A0A9FED2A0A05217030FFF7A2FF66
:100D7000DFED281A1B48F0EE640AB0EE611AB0EEFF
:100D8000610A0521983000F04DF81648B0EE631A5C
:100D9000F0EE640AB0EE610A0521B03000F042F8CE
:100DA000DFED1D0A9FED1D0ADFED1D1A0D48012123
:100DB000B0EE603AF0EE402AB0EE612AB0EE631A6F
:100DC000C8305DF804EB00F049B8000000000000F6
:100DD000000016440000964300B03D450000164553
:100DE00000606545DC1D0020DB0FC93F0000C842E4
:100DF00000007A450000164300401C4500C05A45DB
:100E000000007A44000048C2000048430000FAC3D2
:100E10000000FA4300803B450020234500D05445A4
:100E2000000048440180002100F10802416082EC8A
:100E3000030A9FED020A80ED050A704700000000DA
:100E40000180002100F10802416082EC060A9FED5A
:100E5000020A80ED080A70470000000001800021AE
:100E600000F10802416082EC070A9FED020A80ED62
:100E7000090A70470000000003788B54114443783E
:100E80004B7082788A70C078C870704790F82020C4
:100E9000012A07D0022A05D0416A41F4802141622B
:100EA000012070470068426911434161002070478A
:100EB00070B490F82040D0F800C0DCF808C0012CD5
:100EC00008D0022C06D0416A41F48021416270BCF6
:100ED000012070470CF080640CF000652C4302D1B7
:100EE0001CF0805F5FD0CCF3016CBCF1020F06D91F
:100EF000416A41F40001416270BC01207047012445
:100F000004FA0CF41C608B684FF4C0749BB1CD687C
:100F100004EB0C162B434D6843EAC5030568AB513F
:100F20004FF4C273066803EB0C130D69F550097D8D
:100F3000012909D00DE00D88CB6804EB0C1643EABB
:100F400045530568AB51EBE70168CD5845F4807512
:100F5000CD501179D379557941EA036193791B0416
:100F600043EA052319434FF4C675036805EB0C15D6
:100F700059511178D37841EA0361937852781B0470
:100F800043EA022211434FF4C473026803EB0C13CB
:100F9000D150016804EB0C100A5842F001020A50CB
:100FA00070BC00207047416A41F40011416270BC7E
:100FB0000120704790F82020012A07D0022A05D08E
:100FC000416A41F480214162012070474248D0F8D3
:100FD000002242F00102C0F80022D0F8002222F4E0
:100FE0007C52C0F80022D0F800224B6A42EA032269
:100FF000C0F800220A7D012302F01F0203FA02F268
:10100000D0F81C329343C0F81C32CB69D3B9D0F866
:101010000C329343C0F80C32B1F80CC04B686CF33F
:101020001F43D1F814C000EBCC0CCCF84032B1F81F
:1010300008C00B686CF31F43D1F814C000EBCC0C54
:10104000CCF84432CB69012B1AD1D0F80C321343BF
:10105000C0F80C32B1F800C04B686CF31F43D1F8F4
:1010600014C000EBCC0CCCF84032B1F808C0CB680F
:101070006CF31F43D1F814C000EBCC0CCCF8443215
:101080008B697BB1D0F804321343C0F804320B698A
:1010900073B1D0F814321343C0F81432096A01292D
:1010A0000CD010E0D0F804329343C0F80432EEE7DD
:1010B000D0F814329343C0F81432EFE7D0F81C1282
:1010C0001143C0F81C12D0F8001221F00101C0F841
:1010D000001200207047000000640040704710B408
:1010E00090F820C0BCF1010F09D0BCF1020F06D06E
:1010F000416A41F48021416210BC0120704739B13E
:10110000D0F800C0DCF810C01CF0030F7DD006E062
:10111000D0F800C0DCF80CC01CF0030F7BD04FF4FB
:10112000D87C04680CEB011C54F80C4004F0040457
:101130009460002C7DD0046854F80C40E40854609E
:10114000046854F80CC00CF0020CC2F80CC04FF448
:10115000DA7C04680CEB011C54F80C4004F00F041A
:101160001461046854F80C40C4F3072494610468C3
:1011700054F80CC04FEA1C4CC2F814C04FF4DC7297
:10118000D0F800C002EB01125CF802C083F800C086
:10119000D0F800C05CF802C04FEA1C2C83F801C0F4
:1011A000D0F800C05CF802C04FEA1C4C83F802C0C3
:1011B000D0F800C05CF80220120EDA704FF4DE7234
:1011C000D0F800C002EB01125CF802C083F804C042
:1011D000D0F800C05CF802C04FEA1C2C83F805C0B0
:1011E000D0F800C05CF802C04FEA1C4C83F806C07F
:1011F000D0F800C05CF80220120EDA71F9B1006874
:10120000016941F02001016102E00BE003E010E020
:1012100010BC00207047416A41F40011416210BCCB
:1012200001207047416A41F40011416210BC012065
:101230007047046854F80C40640D146080E700683F
:10124000C16841F02001C160DEE70246002092F84B
:101250002010012901D002290FD111688A6812F0EB
:10126000806F00D001208A6812F0006F00D0401C0F
:10127000896811F0805F00D0401C70472DE9F05F55
:101280000546002428684669D0F804908768D0F89D
:101290000CA0D0F810B0D0F8188016F0010F54D080
:1012A00017F0010F17D00121816017F0020F03D052
:1012B000284600F0CFFA0EE017F0040F02D04FF4EA
:1012C000006408E017F0080F02D04FF4805402E0E9
:1012D000284600F0BEFA17F4807F19D029684FF431
:1012E0008070886017F4007F03D0284600F0B4FABD
:1012F0000EE017F4806F02D044F4005408E017F4B5
:10130000006F02D044F4804402E0284600F0A3FAC3
:1013100017F4803F19D029684FF48030886017F4A3
:10132000003F03D0284600F099FA0EE017F4802F12
:1013300002D044F4004408E017F4002F02D044F433
:10134000803402E0284600F088FA16F0080F07D033
:101350001AF0100F04D044F4007429681020C860FB
:1013600016F0040F4FF0080707D01AF0080F04D04A
:101370002868C760284600F0FDF916F0020F07D074
:101380002868C06810F0030F02D0284600F0F4F976
:1013900016F0400F07D01BF0100F04D044F4806407
:1013A00029681020086116F0200F07D01BF0080FE5
:1013B00004D028680761284600F0FAF916F0100FEB
:1013C00007D02868006910F0030F02D0284600F00B
:1013D000F1F916F4003F08D019F0100F05D0296874
:1013E00010204860284600F001FA16F4803F07D02C
:1013F00019F0080F04D028684760284600F02FFA3B
:1014000016F4004F4AD019F0040F44D016F4807F30
:1014100004D018F0010F01D044F0010416F4007F4D
:1014200004D018F0020F01D044F0020416F4806FCB
:1014300004D018F0040F01D044F0040416F4006F37
:1014400029D018F0700F26D008F07000402815D071
:1014500006DC102809D020280AD0302816D10AE04E
:1014600050280ED0602811D10EE044F008040DE0A1
:1014700044F010040AE044F0200407E044F0400483
:1014800004E044F0800401E044F480742868816939
:1014900021F070018161296804204860002C05D08A
:1014A000686A204368622846FFF718FEBDE8F09F8F
:1014B00070B50446002C03D094F8200010B104E06D
:1014C000012070BD204600F0A7F82068016841F0B7
:1014D0000101016000F026FD0546206840684FF0DC
:1014E000050610F0010F11D100F01CFD401B0A2869
:1014F00007D9606A40F40030606284F820600120FF
:1015000070BD2068406810F0010FEDD020680168C0
:1015100021F00201016000F005FD054620684068E9
:1015200010F0020F11D000F0FDFC401B0A2807D973
:10153000606A40F40030606284F82060012070BD71
:101540002068406810F0020FEDD1207E01283FD0C6
:101550002068016821F080010160607E01283DD093
:101560002068016821F040010160A07E01283BD085
:101570002068016821F020010160E07E012839D057
:101580002068016841F010010160207F012837D0F8
:101590002068016821F008010160607F012835D0D2
:1015A0002068016821F004010160E168A0686269B7
:1015B00008432169114308436168491E08432168B3
:1015C000C86100206062012084F82000002070BD06
:1015D0002068016841F080010160BEE72068016871
:1015E00041F040010160C0E72068016841F020013E
:1015F0000160C2E72068016821F010010160C4E7C2
:101600002068016841F008010160C6E720680168B0
:1016100041F004010160C8E7F0B587B00446142129
:101620006846FFF73FF84E4B4E48DFF830E1196847
:10163000D4F800C04B4A03250226092710300024A5
:10164000491CF4453AD11960012907D1016841F0DC
:1016500000710160006800F000700590106840F0B3
:10166000080010601068CDE9005600F00800CDE9D0
:10167000047069463C48CDE9024500F033FB002286
:101680000521132000F0DAFC132000F0C9FC002231
:101690000521142000F0D2FC142000F0C1FC00222F
:1016A0000521152000F0CAFC152000F0B9FC00222D
:1016B0000521162000F0C2FC16204BE0DFF8ACE05C
:1016C000F44549D1D0F800C04CF0806CC0F800C09F
:1016D000D0F800C001290CF0806CCDF814C019605E
:1016E00007D1016841F000710160006800F00070EE
:1016F0000590106840F002001060106802AB00F026
:10170000020005904FF44050CDE9000683E8B00098
:101710006946174800F0E6FA002205213F2000F054
:101720008DFC3F2000F07CFC00220521402000F0D1
:1017300085FC402000F074FC00220521412000F0CF
:101740007DFC412000F06CFC00220521422000F0CD
:1017500075FC422000F064FC07B0F0BD006400405E
:101760001800002030380240000C024000680040A1
:10177000000402407047000010B50A4A0168914217
:101780000FD1094B00211C46A3F11C02FFF7A7FC57
:101790000548064A1C3821460068D268BDE810405A
:1017A000104710BD00640040281400206000002095
:1017B0007047000010B50A4A016891420FD1094BE9
:1017C00001211C46A3F11C02FFF789FC0548064ACB
:1017D0001C38214600681269BDE81040104710BD52
:1017E000006800402814002060000020704770B599
:1017F000044694F82000012805D0606A40F40020D7
:101800006062012070BD022084F820002068016819
:1018100021F00101016000F085FB05462068406869
:1018200010F0010F12D000F07DFB401B0A2808D9F0
:10183000606A40F400306062052084F820000120D6
:1018400070BD2068406810F0010FECD1002060628C
:1018500070BD70477047704770477047704770475A
:1018600010B50446002C02D0607910B106E00120CA
:1018700010BD00202071204600F004F801206071A6
:10188000002010BD08B500680649884208D1064806
:10189000016841F480510160006800F480500090BC
:1018A00008BD000000300240303802402DE9F04110
:1018B0000446A66D00F036FB054694F83500002777
:1018C000022806D08020606584F834700120BDE8CD
:1018D000F0812068016821F01601016020684169EB
:1018E00021F080014161206C08B9A06C20B1206812
:1018F000016821F0080101602068016821F0010100
:1019000001602068006810F0010F12D000F00AFB9F
:10191000401B052808D920206065032084F8350085
:1019200084F83470BDE8F0812068006810F0010F81
:10193000ECD194F85C003F2101FA00F0B060012086
:1019400084F8350084F834700020BDE8F08190F808
:101950003510022903D080214165012070470521FF
:1019600080F835100068016821F001010160002055
:10197000704700002DE9F84304464FF00008CDF809
:10198000008076484FF416510068B0FBF1F7A56D62
:101990002E6894F85C00082101FA00F0304211D062
:1019A0002068026812F0040F0CD0026822F00402D2
:1019B000026094F85C0001FA00F0A860606D40F0ED
:1019C0000100606594F85C004FF0010909FA00F02D
:1019D000304209D02168496911F0800F04D0A86015
:1019E000606D40F00200606594F85C10042088404F
:1019F000304209D02168096811F0020F04D0A860B4
:101A0000606D40F00400606594F85C101020884020
:101A1000304224D02168096811F0080F1FD0A86057
:101A20002068016811F4802F0DD0006810F4002F99
:101A300004D0A16C99B12046884710E0216C71B1A7
:101A4000204688470BE0016811F4807F03D10168CC
:101A500021F008010160216C09B12046884794F803
:101A60005C1020208840304251D02168096811F074
:101A7000100F4CD0A86094F8350005280DD02068D0
:101A8000016811F4802F32D0006810F4002F29D0A3
:101A9000E16B59B32046884739E02068016821F09E
:101AA000160101602068416921F080014161206CCC
:101AB00008B9A06C20B12068016821F0080101601C
:101AC00094F85C003F2101FA00F0A86084F835909A
:101AD00084F83480216D00293ED001B02046BDE855
:101AE000F0430847616C09B1204688470FE0016860
:101AF00011F4807F07D1016821F01001016084F8A2
:101B0000359084F83480E16B09B120468847606DD8
:101B1000002821D0606D10F0010F15D0052084F849
:101B200035002068016821F0010101600098401C27
:101B30000090B84204D82068006810F0010FF5D179
:101B400084F8359084F83480E16C002904D001B029
:101B50002046BDE8F0430847BDE8F88300000020B8
:101B60002DE9F041044600F0DDF90546DCB1022024
:101B700084F83500002684F834602068016821F07C
:101B8000010101602068006810F0010F13D000F01F
:101B9000C9F9401B052809D920206065032084F875
:101BA0003500BDE8F0810120BDE8F08120680068C3
:101BB00010F0010FEBD121680868234A1040A36898
:101BC0006268D4F810C01A43E36843EA0C031A436E
:101BD00063691A43A3691A43E3691A43236A1A43E0
:101BE0001043626A042A03D1236BE26A1A4310434A
:101BF00008602068406920F00701606A40EA01053A
:101C0000012704280ED1A06A0543E06A50B120469E
:101C1000FEF7F2FF30B14020606584F83570012096
:101C2000BDE8F081206845612046FEF7CBFF94F8BF
:101C30005C103F2202FA01F18160666584F835701C
:101C40000020BDE8F08100003F8010F070B5044630
:101C50000025A66D94F8340001280DD0012084F8E9
:101C6000340094F835C00020BCF1010F06D084F890
:101C700034000225284670BD022070BD4FF0020CD2
:101C800084F835C060652046FEF7F5FF94F85C00E7
:101C90003F2101FA00F0B0602068016841F01601B0
:101CA0000160206C20B12068016841F008010160EA
:101CB0002068016841F001010160DBE770B504466E
:101CC00000F030F90546B4F1FF3F02D00448007837
:101CD000044400F027F9401BA042FAD370BD000075
:101CE0001C0200202DE9F84F0022DFF81492DFF8E3
:101CF00014A2DFF814B24FF0010E03274FF00F08C3
:101D00000EFA02FC0B6803EA0C0363457DD10C79E3
:101D100004F00304012C01D0022C14D18568540076
:101D200007FA04F6B543CE6806FA04F42C4384603F
:101D3000446824EA0C0C0C79C4F30014944044EA7F
:101D40000C0CC0F804C0D1F804C037EA0C0C0CD05D
:101D5000C4684FEA420C07FA0CF5AC438D6805FAEB
:101D60000CFC4CEA040CC0F80CC091F804C00CF058
:101D7000030CBCF1020F12D14FEAD20C00EB8C0421
:101D8000256A4FEA427C4FEADC6C08FA0CF6B54350
:101D90000E6906FA0CFC4CEA050CC4F820C0046875
:101DA0004FEA420C07FA0CF5AC430D7905F0030538
:101DB00005FA0CFC4CEA040CC0F800C0D1F804C0D1
:101DC0001CF4403F7DD0D9F800C04CF4804CC9F8D9
:101DD00000C0D9F800C00CF4804CCDF800C022F04F
:101DE000030C0CF1804505F59835D5F808C8940723
:101DF000240F08FA04F62CEA0606A0F1804CBCF584
:101E0000003C64D0A0F1804C00E05AE0BCF5013CFD
:101E100060D0A0F1804CBCF5023C5ED0A0F1804CBB
:101E2000BCF5033C5CD0A0F1804CBCF5043C5AD01E
:101E3000A0F1804CBCF5053C58D0A0F1804CBCF51D
:101E4000063C56D0A0F1804CBCF5073C54D04FF076
:101E5000080C0CFA04FC4CEA060CC5F808C8DAF8C1
:101E600000C02CEA030C4C6814F4803F01D04CEA0B
:101E7000030CCAF800C0254CD4F800C02CEA030CAF
:101E80004D6815F4003F01D04CEA030CC4F800C0C3
:101E9000DBF800C02CEA030C4C6814F4801F01D05E
:101EA0004CEA030CCBF800C0194CD4F800C02CEA63
:101EB000030C4D6815F4001F01D04CEA030CC4F864
:101EC00000C0521C102AFFF41BAFBDE8F88F4FF082
:101ED000000CBEE74FF0010CBBE74FF0020CB8E777
:101EE0004FF0030CB5E74FF0040CB2E74FF0050CD0
:101EF000AFE74FF0060CACE74FF0070CA9E7000086
:101F000044380240003C0140083C0140043C014090
:101F10000C3C0140002A01D08161704709048161B5
:101F20007047000001488068704700001C020020D4
:101F30000248816802781144816070471C020020C9
:101F400010B50B48016841F400710160016841F46B
:101F500080610160016841F480710160032000F03C
:101F6000A1F8002000F006F800F03EF8002010BDB7
:101F7000003C024010B5014688B00022192000F054
:101F80005DF8192000F04CF813480024016841F472
:101F900000310160006805A900F400300690684631
:101FA00000F050F900F082F90C490D4AB0FBF1F154
:101FB0000C48491E026040F2E732C0E90324C0E940
:101FC000011400F045FC10B1012008B010BD054817
:101FD00000F080FCF9E700004438024040420F0066
:101FE000004401401C1100200C4882B0016841F4FB
:101FF00080410160006800F4804000900748001FA5
:10200000016841F0805101600068002200F08050BA
:1020100000900F21901E02B000F010B8443802402A
:1020200000280ADB00F01F01012202FA01F1400939
:10203000800000F1E020C0F80011704710B4184B88
:102040001B68C3F30223C3F1070CBCF1040F01D9D1
:102050004FF0040C1C1D072C01D2002300E0DB1EF6
:10206000012404FA0CFCACF1010C0CEA01019940CA
:1020700004FA03F35B1E1A401143002806DB00F14B
:10208000E020090180F8001410BC704700F00F0038
:1020900000F1E020090180F8141D10BC7047000019
:1020A0000CED00E000F00700064A11684FF6FF0350
:1020B000194041EA002040F0FD7040F0806010605F
:1020C000704700000CED00E02DE9F04704460D4696
:1020D000002C13D0DFF85491D9F80000EFB200F0D3
:1020E0000700A8420DD289F80070D9F8000000F06E
:1020F0000700A84205D00120BDE8F0870120BDE817
:10210000F08720684A4E10F0020F14D010F0040F30
:1021100003D0306840F4E0503060207810F0080FB1
:1021200003D0306840F4604030603068A16820F02F
:10213000F00008433060207810F0010F3ED0606856
:102140003C49012808D002280DD003280BD009688B
:1021500011F0020F28D00AE0096811F4003F06D1FF
:102160000120BDE8F087096811F0007F19D03168BF
:1021700021F0030108433060FFF7D4FE8046306849
:10218000616800F00C00B0EB810F17D041F2883A83
:10219000FFF7C8FEA0EB0800504508D90320BDE8B2
:1021A000F0870120BDE8F0870120BDE8F0873068A6
:1021B000616800F00C00B0EB810FE9D1D9F80000A4
:1021C00000F00700A8420AD989F80070D9F8000089
:1021D00000F00700A84202D00120BDE8F087207877
:1021E00010F0040F05D03068E16820F4E050084397
:1021F0003060207810F0080F06D03068216920F494
:10220000604040EAC100306000F060F831680A4A7E
:10221000C1F30311515CC8400849086008480068D0
:10222000FFF7A8FE0020BDE8F0870000003C024058
:102230000838024000380240EAB5000800000020DB
:10224000200200200F2202600B4A136803F00303F0
:102250004360136803F0F0038360136803F4E053F2
:10226000C360126802F46042D20802610348006849
:1022700000F007000860704708380240003C024048
:1022800001480068704700000000002000B5FFF71B
:10229000F7FF04490968044AC1F38221515CC84030
:1022A00000BD000008380240FAB5000800B5FFF78D
:1022B000E7FF04490968044AC1F34231515CC84050
:1022C00000BD000008380240FAB5000810B51548F6
:1022D000006810F00C01144823D0042921D00829EB
:1022E0001FD1124C216801F03F02216811F4800FC8
:1022F00008D021680023C1F38811A1FB0001FEF77B
:10230000C1F807E021680023C1F38811A1FB000197
:10231000FEF7B8F82168C1F30141491C4900B0FB40
:10232000F1F010BD083802400024F40004380240E7
:102330002DE9F84F0446002C12D02078FB4E10F007
:10234000010FA6F1040563D0301D016801F00C01F6
:1023500004290CD0006800F00C00082803D010E01D
:102360000120BDE8F88F306810F4800F09D028688C
:1023700010F4003F4CD06068002849D10120BDE82E
:10238000F88F6068B0F5803F14D0B0F5A02F16D05C
:10239000286820F480302860286820F48020286095
:1023A000606810B3FFF7BEFD0746286810F4003FD1
:1023B0000ED02DE0286840F480302860F0E72868CF
:1023C00040F480202860286840F480302860E7E7E7
:1023D000FFF7A8FDC01B642802D90320BDE8F88FD1
:1023E000286810F4003FF3D012E0FFF79BFD07468A
:1023F000286810F4003F0BD0FFF794FDC01B642841
:1024000002D90320BDE8F88F286810F4003FF3D10B
:102410002078C74F10F0020F4FF0000957D0C54881
:10242000016811F00C0F14D0006800F00C000828AF
:1024300003D1306810F4800F0BD0E06880B3012026
:102440003860FFF76FFD8046286810F0020F12D049
:102450001EE0286810F0020F05D0E068012802D0C5
:102460000120BDE8F88F2868216920F0F80040EAD3
:10247000C10028602BE0FFF755FDA0EB0800022803
:1024800002D90320BDE8F88F286810F0020FF2D0BF
:102490002868216920F0F80040EAC100286016E0B1
:1024A000FFE7C7F80090FFF73DFD8046286810F071
:1024B000020F0CD0FFF736FDA0EB0800022802D96E
:1024C0000320BDE8F88F286810F0020FF2D12078C1
:1024D00010F0080F35D09848DFF860A26169C1B1EB
:1024E00001210160FFF71EFD8046DAF8000010F0C0
:1024F000020F26D1FFF716FDA0EB0800022802D933
:102500000320BDE8F88FDAF8000010F0020FF1D0D8
:1025100017E0C0F80090FFF705FD8046DAF80000EC
:1025200010F0020F0DD0FFF7FDFCA0EB0800022811
:1025300002D90320BDE8F88FDAF8000010F0020F8E
:10254000F1D1207810F0040F71D04FF000087C48D2
:10255000006810F0805F0AD17948016841F080512D
:102560000160006800F0805000904FF00108DFF833
:10257000D4B1DBF8000010F4807F1BD1DBF8000041
:1025800040F48070CBF80000FFF7CCFC8246DBF80B
:10259000000010F4807F0DD1FFF7C4FCA0EB0A000F
:1025A000022802D90320BDE8F88FDBF8000010F400
:1025B000807FF1D0A068DFF890B1012818D00528FD
:1025C0001DD0DBF8000020F00100CBF80000DBF8A4
:1025D000000020F00400CBF80000A06840B3FFF733
:1025E000A1FC8246DBF8000010F0020F14D03EE0A0
:1025F000DBF8000040F00100CBF80000EDE7DBF86D
:10260000000040F00400CBF80000DBF8000040F0D0
:102610000100CBF80000E0E7FFF784FCA0EB0A0123
:1026200041F28830814204D90320BDE8F88F26E0CA
:1026300005E0DBF8000010F0020FEDD017E0FFF727
:1026400071FC8246DBF8000010F0020F0FD0FFF79C
:1026500069FCA0EB0A0141F28830814202D90320D3
:10266000BDE8F88FDBF8000010F0020FEFD1B8F1F1
:10267000010F04D13248016821F080510160A06946
:10268000F0B32C4909684FF0FF3801F00C0108291C
:1026900066D0022810D0C7F86090FFF743FC0446CC
:1026A000286810F0007F2BD0FFF73CFC001B0228AD
:1026B00051D90320BDE8F88FC7F86090FFF732FCCE
:1026C0008146286810F0007F0CD0FFF72BFCA0EBB0
:1026D0000900022802D90320BDE8F88F286810F00D
:1026E000007FF2D1216AE069A26A0843616A08EBBF
:1026F0005202890141EA0241084394F82C1000E09B
:1027000055E040EA0160306001203866FFF70AFCBE
:102710000446286810F0007F49D1FFF703FC001B36
:10272000022813D90320BDE8F88F000004380240C6
:102730000000474208380240800E47427438024089
:10274000403802400070004070380240286810F0A5
:10275000007FE2D02BE0286810F0007FA4D126E0B3
:10276000012822D03068E26900F4800191421AD138
:10277000226A00F03F01914215D147F6C071626AAA
:102780000140B1EB821F0ED1A26A00F4403108EB88
:102790005202B1EB024F06D194F82C1000F0706099
:1027A000B0EB016F03D00120BDE70120BBE70020A3
:1027B000B9E77047704730B490F83C20012A44D004
:1027C000012480F83C40022280F83D200268D2F8C3
:1027D00004C093682CF0700C0D6845EA0C0CC2F82C
:1027E00004C00268A2F1804CBCF5803C20D0B2F15C
:1027F000804F1DD0A2F1804CBCF5806C18D0A2F1A6
:10280000804CBCF5006C13D0A2F1804CBCF5406C40
:102810000ED0A2F1804CBCF5823C09D0A2F1804CD4
:10282000BCF5A03C04D0A2F1804CBCF5C05C04D146
:1028300023F0800349681943916080F83D400021EE
:1028400080F83C1030BC0020704730BC022070473C
:1028500010B50446002C03D094F83D0010B107E0F9
:10286000012010BD002084F83C00204600F01EF836
:10287000022084F83D00211D206801F057FC012052
:1028800084F8460084F83E0084F83F0084F8400055
:1028900084F8410084F8420084F8430084F844003E
:1028A00084F8450084F83D00002010BD08B500689C
:1028B0000649884208D10648016841F0800101605C
:1028C000006800F08000009008BD0000001C00407F
:1028D0004038024090F83D10012901D00120704796
:1028E000022180F83D100168CA6842F00102CA6006
:1028F0000068A0F18041B1F5803126D0B0F1804F61
:1029000023D0A0F18041B1F580611ED0A0F18041BB
:10291000B1F5006119D0A0F18041B1F5406114D04A
:10292000A0F18041B1F582310FD0A0F18041B1F525
:10293000A0310AD0A0F18041B1F5C05105D00168A5
:1029400041F00101016000207047816801F007013A
:102950000629F8D0016841F001010160F3E77047F2
:1029600070B50446206801694FF0000511F0020FB0
:1029700017D0C16811F0020F13D0E91E01610120C8
:1029800020772068806910F0030F03D02046FFF7FE
:10299000E6FF05E0204600F007F9204600F0D8F9F0
:1029A00025772068016911F0040F18D0C16811F073
:1029B000040F14D06FF00401016102202077206819
:1029C000806910F4407F03D02046FFF7C8FF05E080
:1029D000204600F0E9F8204600F0BAF92577206893
:1029E000016911F0080F18D0C16811F0080F14D058
:1029F0006FF008010161042020772068C06910F0A1
:102A0000030F03D02046FFF7AAFF05E0204600F0A1
:102A1000CBF8204600F09CF925772068016911F079
:102A2000100F18D0C16811F0100F14D06FF0100102
:102A30000161082020772068C06910F4407F03D02E
:102A40002046FFF78CFF05E0204600F0ADF8204659
:102A500000F07EF925772068016911F0010F09D097
:102A6000C16811F0010F05D06FF00101016120462E
:102A700000F070F92068016911F0800F09D0C16879
:102A800011F0800F05D06FF0800101612046FFF743
:102A900090FE2068016911F0400F09D0C16811F063
:102AA000400F05D06FF040010161204600F05CF955
:102AB0002068016911F0200F0BD0C16811F0200FC0
:102AC00007D06FF0200101612046BDE87040FFF79C
:102AD00071BE70BD30B587B0044614216846FDF75D
:102AE000E1FD2468002229490223B4F1804F11D06E
:102AF000274D2848AC4221D10C6844F002040C60F8
:102B0000096801F00201059103210091CDE901322C
:102B1000694624E0086840F00100086008680093F6
:102B200000F001000590CDE901320120CDE903203C
:102B300069461948FFF7D6F807B030BD174DAC42CB
:102B400010D1086840F0080008600868694600F085
:102B500008000590A0140090CDE901321048CDE99D
:102B60000323E7E70F4DAC42E6D10C6844F00204C2
:102B70000C60096801F002010591E9000091CDE9BE
:102B800001320921CDE903216946D3E730380240FB
:102B90000004004000040240000002400008004021
:102BA000000C024000180040704770B504460D4606
:102BB000002694F83C0001280FD0012084F83C0046
:102BC0006AB1042A1FD0082A32D00C2A44D0012628
:102BD000002084F83C00304670BD022070BD2946BC
:102BE000206801F009FB2068816941F008018161DA
:102BF0002068816921F004018161206881692A6966
:102C000011438161E4E72946206801F02DFB20682B
:102C1000816941F4006181612068816921F48061EA
:102C20008161206881692A6941EA02218161CFE7D7
:102C30002946206801F054FB2068C16941F0080171
:102C4000C1612068C16921F00401C1612068C169C6
:102C50002A691143C161BBE72946206801F07CFB6A
:102C60002068C16941F40061C1612068C16921F433
:102C70008061C1612068C1692A6941EA0221C1619C
:102C8000A6E710B50446002C03D094F83D0010B11F
:102C900007E0012010BD002084F83C00204600F031
:102CA0001FF8022084F83D00211D206801F03EFA43
:102CB000012084F8460084F83E0084F83F0084F840
:102CC000400084F8410084F8420084F8430084F80E
:102CD000440084F8450084F83D00002010BD000049
:102CE00008B501681648B1F1804F0BD0154A9142E2
:102CF00010D1016841F002010160006800F002009B
:102D0000009008BD016841F001010160006800F019
:102D10000100F5E70C4A914207D1016841F0040136
:102D20000160006800F00400EAE7084A9142E8D137
:102D3000016841F040010160006800F04000DFE7F9
:102D400040380240000400400008004000180040E5
:102D50007047000000680349884201D1FFF7E8B8D6
:102D600070470000004401407047704710B50446AA
:102D700020684069C0F3C01094F83D10212911D19A
:102D800080B12068143050E8001F21F0800140E835
:102D90000012002AF5D1606B08B1FEF787FD2046CE
:102DA00001F0C8FB20684069C0F3801094F83E1021
:102DB000222911D180B12068143050E8001F21F081
:102DC000400140E80012002AF5D1A06B08B1FEF7DF
:102DD0006DFD204601F07AFB002010BD7047000019
:102DE000F8B5044622681068D168536900F00F0CEA
:102DF000BCF1000F0AD110F0200F07D011F0200F06
:102E000004D02046BDE8F84001F0A2BB0025BCF18B
:102E1000000F75D003F0010C01F490765CEA060611
:102E20006ED010F0010F06D011F4807F03D0226C19
:102E300042F00102226410F0040F06D013F0010FDB
:102E400003D0226C42F00202226410F0020F06D07E
:102E500013F0010F03D0226C42F00402226410F040
:102E6000080F08D001F0200252EA0C0203D0226CB5
:102E700042F008022264226C002A35D010F0200FA4
:102E800005D011F0200F02D0204601F061FB206830
:102E90004069C0F38010216C11F0080F00D148B3D5
:102EA000204601F013FB2068406910F0400F1CD051
:102EB0002068143050E8001F21F0400140E8001263
:102EC000002AF5D1A06B60B15C490165A06BFEF7EB
:102ED0003EFD002808D0A06B016D01B0BDE8F040B8
:102EE00008472046FFF77AFFF8BD2046FFF776FF38
:102EF000F8BD05E0FFE72046FFF770FF2564F8BD49
:102F0000236B012B7ED110F0100F7BD011F0100F2E
:102F10007ED010685068009050694FF0200310F088
:102F2000400F43D0A16B0868406880B20028E6D00B
:102F3000A28D8242E3D9E085C869B0F5807F2DD0AB
:102F400020680C3050E8001F21F4807140E8001226
:102F5000002AF5D12068143050E8001F21F001014B
:102F600040E80012002AF5D12068143050E8001F14
:102F700021F0400140E80012002AF5D184F83E30EB
:102F8000256320680C3050E8001F21F0100140E854
:102F90000012002AF5D1A06BFEF788FCA08DE18D10
:102FA000401A81B22046FFF7E0FEF8BDA08DE18D0A
:102FB000401A81B2E08D0028F7D00029F5D02068B2
:102FC0000C3050E8002F22F4907240E8002CBCF145
:102FD000000FF4D12068143050E8002F22F00102D5
:102FE00040E8002CBCF1000FF4D184F83E3025639A
:102FF00020680C3050E8002F22F0100240E8002337
:10300000002B00E004E0F3D12046FFF7AEFEF8BD50
:1030100010F0800F07D011F0800F04D02046BDE8DB
:10302000F84001F0C1BB10F0400FF0D011F0400F9C
:10303000EDD02046BDE8F84001F06FBAD543000856
:1030400070B50446002C04D094F83D00002510B162
:1030500006E0012070BD84F83C50204600F022F8C4
:10306000242084F83D002068C16821F40051C1602B
:10307000204601F0D1FA2068016921F490410161F4
:103080002068416921F02A0141612068C16841F44A
:103090000051C1602564202084F83D0084F83E0082
:1030A000002070BD2DE9F04F87B00446142168461A
:1030B000FDF7F8FAFF48DFF8F8831038D4F800C0BD
:1030C000FC4B022103220827DFF8ECE3002506155C
:1030D0004FF040094FF0006AC44561D1D3F800C0F9
:1030E0004CF4002CC3F800C01B6803F400230593C4
:1030F000036843F001030360036803F001030593D1
:10310000036843F0040303600068884600F004008D
:1031100005900120CDE90008CDE9025293466946A9
:1031200004977046FEF7DEFD7000CDE90008CDE99A
:10313000025B69460497E148FEF7D4FDE14FE048A1
:103140003860C7E901A5C7E903567D61BD61FD612E
:103150003D6238467D62FEF703FD08B1FDF7A8FD2C
:10316000A763BC63D74FD64860373030C7F80890A4
:10317000C7E903567D61BD61FD613D627D62C7E9BE
:10318000000A3846FEF7ECFC08B1FDF791FD6763D5
:10319000002205213420BC63FEF750FF342066E096
:1031A000DFF82483C44567D1D3F800C04CF4801CF9
:1031B000C3F800C01B6803F480130593036843F051
:1031C00004030360036803F004030593036843F0FA
:1031D000080303600068884600F0080005904FF47B
:1031E0008050CDE90008CDE9025293466946049724
:1031F000B248FEF777FD0420CDE90008CDE9025B77
:1032000069460497B148FEF76DFDAE4FAC48C03734
:1032100030383860C7E901A5C7E903567D61BD6153
:10322000FD613D6238467D62FEF79AFC08B1FDF70C
:103230003FFDA763BC63A64FA148C7F80890C7E944
:1032400003567D61BD61FD613D6278307D62C7E9F5
:10325000000A3846FEF784FC08B1FDF729FD6763D4
:10326000002205213520BC63FEF7E8FE3520FEF77D
:10327000D7FE07B0BDE8F08FDFF858824FF0070B9C
:10328000C4454ED18B4B1B1D1F6847F010071F60B4
:103290001B6803F010030593036843F00103036008
:1032A000006800F0010005904FF4C0608DE8230035
:1032B000CDE9032B69467046FEF714FD844F86481E
:1032C00060373860C7E901A5C7E903567D61BD6174
:1032D000FD613D6238467D62FEF742FC08B1FDF7B4
:1032E000E7FCA763BC637A4F7B48C0377830C7F8E8
:1032F0000890C7E903567D61BD61FD613D627D6255
:10330000C7E9000A3846FEF72BFC08B1FDF7D0FCF0
:103310006763002205212520BC63FEF78FFE252070
:10332000A5E7DFF8B881C4454BD11F6847F40037E3
:103330001F601B6803F400330593036843F0010327
:103340000360006800F0010005900C208DE8230068
:10335000CDE9032B69467046FEF7C4FC5848604F20
:1033600048303860C7E901A5C7E903567D61BD61F2
:10337000FD613D6238467D62FEF7F2FB08B1FDF764
:1033800097FCA763BC63564F4D4860376030C7F861
:103390000890C7E903567D61BD61FD613D627D62B4
:1033A000C7E9000A3846FEF7DBFB08B1FDF780FCF1
:1033B0006763002205212620BC63FEF73FFE26201E
:1033C00055E7DFF82081C4454CD11F6847F48027BA
:1033D0001F601B6803F480230593036843F0020316
:1033E0000360006800F0020005904FF440608DE833
:1033F0002300CDE9032B69463B48FEF773FC384FA9
:103400002F48C03718383860C7E901A5C7E9035607
:103410007D61BD61FD613D6238467D62FEF7A0FBC6
:1034200008B1FDF745FCA763BC63304F2448C7F8DB
:103430000890C7E903567D61BD61FD613D621830AA
:103440007D62C7E9000A3846FEF78AFB08B1FDF73E
:103450002FFC6763002205212720BC63FEF7EEFDE9
:10346000272004E7224B9C457FF403AF114B1B1D23
:10347000D3F800C04CF0200CC3F800C01B6803F068
:1034800020030593036843F004030360006800F021
:1034900004000590C0208DE82300CDE9032769468C
:1034A0000648FEF71FFC0C48104F1838603721E023
:1034B000004C00404038024000000240000802403A
:1034C000406002409C0C002000500040000C024074
:1034D000BC0D002000100140406402400044004048
:1034E000DC0E00200048004000040240FC0F0020D9
:1034F0000014014038604FF02068C7E90185C7E932
:1035000003567D61BD61FD613D6238467D62FEF717
:1035100027FB08B1FDF7CCFBA763BC630D4F0C483C
:10352000C7E903567D61BD61FD613D627D6287E84B
:1035300001033846FEF714FB08B1FDF7B9FB6763DA
:10354000002205214720BC63FEF778FD47208EE668
:10355000A0640240BC10002090F83E30202B01D027
:103560000220704759B152B190F83C30012B08D07D
:10357000012380F83C300023036301F0CBB8012025
:10358000704702207047704770477047FEE70000A1
:1035900010B5DFED270AB7EE000A2648FDF740FA1E
:1035A0002448F3EE0E0AB7EE000A3030FDF738FA81
:1035B0002048DFED210AB7EE000A9030FDF730FA1F
:1035C0001C48DFED1E0AB7EE000AC030FDF728FAEE
:1035D000DFED1B1A1748B7EE000AF0EE610A603003
:1035E000FDF71EFA1348F0EE610AB7EE000AF0305C
:1035F000FDF716FADFED131AB7EE000A1248F0EEE7
:10360000610AFDF70DFA1048F0EE610AB7EE000A04
:103610003038FDF705FA0C480C493030FDF718FA40
:103620000A490948B431BDE810409C30FDF710BA92
:103630000000A042401B0020000098420000AF4361
:10364000000020420000C842901C0020AC00002076
:103650000F4810B50D4901600621416000214FF46B
:1036600080328160C0E90312520142610176012279
:1036700042768176C17601774177FDF719FF002800
:1036800003D0BDE81040FDF713BB10BD006400403F
:103690004C0900200F4810B50D490160062141601A
:1036A00000214FF480328160C0E90312520142616F
:1036B0000176012242768176C17601774177FDF766
:1036C000F7FE002803D0BDE81040FDF7F1BA10BDA9
:1036D0000068004074090020074910B505480860DB
:1036E0000846FEF7BDF8002803D0BDE81040FDF7FE
:1036F000DFBA10BD003002401C000020394808B578
:10370000016841F400110160016801F400110091A9
:10371000016841F4800101600068002200F480002B
:10372000009005210B20FEF789FC0B20FEF778FCAA
:10373000002205210C20FEF781FC0C20FEF770FC16
:10374000002205210D20FEF779FC0D20FEF768FC14
:10375000002205210E20FEF771FC0E20FEF760FC12
:10376000002205210F20FEF769FC0F20FEF758FC10
:10377000002205211020FEF761FC1020FEF750FC0E
:10378000002205211120FEF759FC1120FEF748FC0C
:10379000002205212F20FEF751FC2F20FEF740FCD0
:1037A000002205213920FEF749FC3920FEF738FCBC
:1037B000002205213A20FEF741FC3A20FEF730FCBA
:1037C000002205214520FEF739FC4520FEF728FCA4
:1037D000002205214620FEF731FCBDE808404620C6
:1037E000FEF71EBC3038024010B5A4B005F01CFA3C
:1037F0001C221D496846FCF701FF0021684603F0C2
:1038000099FE1A4C18491C2220611C3107A8FCF7AC
:10381000F5FE002107A803F08DFE134960601C220D
:1038200038310EA8FCF7EAFE00210EA803F082FE54
:103830000D4920601C22543115A8FCF7DFFE002141
:1038400015A803F077FE0849E0601C2270311CA81F
:10385000FCF7D4FE00211CA803F06CFEA06005F06C
:1038600003FA24B010BD000004B6000804000020D4
:103870002DE9F04F87B014216846FCF713FF3C4850
:103880000024016841F080010160016801F08001BD
:103890000591016841F001010160016801F0010139
:1038A0000591016841F002010160016801F0020127
:1038B0000591016841F010010160016801F01001FB
:1038C0000591016841F008010160016801F00801FB
:1038D0000591016841F0040101600068DFF89480FF
:1038E00000F004004FF48055059000222946404620
:1038F000FEF710FBDFF880904FF47066002231462F
:103900004846FEF707FBDFF874A0EF0000223946B7
:103910005046FEF7FFFADFF868B00022C021584693
:10392000FEF7F8FA00950125CDE9015469464046B5
:103930000394FEF7D7F90096CDE90154694648464D
:103940000394FEF7CFF90097CDE90154694650463C
:103950000394FEF7C7F9C0200090CDE901546946F1
:1039600058460394FEF7BEF907B0BDE8F08F00009B
:103970003038024000100240000C024000000240BB
:103980000004024010B588B01C216846FCF78AFE8E
:1039900016481549002401605321C0E9011444F67A
:1039A0001F61C0E903148461FFF76BF908B1FDF7EB
:1039B0007FF96020CDE900040294002269460B489B
:1039C0000494FFF7F2F808B1FDF772F90422694692
:1039D0000648FFF7EAF808B1FDF76AF90348FFF770
:1039E00079F808B010BD000000180040740A0020EB
:1039F0000B4810B50949016053214160002144F68C
:103A00001F62C0E9021201618161FEF721FF0028F7
:103A100003D0BDE81040FDF74BB910BD001C0040BD
:103A2000BC0A002010B58AB0002407941C21684607
:103A30000894FCF737FE16484FF08041016053218F
:103A4000C0E9011444F61F61C0E903148461FFF763
:103A500018F908B1FDF72CF9079407A90C48089448
:103A6000FEF7A9FE08B1FDF723F96020CDE90004B7
:103A700002940422694606480494FFF796F808B1B8
:103A8000FDF716F90248FFF725F80AB010BD00004F
:103A90009C09002010B58AB0002407941C216846B8
:103AA0000894FCF7FFFD1B48194901605321C0E948
:103AB000011444F61F61C0E903148461FFF7E1F8C3
:103AC00008B1FDF7F5F8079407A912480894FEF726
:103AD00072FE08B1FDF7ECF8602000904FF44870DA
:103AE000CDE90104082269460A480494FFF75DF80D
:103AF00008B1FDF7DDF80C2269460648FFF755F8D6
:103B000008B1FDF7D5F80348FEF7E4FF0AB010BD91
:103B100000040040E409002010B58AB00024079496
:103B20001C2168460894FCF7BDFD17481549016043
:103B30005321C0E9011444F61F61C0E903148461F4
:103B4000FFF79FF808B1FDF7B3F8079407A90E48EF
:103B50000894FEF730FE08B1FDF7AAF86020009047
:103B60004FF44870CDE901040022694606480494E8
:103B7000FFF71BF808B1FDF79BF80348FEF7AAFF13
:103B80000AB010BD000800402C0A00200C4810B5F7
:103B90000A4901604FF4E1314160002181600C224B
:103BA000C160C0E904128161C161FFF749FA0028D0
:103BB00003D0BDE81040FDF77BB810BD004C0040BD
:103BC000040B00200C4810B50A4901604FF47A310B
:103BD0004160002181600C22C160C0E90412816152
:103BE000C161FFF72DFA002803D0BDE81040FDF7B2
:103BF0005FB810BD00500040480B00200D4810B5C4
:103C00000B4901600C49416000214FF480628160E2
:103C1000C0E903120C22C0E90521C161FFF710FAC7
:103C2000002803D0BDE81040FDF742B810BD0000E9
:103C3000001001408C0B0020A08601000C4810B53C
:103C40000A4901604FF4E1314160002181600C229A
:103C5000C160C0E904128161C161FFF7F1F9002878
:103C600003D0BDE81040FDF723B810BD004400406C
:103C7000D00B00200C4810B50A4901604FF47A318E
:103C80004160002181600C22C160C0E904128161A1
:103C9000C161FFF7D5F9002803D0BDE81040FDF75A
:103CA00007B810BD00480040140C00200C4810B5A7
:103CB0000A4901604FF4E1314160002181600C222A
:103CC000C160C0E904128161C161FFF7B9F9002840
:103CD00003D0BDE81040FCF7EBBF10BD001401405D
:103CE000580C0020FEE770477047000030B4034CCA
:103CF0008466034CC46630BC03F03EBD797700088F
:103D0000877700080C480F49007800EE100A0B482E
:103D1000B8EE400A80ED040AB5EE000A80ED060A0E
:103D20009FED070A81ED380A9FED070A074980EDEC
:103D3000050A416270470000500000209C120020DC
:103D4000000020427411002000007042513D000824
:103D50003748384942680A60008988803648D1ED82
:103D6000050A007800EE100AB8EE400AF4EEC00A28
:103D7000F1EE10FA05DB00EE100AB8EE400A81ED14
:103D8000050A2E48007DC2062D480CD5294A2D4B28
:103D9000283252689A4206DD9FED2B0A80ED370AE1
:103DA0009FED2A0A13E00278062A0AD00969284AF8
:103DB00091420FD19FED270A80ED370A9FED260A29
:103DC00005E09FED260A80ED370AB2EE040A80ED89
:103DD000380A7047224A9FED230A914202D1DFED53
:103DE000220A22E0214A914202D1DFED210A1CE0A1
:103DF000204A914202D1DFED200A16E01F4A91428B
:103E000002D1DFED1F0A10E01E4ADFED1F0A9142CA
:103E10000BD01E4A914201D0914206DD9FED1C0A53
:103E200080ED370A9FED1B0AD1E7C0ED370ACEE7D8
:103E3000001500209C12002050000020AE1D002024
:103E400074110020000060410000FA450000484263
:103E5000000034420080894500000C420000FA4412
:103E6000000048420000204200C08F4500005C4234
:103E7000004083450000704200A08C450000A04235
:103E800000409C450000C84200E0C4450000F042EC
:103E90000060D1450000344270B504F03FFE04F0EC
:103EA000EBFD2B4B2B4D01241E78DFED2B0A00225E
:103EB0002A48A3F12801022E03D15B68284EB342A1
:103EC00022DA91ED050A10EE103AAB420BDA81F8D6
:103ED0002040827030EEC00A91ED061A21EE000AF1
:103EE00081ED070A02E091F820303BB183785B1C3A
:103EF000837000235B1CDBB2042BFBD38378372B4E
:103F000002D381F82020827091ED050A10EE103A5C
:103F1000AB420BDA81F82140C27030EEC00A91ED5D
:103F2000061A21EE000A81ED070A02E091F821301D
:103F30003BB1C3785B1CC37000235B1CDBB2042B5A
:103F4000FBD3C378372B02D381F82120C27070BD18
:103F5000C412002000002042000020425000002037
:103F6000000060413EB50020254DADF80000ADF8E1
:103F70000400ADF8080001200C466870FDF7D2FF80
:103F8000A860E968DFED211A401A68602088ADF862
:103F900000006088ADF80400A088ADF80800BDF806
:103FA0000000194900EE100AB8EE401A9FED150AFC
:103FB000C1EE000AB2EE091AC1ED010A30EEC11AD3
:103FC000C1EE210A60EE800AFCEEE00A10EE900AD3
:103FD0000873BDF8040000EE900AA1F12800F8EE85
:103FE000600A80EE801A80ED031ABDF8081000EE1A
:103FF000901AF8EE600A80EE801A80ED021A3EBD3B
:10400000500000200000C842C41200203433334165
:10401000642003F03AFAFBE710B5502080F31188D2
:10402000BFF34F8FBFF36F8F05F0D0FC18B1044979
:104030004FF080500860002080F3118810BD000010
:1040400004ED00E030B593B030216846FCF72AFB60
:1040500014210CA8FCF726FB1A480025016841F042
:1040600080510160006800F080501190164801688E
:1040700041F4804101600068022400F48040119006
:10408000092000904FF4803001900120CDE9050413
:1040900080050790082008904820CDE909040320F6
:1040A0000B906846FEF744F90CA90F2081E8310017
:1040B000E002CDE90F0502210CA8FEF705F813B0C8
:1040C00030BD0000403802400070004010480168D8
:1040D00041F4700101600F48016841F00101016085
:1040E0000C4A00210832116002680B4B1A40026032
:1040F000031D0A4A1A60026822F480220260054801
:104100000C30016002495806803908607047000091
:1041100088ED00E000380240FFFFF6FE103000247A
:104120000148FEF71DBC00001C110020F0B402681D
:104130002C4B2D4C2D4D2E4EDFF8B8C098420AD096
:10414000B0F1804F07D0A04205D0A84203D0B042C2
:1041500001D0604503D122F070024F683A43984283
:1041600028D0B0F1804F25D0A04223D0A84221D042
:10417000B0421FD060451DD0A0F18044B4F5A034FA
:1041800018D0A0F18044B4F5A23413D0A0F180443B
:10419000B4F5A4340ED0A0F18044B4F5C05409D0D5
:1041A000A0F18044B4F5E05404D0A0F18044B4F50B
:1041B000005403D122F44072CC6822434C6922F0AF
:1041C0008002224302608A68C2620A688262984260
:1041D00001D0604501D10969016301214161F0BC51
:1041E000704700000000014000040040000800404B
:1041F000000C00400004014070B4026A22F0010289
:104200000262036A4268D0F818C02CF0700C2CF0DF
:10421000030C0C6844EA0C0C23F002038C68234363
:104220000F4C104DA04201D0A84205D123F0080345
:10423000CE68334323F00403A04201D0A84207D143
:1042400022F4807222F400724C6922438C6922436A
:104250004260C0F818C049684163036270BC70478F
:10426000000001400004014070B4026A22F0100214
:104270000262036A4268D0F818C02CF4E04C2CF4B7
:10428000407C0C684CEA042C23F020038C6843EA41
:104290000413114C114DA04201D0A84206D123F0C5
:1042A0008003CE6843EA061323F04003A04201D006
:1042B000A84209D122F4806222F400624C6942EAE9
:1042C00084028C6942EA84024260C0F818C04968DE
:1042D0008163036270BC704700000140000401402C
:1042E00070B4026A22F480720262036A4268D0F8F3
:1042F0001CC02CF0700C2CF0030C0C6844EA0C0C65
:1043000023F400738C6843EA0423114C114DA0423E
:1043100001D0A84206D123F40063CE6843EA062305
:1043200023F48063A04201D0A84209D122F4805234
:1043300022F400524C6942EA04128C6942EA0412E7
:104340004260C0F81CC04968C163036270BC70471A
:10435000000001400004014010B4026A22F48052BF
:104360000262D0F820C04268C36923F4E04323F41A
:1043700040730C6843EA04232CF4005C8C684CEA1C
:10438000043CA0F18044B4F5803404D0A0F1804412
:10439000B4F5823404D122F480424C6942EA84129A
:1043A0004260C36149680164C0F820C010BC704716
:1043B00010B50448FEF714FDBDE81040014800F0B8
:1043C00089BA0000040B00200148FEF709BD000077
:1043D000480B002010B5806B0021C185C184FEF719
:1043E000FDFC10BD70B5846B20684069C0F3C0103F
:1043F00094F83D100025212904D118B1E584204608
:1044000000F098F820684069C0F3801094F83E10DE
:10441000222904D118B1E585204600F057F8206C18
:1044200040F0100020642046FEF7D8FC70BD10B5A7
:104430000146886B0968096811F4807F2FD100213B
:10444000C18501680C3151E8002F22F4807241E8E7
:104450000023002BF5D10168143151E8002F22F020
:10446000010241E80023002BF5D10168143151E825
:10447000002F22F0400241E80023002BF5D120213B
:1044800080F83E10016B012909D101680C3151E817
:10449000002F22F0100241E80023002BF5D1016B20
:1044A000012902D0FFF76FF810BD818DFEF75DFC8A
:1044B00010BD10B5806B016B012902D0FFF764F8C5
:1044C00010BD818D4908FEF750FC10BD01680C310C
:1044D00051E8002F22F4907241E80023002BF5D11F
:1044E0000168143151E8002F22F0010241E8002355
:1044F000002BF5D1016B012909D101680C3151E87C
:10450000002F22F0100241E80023002BF5D12021DA
:1045100080F83E1000210163704710B50168CA6839
:1045200022F04002CA60202180F83D10FFF72DF8EC
:10453000002010BD01680C3151E8002F22F0C002AC
:1045400041E80023002BF5D1202180F83D10704771
:1045500008B590F83E10222901D0022008BD8268DB
:10456000B2F5805F01D1016929B1816AB2F5805F3E
:104570001DD052B10BE0816A02685268C2F3080292
:104580000A80816A891C816209E002697AB1026845
:10459000526802F07F020A70816A491C8162C18DF3
:1045A000491E0904090CC18505D0002008BD026818
:1045B00052680A70F0E70168CA6822F02002CA60F7
:1045C0000168CA6822F48072CA6001684A6922F0F0
:1045D00001024A61202180F83E10016B012903D0BD
:1045E000FEF7D1FF002008BD0021016301680C31F6
:1045F00051E8002F22F0100241E80023002BF5D1F2
:1046000001680A6812F0100F02D00A684968009128
:10461000818DFEF7AAFBE5E72DE9F041044620680D
:104620000169E26821F44051114301612169A068E8
:10463000E26908436169114301432068C26822F4BA
:10464000037222F414421143C16020684169A269D7
:1046500021F44071114341612068A0F18041B1F51E
:1046600088312ED0A0F18041B1F58A3129D0FDF7F3
:104670000DFE8446E16900201927254D3226B1F54B
:10468000004F22D06068830F8200ACFB0701FBF76C
:10469000F9FE0146A5FB002040097A42424301EBA6
:1046A000820106EB0111A5FB0121490901F0F0028D
:1046B00002EB001001F00F01084421688860BDE89A
:1046C000F081FDF7F3FD8446D4E761684A1840EBBA
:1046D0000003ACFB0701FBF7D5FE0346A5FB00106A
:1046E000410918460A016FF01803594300EB810095
:1046F00006EBC000A5FB0010400900F0F80102EB3A
:10470000410100F00700084421688860BDE8F0819D
:104710001F85EB5137B582B004461346039AA26257
:10472000A38500252564222084F83E00A16B1B4848
:10473000C863A16B1A480864A16B1A48C864A06BCF
:1047400005652068011DA06BFDF780FA20680168EF
:104750004068019084F83C5020680C3050E8001FFD
:1047600041F4807140E80012002AF5D1206814302D
:1047700050E8001F41F0010140E80012002AF5D185
:104780002068143050E8001F41F0400140E800125A
:10479000002AF5D105B0002030BD00002F440008EC
:1047A000B3440008E543000890F83D10212901D0EA
:1047B000022070478168B1F5805F01D1016961B164
:1047C000016A4A1C0262026809785160C18C491E64
:1047D0000904090CC1840AD013E0016A026809883F
:1047E000C1F308015160016A891C0162EEE70168AA
:1047F000CA6822F08002CA600068C16841F04001C6
:10480000C16000207047000010B50448FEF7E8FAC8
:10481000BDE81040014800F05DB800008C0B00209E
:1048200010B50448FEF7DCFABDE81040014800F07E
:1048300051B80000D00B00200148FEF7D1BA0000AB
:10484000140C002010B50448FEF7CAFABDE8104069
:10485000014800F03FB80000580C002010B5044695
:104860000168174881420BD11649174803F090FCA4
:10487000122214492046FEF76FFE122111480FE064
:104880001248814210D10F48643802F067FC0D498C
:10489000642264392046FEF75FFE0A4864216438CA
:1048A000BDE81040FBF7DCBE0948814207D105494D
:1048B00020461422BDE810401231FEF74DBE10BD57
:1048C0000010014094140020AE1D00200044004060
:1048D0000014014038B5016804460868C043C006AA
:1048E0000AD40868486800902046FEF73FFA204640
:1048F000BDE83840FFF7B2BF38BD0000174808B523
:104900000068016841680091C16841F01001C16010
:10491000122213491148FEF71FFE12480068016871
:1049200041680091C16841F01001C1600C496422E6
:1049300064390C48FEF710FE0B48006801684168B6
:104940000091C16841F01001C16005491422BDE821
:10495000084012310448FEF7FFBD00008C0B002018
:1049600094140020D00B0020580C0020FEE700001B
:1049700070B540F2F113294D294E0124A0F2F11235
:10498000984221D008DC03281AD0092817D1BDE8A5
:104990007040244802F022BD112A01D0122A0ED103
:1049A000401EC0B22870204A00EB400002EBC0005D
:1049B0000A461C4902F07CFB28783044847070BDA4
:1049C000FFF7D0FAB47270BDEC70088840BA00B23C
:1049D00000EE100A1548B8EEC00A80ED040A4A88B5
:1049E00052BA12B200EE102AB8EEC00A80ED050AE3
:1049F0008A8852BA12B200EE102AB8EEC00A80EDD0
:104A0000060A88790A4920B1012804D00228DAD19F
:104A10000420087070BD0C7070BD000060000020A4
:104A2000641100204C090020EC12002074110020B9
:104A30002600002010B5A0F20123144C082B15D23B
:104A4000DFE803F00414140415151515D8B26070CE
:104A50000F4A00EB400002EBC0000A460D4902F08D
:104A600027FB0D49627801201144887010BD401F5A
:104A7000C0B2A070064A00EB4000603202EBC000FA
:104A80000A46BDE81040034902F012BB6000002056
:104A9000EC120020740900206411002003B4019876
:104AA0004100009850EAC12018BF04204A0D18BFE9
:104AB00040F0010040F2FF72B2EB515F08BF40F0DE
:104AC0000200012808BF052002B07047410008021B
:104AD00018BF04200A0E18BF40F001004FF07F42BB
:104AE00032EA010108BF40F00200012808BF05209A
:104AF000704700000000000070B59B482DED020BD0
:104B00002DED068B079D25F00044A04218DC974848
:104B1000844202DC0AD1069840B19DED060BBDEC43
:104B2000068B02B0BDE8704001F0B6BA002DCCBFD4
:104B30009FED8F0B9FED900BBDEC068B02B070BD0F
:104B40008F48A04215DD8F48A042D8BF4FF0FF34F8
:104B500058DD9DED060B51EC100BFFF79FFF04286D
:104B600008BF01F0CDFA9DED060BBDEC068B02B03F
:104B700070BD9DED060B51EC100B02F0B6FACDE9BD
:104B8000060181489FED828BA0423CDD8248A04215
:104B90001FDD00249FED82AB9DED060B53EC1A2B1D
:104BA00051EC100B05F0E6F89DED060B41EC190BEE
:104BB00053EC1A2B51EC100B05F09EFC53EC182B08
:104BC00005F096FF53EC192B05F014FACDE9060118
:104BD00049E09DED060B012453EC182B51EC100B12
:104BE00005F0C8F89DED060B41EC190B53EC182BA2
:104BF00051EC100B05F07CFF53EC192B05F0FAF982
:104C0000CDE906012FE06848A0421FDD02249FED98
:104C1000689B9DED060B53EC192B51EC100B05F026
:104C20006BFC53EC182B05F0A5F89DED060B41EC41
:104C3000180B53EC192B51EC100B05F059FF53ECEA
:104C4000182B05F0D7F9CDE906010CE09DED060B18
:104C5000032453EC102B9FED580B51EC100B05F077
:104C6000C9F9CDE906019DED060B53EC102B51EC73
:104C7000100B05F041FC41EC180B53EC182B05F020
:104C80003BFC41EC190B4E480621B0EE490AF0EE10
:104C9000690A784401F069F953EC182B51EC100BB8
:104CA00005F02AFC41EC180B4648B0EE490AF0EE3C
:104CB000690A0521784401F058F953EC192B51EC9D
:104CC000100B05F019FC41EC100B51EC180B53ECD8
:104CD000102B002C0EDA05F04DF89DED061B53EC61
:104CE000112B05F009FC9DED061B53EC112B05F073
:104CF000D3FD35E005F03EF89DED061B53EC112B7E
:104D000005F0FAFB41EC100B2F48784400EBC4008F
:104D100090ED001B51EC100B53EC112B05F0E8FE4D
:104D20009DED061B53EC112B05F0E2FE41EC100B40
:104D30002648784400EBC40090ED001B51EC100BAA
:104D400053EC112B05F0A8FD41EC100B002DA2BF78
:104D5000BDEC068B02B070BD51EC100B04F0FEFFF1
:104D600041EC100B01E70000000010440000F07F50
:104D7000182D4454FB21F93F182D4454FB21F9BF51
:104D80000000DC3F0000203E0000F33F0000000078
:104D9000000000000000F03F0000E63F00000000BF
:104DA0000000000000000040008003400000000000
:104DB000000000000000F83F000000000000F0BF0D
:104DC0002A6E0000E06D00006A6D0000226D000098
:104DD00070B56B4E2DED040B2DED028B82B0DDF81E
:104DE0001CC0DDE905235C422CF000411C4341EA74
:104DF000D474049D22F00040B44205D86C422C4388
:104E000040EAD474B4420BD99DED061B9DED040B12
:104E100002B0BDEC028B04B0BDE8704001F046B9B1
:104E2000ACF14054A4F17F641C430BD0022404EA8B
:104E3000AC7444EAD27405439FED538B9FED542B21
:104E400007D015E09DED040B51EC100B01F03EFA7C
:104E500042E0002C11BF012C9DED040B02B0BDEC13
:104E6000028B04BF04B070BD022C38D0032C3BD0A1
:104E70000B439FED491B9FED4A0B0AD0B14218D15D
:104E8000B04209D121F0804120F080400791059087
:104E90000FE0002A15DA10E0434B7B44002C08BFDA
:104EA00093ED000B0DD0012C10D0022C17D0032C49
:104EB0001AD0B0421DD1002A03DAB0EE410AF0EE5A
:104EC000610A02B0BDEC028B04B070BD93ED000B23
:104ED00051EC100B04F042FF41EC100BF1E7B0EE87
:104EE000480AF0EE680AECE7B0EE420AF0EE620A19
:104EF000E7E7401A00153C28C8BF8DED000B19DC10
:104F0000BCF1000FBEBF10F13C0F9FED290B8DEDE2
:104F1000000B0FDB9DED060B53EC102B9DED040BEE
:104F200051EC100B05F066F802F0DFF801F0CEF955
:104F3000CDE90001002C08BF9DED000BC1D0012C74
:104F400010D0022C9FED1C0B53EC102B9DED000B91
:104F500051EC100B0DD005F0CBFD53EC182B05F0E8
:104F6000C7FDB9E7019880F0004001909DED000B6E
:104F7000A7E705F0BDFD53EC182B05F08DFCABE762
:104F80000000F07F00000000182D4454FB21094070
:104F9000182D4454FB2109C0182D4454FB21F9BF9E
:104FA000182D4454FB21F93F526C00000000000012
:104FB0000000000000000000075C143326A6A13C9E
:104FC00010EE101A08B5444A6846B2EB410F28D9D2
:104FD0004FF0E640B0EB410F94BF00204FF0FF30A0
:104FE00000900098002861DB60EE000A10F0010FCD
:104FF00045D010F0020FDFED391A9FED391A00EE9F
:10500000E11ADFED381A40EE811A21EEA01AF0EE17
:10501000400A40EE010A08BFF1EE600AB0EE600AF5
:1050200008BD314B21F0004293423CD911F0004FB2
:10503000DFED2E0A20EE201ADFED2D0A19BF31EE2A
:10504000601A71EE200A31EE201A71EE600ABDEE90
:10505000E01A11EE100A9FED271A00F0030000EE8F
:10506000C10A9FED251A009000EEC10A9FED231A98
:1050700000EEC10A9FED221A00EEC10AB1E79FEDD2
:10508000211A9FED210A10F0020F00EE810A9FED18
:105090001F1A00EE801AB7EE000A00EE810A18BF50
:1050A000B1EE400A08BD01F04FF89AE710EE100A81
:1050B0004000B0F17F4F3CBFB7EE000A08BD07D1FA
:1050C0004FF00100FBF71DFBBDE8084001F02CB8D4
:1050D000BDE8084001F024B8B61F927E336D4C390C
:1050E000DA82083CA0AA2ABE490E494683F9223F2B
:1050F0000000004B0000C93F00A0FD390020A23392
:105100001A61342CB93AB2BACA9F2A3DDDFFFFBEFC
:105110002DE9F04D2DED040B2DED0E8B96B0DDE954
:105120002550279CDDF890A025F0004624F000488B
:10513000BAF1000F14BF0121002101EB4502FC4927
:1051400053184A1093422AD3002814BF0123002386
:1051500003EB44030B44F7498B4220D358EA000188
:105160009FEDF59B76D0DFF8D8B35D4503D1BAF15A
:10517000000F05D188E0BAF1000F08BF002100D070
:10518000012101EB450111F5001F08D8002814BFCB
:105190000121002101EB440111F5001F0BD99DED08
:1051A000261B9DED240B16B0BDEC0E8B04B0BDE8A4
:1051B000F04D00F07BBF0027002DBCBFE1498845C2
:1051C00021DAE1498845A8BF02271CDAC3451ADC69
:1051D000DE4901EB2851142908DDC1F1340220FA1F
:1051E00002F101FA02F282420DD108E058B9C1F190
:1051F000140228FA02F101FA02F2424503D101F049
:105200000101C1F1020756EA0A0124D1002C22DA79
:10521000002D18BF022F01D0012F0AD00220FBF76A
:1052200070FA16B0BDEC0E8B04B0BDE8F04D00F086
:105230001BBF0220FBF765FA00F016FF51EC100BC4
:1052400004F08CFD41EC100B16B0BDEC0E8B04B0DD
:10525000BDE8F08D18E09FEDBEAB9FEDBF8B002841
:1052600071D1B848804522D105F1804010F58010F9
:1052700008BFBAF1000F07D0B3450ADC002CA8BF65
:105280009DED260BE0DA0DE0B0EE490AF0EE690A7A
:10529000DAE7002C06DA9DED260B51EC100B04F03A
:1052A0005DFD6FE0AE48784490ED000BCCE7D8454B
:1052B0004DD1002C48DA2EB186423AD1BAF1000F16
:1052C00042D126E0BAF1000F13D00220FBF719FA01
:1052D00000F006FF8DED020B9DED240B8DED000B14
:1052E00010EE900A039961F31E0003909DED020BEE
:1052F000AAE78DED02AB9DED240B1AEE901A10EE8D
:10530000900A8DED000B61F31E0003909DED020BE2
:105310009AE78DED028B9DED240B18EE901A10EE9E
:10532000900A8DED000B61F31E0003909DED020BC2
:105330008AE709DA9DED240B51EC190B53EC102B85
:1053400004F058FE1EE020E09DED240B7CE7864231
:105350001BDAB4F1804F0DD0A4F10050B0F1FF5032
:1053600013D1002D11DB9DED240B51EC100B03F03C
:10537000FFF807E09DED240B53EC102B51EC100BC4
:1053800000F0C2BC41EC100B5EE79DED240B51EC2C
:10539000100B01F0AAFEBAF1000FCDE90E0142D1C7
:1053A0009FED710B46B3A6F1E040B0F17F600CD0E9
:1053B0005E4538D1002D00DAA7B3022F0CBF0120C3
:1053C0004FF0FF3005F038F8DCE7002D01DD002C50
:1053D0000DDA002D01DD002C1FDB002D16DA002C6C
:1053E00014DB012F08BF9FED620B3FF42DAFB0EE31
:1053F0004A0AF0EE6A0A27E7022F18BF002D0CD0E8
:10540000012F0AD1002DFFF61FAF06E0002DB8BF17
:10541000002C08DA012F3FF417AFB0EE480AF0EE87
:10542000680A11E71BE0012000EBE57050EA070174
:1054300015D0791EB0EE498AF0EE698A084308BF9C
:105440009FED4D8B4E480025804570DD4D494E48FF
:10545000884514DDB0420DDB002C19DB2FE0012064
:10546000FBF74FF916B0BDEC0E8B04B0BDE8F04D64
:1054700000F026BEB34502DC002C09DC1FE08642AA
:1054800002DA002C1BDA03E05E452BDD002C16DD72
:105490000220FBF736F900F023FE8DED020B53ECF2
:1054A0001A2B51EC180B05F027F8CDE900010399F0
:1054B000019861F31E0003909DED020BC4E60220EB
:1054C000FBF71FF900F01CFE10EE901A18EE900A80
:1054D0008DED020B8DED008B61F31E0003909DEDB1
:1054E000020BB1E69DED0E0B53EC192B51EC100B9A
:1054F00005F0FEFA9FED260BCDE9080153EC102BC9
:105500009DED080B51EC100B04F0F6FF9FED221BF4
:1055100053EC112B05F0C0F99DED081B53EC112B3A
:1055200004F0EAFF9FED1E1B53EC112B3CE08CE0D6
:10553000FFFF1F00FFFF0F00000000000000F03F12
:105540000000F03F0000F07F0000404301FCFFFF3F
:10555000000000000000F07F0000000000000000DC
:10556000466800000000000000000000000000800D
:10557000000000000000F0FF000000000000F0BF8D
:105580000000E0410000F043FFFFEF3F000000009B
:10559000000000000000D03F555555555555D53FEA
:1055A000000000000000E03F05F076F99DED080BDB
:1055B00041EC1A0B53EC102B51EC100B04F09CFF38
:1055C00053EC1A2B04F098FF41EC1A0B9FEDFE0BE5
:1055D00053EC102B9DED080B51EC100B04F08CFFDD
:1055E00041EC1B0B9FEDFA0B51EC1A0B53EC102BFB
:1055F00004F082FF41EC1A0B9FEDF70B53EC102BDC
:105600009DED080B51EC100B04F076FF53EC1A2BB8
:1056100005F06EFA41EC1A0B51EC1B0B53EC1A2BF4
:1056200004F0A8FB0690CDE906519DED060B53EC66
:105630001B2B51EC100B05F05BFA53EC1A2B05F009
:105640002BF941EC100B00F0A1B90020B6F5801F3A
:105650000EDA9FEDE30B53EC102B9DED0E0B51EC8E
:10566000100B04F049FFCDE90E016FF034000E4637
:1056700000EB2650A0F2FF37C6F31300DA4940F0E2
:105680007F6646F040568842D8BF002408DDD749DF
:105690008142C8BF012403DC0024A6F580167F1CCC
:1056A000D348784400EBC4000F9690ED00CB9DEDFD
:1056B0000E0B53EC1C2B51EC100B05F019FA9DED61
:1056C0000E0B41EC1B0B53EC1C2B51EC100B04F09C
:1056D00051FB41EC100B51EC190B53EC102B04F067
:1056E00089FC41EC1D0B51EC1B0B53EC1D2B04F002
:1056F00003FF41EC1A0BBF488DED10AB78441095B9
:1057000090ED000B4FF0005040EA660000EB844043
:105710008DED080B00F5002009909DED080B53EC72
:105720001C2B51EC100B05F0E3F99DED0E1B53EC17
:10573000112B05F0B1F841EC100B53EC102B9DED43
:10574000100B51EC100B04F0D7FE9DED080B41EC53
:105750001C0B53EC102B9DED100B51EC100B04F0B7
:10576000CBFE53EC1B2B05F097F853EC1C2B05F0EC
:10577000BFF953EC1D2B04F0BFFE41EC1C0B53ECA6
:105780001A2B51EC1A0B04F0B7FE41EC1B0B9A4894
:105790000621B0EE4B0AF0EE6B0A784400F0E5FB10
:1057A000B0EE401AF0EE601AB0EE41DAF0EE61DAD7
:1057B00053EC1B2B51EC1B0B04F09EFE53EC1D2BEA
:1057C00004F09AFE9DED100B41EC1B0B53EC1A2BD1
:1057D00051EC100B04F0CEFA53EC1C2B04F08CFEB1
:1057E00053EC1B2B04F0C6FA9DED100B41EC1B0B88
:1057F00053EC102B51EC100B04F07EFE41EC1D0B12
:105800009FED7FEB53EC1E2B04F0B4FA53EC1B2BF3
:1058100004F0B0FA0890CDE908519DED080B53EC67
:105820001E2B51EC100B05F063F953EC1D2B05F00A
:105830005FF953EC1B2B05F02FF89DED080B41ECA5
:105840001D0B53EC102B9DED100B51EC100B04F0C5
:1058500053FE41EC1B0B53EC1A2B51EC1D0B04F0C7
:105860004BFE9DED080B41EC1A0B53EC102B51EC49
:105870001C0B04F041FE53EC1A2B04F07BFA41ECB4
:105880001A0B51EC1B0B53EC1A2B04F073FA0C900F
:10589000CDE90C519DED0C0B53EC1B2B51EC100B77
:1058A00005F026F953EC1A2B04F0F6FF41EC1B0B24
:1058B0009FED550B53EC102B9DED0C0B51EC100B89
:1058C00004F01AFE41EC1A0B9FED510B51EC1B0B2F
:1058D00053EC102B04F010FE41EC1B0B9FED4E0B14
:1058E00053EC102B9DED0C0B51EC100B04F004FE4F
:1058F00053EC1B2B04F03EFA41EC100B4848784463
:1059000000EBC40090ED001B51EC100B53EC112B7D
:1059100004F030FA41EC1B0B384604F08DFDCDE964
:10592000080153EC1B2B51EC1A0B04F023FA41EC49
:10593000100B3C48784400EBC40090ED00CB51ECD8
:10594000100B53EC1C2B04F015FA9DED081B53ECC7
:10595000112B04F00FFA0690CDE906519DED080BCE
:1059600053EC102B9DED060B51EC100B05F0C0F81D
:1059700053EC1C2B05F0BCF853EC1A2B05F0B8F8CF
:1059800053EC1B2B04F088FF41EC100B9DED261B04
:1059900053EC102B8DED001B00959DED260B51EC6B
:1059A000100B04F0A9FD9DED000B41EC1A0B53EC1C
:1059B000102B9DED260B51EC100B05F099F89DED89
:1059C000061B53EC112B2FE0000000604715F73F3A
:1059D000FE822B654715F73F44DF5DF80BAE543E62
:1059E00000000000000040438E9803007AB60B00D0
:1059F0002A630000F0630000626200000000000003
:105A00000000000000000840000000E009C7EE3F71
:105A1000FD033ADC09C7EE3FF5015B14E02F3EBE03
:105A2000EE600000A860000004F066FD53EC1A2B45
:105A300004F0A0F99DED060B41EC1A0B53EC102B72
:105A40009DED000B51EC100B04F056FDCDE90C015F
:105A50009DED0C0B51EC1A0B53EC102B04F08AF952
:105A6000CDE902010C46AA498C422FDB611A08439A
:105A700018D19DED0C0B53EC102B9DED020B51EC4E
:105A8000100B05F035F841EC1B0B9FEDA30B51EC0F
:105A90001A0B53EC102B04F06DF953EC1B2B04F094
:105AA000CAFE2DD20220FAF72CFE00F019FB10EEF0
:105AB000901A18EE900A8DED020B8DED008B61F3BC
:105AC0001E0003909DED020BFFF7BEBB944A24F02D
:105AD0000041914214D39349214408437FF4EFAC31
