:020000040800F2
:1000000060490020E9020008A7240008F122000846
:10001000A524000843050008F1280008000000009E
:10002000000000000000000000000000290200089D
:100030004D07000800000000850200081125000897
:100040000303000803030008030300080303000878
:100050000303000803030008030300080303000868
:100060000303000803030008030300080303000858
:100070000303000803030008030300080303000848
:10008000030300080303000803030008E505000854
:10009000C1050008CD050008D905000803030008C4
:1000A00003030008E5250008030300080303000814
:1000B0000303000803030008030300080303000808
:1000C00003030008030300080303000803030008F8
:1000D00003030008E52800080303000803030008E1
:1000E00003030008030300080303000803030008D8
:1000F00003030008030300080303000803030008C8
:1001000003030008030300080303000803030008B7
:1001100003030008030300080303000803030008A7
:100120000303000803030008B906000803030008DE
:10013000030300080000000000000000950600080E
:10014000710600087D060008890600080303000800
:100150000303000803030008C506000803030008A2
:100160000303000803030008030300080303000857
:100170000303000803030008000000000000000063
:10018000030300080303000800F002F800F03CF845
:100190000AA090E8000C82448344AAF10107DA45E2
:1001A00001D100F031F8AFF2090EBAE80F0013F0F8
:1001B000010F18BFFB1A43F001031847B8370000BE
:1001C000D8370000103A24BF78C878C1FAD852074F
:1001D00024BF30C830C144BF04680C6070470000C1
:1001E0000023002400250026103A28BF78C1FBD840
:1001F000520728BF30C148BF0B6070471FB503F0DE
:1002000073FB1FBD10B510BD00F061F91146FFF77B
:10021000F5FF02F09EFC00F07FF903B4FFF7F2FF58
:1002200003BC00F087F900002C4B19680868B0E89F
:10023000F04F80F30988BFF36F8F4FF0000080F319
:10024000118870470000000008480068006880F3CB
:1002500008884FF0000080F3148862B661B6BFF3DF
:100260004F8FBFF36F8F00DF00BF00BF08ED00E0CE
:10027000DFF80C00016841F470010160704700BFB5
:1002800088ED00E0EFF30980BFF36F8F134B1A681E
:100290001EF0100F08BF20ED108A20E9F04F10600B
:1002A00009B44FF0500080F31188BFF34F8FBFF3B4
:1002B0006F8F03F051F94FF0000080F3118809BCF3
:1002C00019680868B0E8F04F1EF0100F08BFB0ECD6
:1002D000108A80F30988BFF36F8F704738000020C1
:1002E000EFF3058070470000094880470948004740
:1002F000FEE7FEE7FEE7FEE7FEE7FEE7FEE7FEE7D6
:10030000FEE7FEE704480549054A064B7047000032
:10031000D5250008890100086043002060490020BD
:10032000604500206045002053EA020C00F069801F
:100330002DE9F04B4FF00006002B1FBFB3FA83F5F9
:1003400003FA05F424FA05F65E4012BF1643B2FA2A
:1003500082F502FA05F4C5F120051EBF22FA05FC5C
:1003600044EA0C04203556EA044C4FEA144418BF02
:10037000641C4FF000084FF00009904271EB030C31
:1003800039D3002919BFB1FA81F701FA07F6B0FA9B
:1003900080F700FA07F6C7F120071EBF20FA07FC16
:1003A00046EA0C062037B6FBF4FCA7EB0507103F26
:1003B00007F01F0BCBF120060CFA0BFB2CFA06F60C
:1003C00044BFB3460026202FA4BF5E464FF0000B6B
:1003D0005BEA060C08BF4FF0010B19EB0B09ABFBF6
:1003E000027C48EB0608C01B06FB02CC0BFB03CCCF
:1003F00071EB0C01C1E70B46024641464846BDE899
:10040000F08B13B54FF000004FF00001AFF3008008
:10041000BDE81C40704710B5203AC0F00B80B1E831
:100420001850203AA0E81850B1E81850A0E8185029
:10043000BFF4F5AF5FEA027C24BFB1E81850A0E832
:10044000185044BF18C918C0BDE810405FEA827C4C
:1004500024BF51F8043B40F8043B08BF7047D20763
:1004600028BF31F8023B48BF11F8012B28BF20F804
:10047000023B48BF00F8012B70474FF0000200B567
:10048000134694469646203922BFA0E80C50A0E8B7
:100490000C50B1F12001BFF4F7AF090728BFA0E865
:1004A0000C5048BF0CC05DF804EB890028BF40F831
:1004B000042B08BF704748BF20F8022B11F0804F73
:1004C00018BF00F8012B704770477047704775469A
:1004D00000F02CF8AE4605006946534620F00700B0
:1004E000854618B020B5FFF70DFFBDE820404FF05E
:1004F00000064FF000074FF000084FF0000B21F00E
:100500000701AC46ACE8C009ACE8C009ACE8C009DA
:10051000ACE8C0098D46704710B50446AFF30080C3
:100520002046BDE81040FFF778BE00000048704745
:10053000FC42002001491820ABBEFEE72600020065
:100540007047FEE792084A6100220A6101220A62AE
:1005500000F0F6B92DE9F04117460D46804600241B
:1005600040F6FF7626E000BF14F0030106D0012913
:1005700007D0022908D0032910D108E040012860E3
:100580000CE04001686009E04001A86006E040011D
:10059000E860224629464046FFF7D4FF07EB840077
:1005A0004068B04204D1224629464046FFF7CAFFC0
:1005B000641CE4B257F82400B042D5D1BDE8F08104
:1005C000014800F0CEBA0000F8020020014800F017
:1005D000C8BA0000F8020020014800F0C2BA0000CA
:1005E000F8020020014800F0BCBA0000F802002028
:1005F0000E2303EB92024A6101220A610A6200F0B3
:100600009FB900002DE9F04117460D4680460024B1
:1006100040F6FF7626E000BF14F0030106D0012962
:1006200007D0022908D0032910D108E04001286032
:100630000CE04001686009E04001A86006E040016C
:10064000E860224629464046FFF7D2FF07EB8400C8
:100650004068B04204D1224629464046FFF7C8FF11
:10066000641CE4B257F82400B042D5D1BDE8F08153
:10067000014800F076BA000020030020014800F095
:1006800070BA000020030020014800F06ABA0000A0
:1006900020030020014800F064BA0000200300207D
:1006A00002F07EFE02F072FA02F0D6F902F098FE35
:1006B000022002F099FAF3E7014800F05BBD000068
:1006C0008C030020014800F055BD0000EC03002021
:1006D00001681823CAB2103AB2FBF3F2054B6FF36C
:1006E0000901032A9B5CC36500D9091D8165084681
:1006F000704700004039000810B5014600208B69A2
:100700008A6A4FF0C07453B1B3F5005F15D072B16F
:10071000012A0CD0022A0AD0032A09D104E01AB116
:10072000012A06D0022A03D1C96AC90100D50120D5
:1007300010BDC96AA142FAD010BD002AF7D0012A23
:10074000F2D0022AF3D0032AF3D010BD704772B65C
:10075000FEE70000194810B5B0F9041000F13004AC
:1007600000EE101AB8EEC00A84ED070AB0F91C00BA
:1007700000EE900A04F13C00F8EEE00AC4ED0D0A28
:10078000D4ED060A02F066FAD4ED0C0A94ED0D0AD7
:1007900004F1B00002F05EFA04F13C01084A91ED68
:1007A000100ABDEEC00A10EE100A108091ED2D0A5D
:1007B000BDEEC00A10EE100A508010BDB804002033
:1007C0002600002070B5144D00242DED048B9FED04
:1007D000139A9FED138ADFED138A00BFF0EE490AEA
:1007E00004EB4400C0EB441005EB8000B0EE603A2F
:1007F000F0EE602AB0EE482AF0EE601AB0EE601A11
:10080000B0EE680A002101F04FFE641CE4B2022C35
:10081000E4D3BDEC048B70BD240500200000000073
:100820009A99214100007A46018849BA09B200EE3E
:10083000101A0749B8EEC00A81ED060A408840BA8E
:1008400000B200EE100AB8EEC00A81ED0C0A704743
:10085000E804002090F82020012A07D0022A05D0C1
:10086000416A41F480214162012070470068426979
:100870000A43426100207047F0B590F820500468A8
:10088000A468012D05D0022D03D0416A41F48021D6
:1008900053E014F0406F01D1E5004BD5C4F301647F
:1008A000022C03D9416A41F4000146E00125A5402C
:1008B0001D608D684FF4C0739DB1CE6835434E689E
:1008C00045EAC605066803EB0417F5514FF4C275F7
:1008D000076805EB04150E697E51097D012905D0D5
:1008E00009E00E88CD6845EA4655EBE701684E59A8
:1008F00046F480764E511179D2F805504FF4C67601
:1009000041EA0525016806EB04168D511178D2F8ED
:1009100001204FF4C47541EA0221026805EB041579
:100920005151006803EB0411425842F00102425059
:100930000020F0BD416A41F4001141620120F0BD88
:1009400010B590F82020012A07D0022A05D0416A6C
:1009500041F480214162012010BD3B48D0F80022C3
:1009600042F00102C0F80022D0F8002222F47C52AA
:10097000C0F80022D0F800224B6A42EA0322C0F8F5
:1009800000220A7D02F01F0301229A40D0F81C3297
:100990009343C0F81C32CB69B3B9D0F80C329343FF
:1009A000C0F80C328C894B6864F31F434C6900EB30
:1009B000C404C4F840320C890B6864F31F434C69CB
:1009C00000EBC404C4F84432CB69012B16D1D0F833
:1009D0000C321343C0F80C320C884B6864F31F438D
:1009E0004C6900EBC404C4F840320C89CB6864F352
:1009F0001F434C6900EBC404C4F844328B69002BDC
:100A0000D0F804320ED01343C0F804320B69002B27
:100A1000D0F8143208D01343C0F81432096A0129FF
:100A200004D008E09343EFE79343F5E7D0F81C12B6
:100A30001143C0F81C12D0F8001221F00101C0F8D7
:100A40000012002010BD000000640040704730B567
:100A500090F82040012C05D0022C03D0416A41F4CB
:100A600080215DE00468002955D02469A40754D092
:100A70004FF4D874056804EB01142D5915F00405E2
:100A8000956005682D594ED0ED08556005682C59C4
:100A900004F00204D4604FF4DA74056804EB011426
:100AA0002D5905F00F05156105682D59C5F307256A
:100AB000956105682C59240C54614FF4DC7204686C
:100AC00002EB0112A4581C700468A458240A5C703C
:100AD0000468A458240C9C700468A258120EDA70A2
:100AE0004FF4DE72046802EB0112A4581C71046812
:100AF000A458240A5C710468A458240C9C710468EE
:100B0000A258120EDA71006881B1016941F020012A
:100B10000161002030BDE468A8E7416A41F400119A
:100B20004162012030BD6D0D1560AFE7C16841F035
:100B30002001C160EDE70246002092F82010012953
:100B400001D002290CD111688A68520100D5012018
:100B50008A68120100D5401C8968C90000D5401C74
:100B600070472DE9F05F0546006800244669D0F81B
:100B700004908768D0F80CB0D0F810A0D0F8188096
:100B8000F10748D0F90714D001218160B80703D5D7
:100B9000284600F08EFA0CE0780702D54FF4006486
:100BA00007E0380702D54FF4805402E0284600F0F1
:100BB0007FFAF80516D529684FF480708860B8056B
:100BC00003D5284600F077FA0CE0780502D544F406
:100BD000005407E0380502D544F4804402E028467A
:100BE00000F068FAF80316D529684FF48030886061
:100BF000B80303D5284600F060FA0CE0780302D56C
:100C000044F4004407E0380302D544F4803402E0A1
:100C1000284600F051FA300707D55FEACB6004D5CB
:100C20002968102044F40074C86070074FF008076A
:100C300007D55FEA0B7004D52868C760284600F026
:100C4000CDF9B00706D52868C068800702D02846CD
:100C500000F0C6F9700607D55FEACA6004D52968B6
:100C6000102044F480640861B00607D55FEA0A707A
:100C700004D528680761284600F0CEF9F00606D5AD
:100C800028680069800702D0284600F0C7F9B00341
:100C900008D55FEAC96005D5296810204860284654
:100CA00000F0D8F9F00307D55FEA097004D5286889
:100CB0004760284600F002FA300446D55FEA4970E2
:100CC00040D5F00504D55FEAC87001D044F00104B6
:100CD000B00504D55FEA887001D544F002047005C0
:100CE00004D55FEA487001D544F00404300529D5E5
:100CF00018F0700F26D008F07000402815D006DCE0
:100D0000102809D020280AD0302816D10AE050280F
:100D10000ED0602811D10EE044F008040DE044F03C
:100D200010040AE044F0200407E044F0400404E02A
:100D300044F0800401E044F480742868816921F063
:100D400070018161296804204860002C05D0686A20
:100D5000204368622846FFF779FEBDE8F09F70B532
:100D6000040003D094F8200010B104E0012070BD0D
:100D7000204600F081F82068016841F0010101601F
:100D800000F030FC0546052604E000F02BFC401B7B
:100D90000A2811D820684068C007F6D0206801688A
:100DA00021F00201016000F01DFC05460BE000F09F
:100DB00019FC401B0A2806D9606A40F400306062C2
:100DC00084F82060D2E7206840688007EFD4207E56
:100DD0000128206801683DD021F080010160607E1B
:100DE00001282068016838D021F040010160A07E10
:100DF00001282068016833D021F020010160E07EE5
:100E00000128206801682ED041F010010160207F88
:100E100001282068016829D021F008010160607F65
:100E200001282068016824D021F004010160D4E980
:100E300002010843D4E90412114308436168491EC2
:100E400008432168C86100206062012084F8200006
:100E5000002070BD41F08001C0E741F04001C5E7CE
:100E600041F02001CAE721F01001CFE741F008016D
:100E7000D4E741F00401D9E72DE9F04387B00446F7
:100E800014216846FFF7F9FA504B5148DFF83881D2
:100E90001968D4F800C04E4A022503260927DFF856
:100EA000349110300024491CC4453CD119600129FB
:100EB00007D1016841F000710160006800F0007026
:100EC0000590106840F002001060106802AB00F05E
:100ED000020005904FF44070CDE9000583E8D00092
:100EE0006946484600F080FA00220521132000F0F0
:100EF00005FC132000F0F4FB00220521142000F073
:100F0000FDFB142000F0ECFB00220521152000F071
:100F1000F5FB152000F0E4FB00220521162000F06F
:100F2000EDFB16204BE0DFF8B080C44549D1D0F886
:100F300000C04CF0806CC0F800C0D0F800C001299F
:100F40000CF0806CCDF814C0196007D1016841F035
:100F500000710160006800F000700590106840F0BA
:100F600002001060106802AB00F0020005904FF420
:100F70004050CDE9000583E8D0006946484600F0BE
:100F800033FA002205213F2000F0B8FB3F2000F09B
:100F9000A7FB00220521402000F0B0FB402000F01C
:100FA0009FFB00220521412000F0A8FB412000F01A
:100FB00097FB00220521422000F0A0FB422000F018
:100FC0008FFB07B0BDE8F0830064004008000020FC
:100FD00030380240000402400068004070470000C2
:100FE00010B50A4A016891420FD1094B00211C46F5
:100FF000A3F11C02FFF72BFD0548064A1C382146C9
:101000000068D268BDE81040104710BD0064004081
:10101000B00400200C0000207047000010B50A4A00
:10102000016891420FD1094B01211C46A3F11C021A
:10103000FFF70DFD0548064A1C3821460068126975
:10104000BDE81040104710BD00680040B00400200B
:101050000C0000207047000070B5044690F8200096
:10106000012804D0606A40F40020606218E0022089
:1010700084F820002068016821F00101016000F07F
:10108000B1FA05460EE000BF00F0ACFA401B0A289A
:1010900008D9606A40F400306062052084F82000BE
:1010A000012070BD20684068C007EDD1606270BD4E
:1010B00070477047704770477047704770472DE919
:1010C000F0410446876D00F08DFA064694F835002D
:1010D0000025022806D08020606584F83450012065
:1010E000BDE8F0812068016821F0160101602068E8
:1010F000416921F080014161206C08B9A06C20B1E8
:101100002068016821F0080101602068016821F071
:10111000010101600CE000F065FA801B052807D989
:1011200020206065032084F8350084F83450D7E728
:1011300020680068C007EED194F85C103F2088401A
:10114000B860012084F8350084F834500020C7E7E7
:1011500090F83510022903D08021416501207047A5
:10116000052180F835100068016821F00101016057
:10117000002070472DE9F84304464FF00009CDF8F0
:10118000009063484FF41651A56D0068B0FBF1F76D
:101190002E6894F85C10082000FA01F131420FD05B
:1011A00021680A6852070BD50A6822F004020A6017
:1011B00094F85C108840A860606D40F001006065A4
:1011C00094F85C104FF0010808FA01F0304208D0A2
:1011D00021684969090604D5A860606D40F00200E5
:1011E000606594F85C1004208840304208D0216883
:1011F0000968890704D5A860606D40F00400606547
:1012000094F85C1010208840304218D0216809689A
:10121000090714D5A86020680168490304D500684F
:10122000000308D5A16C07E00168C90503D4016873
:1012300021F008010160216C09B12046884794F82B
:101240005C1020208840304231D021680968C906EE
:101250002DD5A86094F8350005282068016806D0CF
:10126000490347D5006800031DD4616C1CE021F0E0
:10127000160101602068416921F080014161206C04
:1012800008B9A06C20B12068016821F00801016054
:1012900094F85C103F208840A86084F8358084F87A
:1012A0003490216D1FE0E16B09B120468847606DE5
:1012B00000282BD0606DC00714D0052084F83500BD
:1012C0002068016821F0010101600098401C009035
:1012D000B84203D820680068C007F6D184F835808A
:1012E00084F83490E16C002910D001B02046BDE8AC
:1012F000F04308470168C905D5D4016821F0100101
:10130000016084F8358084F83490CCE7BDE8F88338
:10131000A00000202DE9F041044600F063F90646E4
:101320005CB1022084F83500002584F83450206830
:10133000016821F0010101600DE00120BDE8F081AC
:1013400000F050F9801B052805D920206065032096
:1013500084F83500F2E720680068C007F0D1226801
:10136000116820480140D4E901031843D4E9033649
:101370003343184363691843A3691843E369184367
:10138000236A18430843616A042903D1D4E90B1383
:1013900019430843106020684069666A20F007011D
:1013A00030460E43012704280CD1A06A0643E06AA8
:1013B00040B12046FFF7A0F920B14020606584F8D5
:1013C0003570BAE7206846612046FFF781F994F846
:1013D0005C203F2191408160656584F83570002074
:1013E000ACE700003F8010F02DE9F84FDFF8BCA11A
:1013F0000022012503264FF00F090AF1040BAAF180
:10140000040E00BF0B6805FA02F42340A34270D11A
:101410000F7907F00307012F01D0022F16D187683B
:101420004FEA420806FA08FC27EA0C07D1F80CC07C
:101430000CFA08FC4CEA070CC0F808C04768A74340
:101440000C79C4F3001494403C4344600C79E443A9
:10145000A4070AD0C4684FEA420C06FA0CF7BC4352
:101460008F6807FA0CF72743C7600C7904F0030470
:10147000022C12D1D40800EB840CDCF82040570772
:10148000FF0E09FA07F824EA0804D1F8108008FAD8
:1014900007F848EA0408CCF8208004684FEA420CB8
:1014A00006FA0CF7BC430F7907F0030707FA0CF7AD
:1014B000274307604C6814F4403F70D03C4C2768C9
:1014C00047F480472760246822F0030704F480442F
:1014D0000094384C07EB040CDCF8084897074FEAF7
:1014E000177809FA08F7BC43334FB84202D10027F6
:1014F00024E054E0314FB84201D101271EE0304FC3
:10150000B84201D1022719E02E4FB84201D103277A
:1015100014E02D4FB84201D104270FE02B4FB84201
:1015200001D105270AE02A4FB84201D1062705E07C
:10153000284FB84201D1072700E0082707FA08F72B
:101540002743CCF80878DAF800405746D1F804C0B1
:101550009C435FEACC2C00D51C433C60DBF8004088
:101560005F46D1F804C09C435FEA8C2C00D51C4335
:101570003C60DEF800407746D1F804C09C435FEA47
:101580008C3C00D51C433C60084F083F3C68D1F8B8
:1015900004C09C435FEACC3C00D51C433C60521C19
:1015A000102AFFF42FAFBDE8F88F0000083C01407F
:1015B0004438024000300140000002400004024074
:1015C00000080240000C02400010024000140240DB
:1015D00000180240001C02400AB1816170470904F2
:1015E000FBE7000001488068704700002C000020E5
:1015F0000248816802781144816070472C00002005
:101600000B4810B5016841F400710160016841F4B4
:1016100080610160016841F480710160032000F085
:101620008DF80F2000F006F800F03EF8002010BD05
:10163000003C024010B5014688B00022192000F09D
:101640005DF8192000F04CF813480024016841F0BF
:1016500001010160006805A900F0010006906846DC
:1016600000F018F900F046F90C494000B0FBF1F128
:101670000C480B4A491E026040F2E732C0E90324DD
:10168000C0E9011400F024FB10B1012008B010BD26
:10169000044800F04BFBF9E74438024040420F0099
:1016A000000001404C0400200C4882B0016841F465
:1016B00080410160006800F4804000900748001FEE
:1016C000016841F0805101600068002200F0805004
:1016D00000900F21901E02B000F010B84438024074
:1016E000002809DB00F01F02012191404009800021
:1016F00000F1E020C0F8001170470000F0B40E4B7C
:101700001B680C46C3F30223C3F10705042D00D95F
:101710000425191D072901D2002300E0DB1E012644
:1017200006FA05F1491E214099409E40761E16405A
:101730003143F0BC01F0FBB80CED00E0064900F0CD
:10174000070208684FF6FF03184040EA0220034AE8
:1017500010430860704700000CED00E00000FA053F
:101760002DE9F0470E46050065D0DFF81481D8F862
:101770000000F7B200F00700B04207D288F800700E
:10178000D8F8000000F00700B04254D128683D4C62
:10179000810712D5400703D5206840F4E05020604F
:1017A0002878000703D5206840F460402060206856
:1017B000A96820F0F000084320602878C0072DD0E9
:1017C000304968680839012812D0022813D003284C
:1017D00011D00968890700292DDA216821F0030159
:1017E00001432160FFF7FEFE814641F2883A0EE098
:1017F00009688903EFE709688901ECE7FFF7F2FE62
:10180000A0EB0901514502D90320BDE8F08720680B
:10181000696800F00C00B0EB810FEFD1D8F8001030
:10182000404601F00701B14207D90770006800F097
:101830000700B04201D00120E7E72878400705D52E
:101840002068E96820F4E050084320602878000709
:1018500006D52068296920F4604040EAC100206074
:1018600000F058F82168084AC1F30311515CC840E0
:101870000649086006480068FFF7DCFE0020C4E760
:10188000003C02400838024048390008A00000200F
:10189000300000200F2202600C4A136803F003039B
:1018A0004360136803F0F0038360136803F4E053AC
:1018B000C36012684FF4E05303EAD20202610448A5
:1018C000006800F007000860704700000838024018
:1018D000003C02400448054900680968044AC1F315
:1018E0008221515CC8407047A000002008380240A7
:1018F000583900080448054900680968044AC1F3DA
:101900004231515CC8407047A000002008380240B6
:1019100058390008104810B5006810F00C010F4845
:1019200018D0042916D0082914D10B4C241F216883
:1019300001F03F02216821680023C1F38811A1FB57
:101940000001FEF7F1FC2168C1F30141491C490087
:10195000B0FBF1F010BD0000083802400024F40094
:101960002DE9F84F04006ED02078DFF84C93C007C3
:10197000A9F104054AD009F104000168C1F381010D
:10198000012908D00068C0F3810002280AD1D9F8E3
:101990000000400206D52868800337D5606800281B
:1019A000E1D033E06068B0F5803F10D0B0F5A02FF3
:1019B000286810D020F480302860286820F4802027
:1019C00028606068A8B1FFF70DFE06460DE02868A4
:1019D00040F48030F4E740F480202860F7E700BF4F
:1019E000FFF700FE801B642873D828688003F7D5B2
:1019F0000CE0FFF7F7FD064605E000BFFFF7F2FD3C
:101A0000801B6428F0D828688003F7D42078DFF89A
:101A1000AC8280074FF0000A3ED5A748001D016840
:101A200011F00C0F08D00068C0F3810002280BD120
:101A3000D9F80000400207D42868800716D5E0686E
:101A4000012800D112E033E1E068B8B10120C8F804
:101A50000000FFF7C7FD064605E000BFFFF7C2FD27
:101A6000801B0228C0D828688007F7D5286821691C
:101A700020F0F80040EAC10028600DE0C8F800A09E
:101A8000FFF7B0FD064604E0FFF7ACFD801B02281F
:101A90001FD828688007F7D42078000722D5864F02
:101AA00087486169703771B101210160FFF79AFDC4
:101AB000064604E0FFF796FD801B022809D8386827
:101AC0008007F7D50EE0C0F800A0FFF78BFD0646B3
:101AD00005E082E0FFF786FD801B02287DD838688C
:101AE0008007F7D42078400768D5DFF8CCB100270D
:101AF0000BF13C0BDBF80000C0000BD4DBF800104E
:101B000041F08051CBF80010DBF80000012700F015
:101B1000805000906B4E3068C00510D4306840F49F
:101B200080703060FFF75EFD009005E0FFF75AFD22
:101B30000099401A022850D83068C005F6D55E4E8C
:101B4000A0686C3601280FD00528306810D020F02E
:101B500001003060306820F004003060A068B8B147
:101B6000FFF740FD00900FE0306840F00100F4E71F
:101B700040F004003060F7E7FFF734FD0099411AA8
:101B800041F28830814266D830688007F4D50EE093
:101B9000FFF728FD009007E0FFF724FD0099411AA8
:101BA00041F28830814256D830688007F4D42FB192
:101BB000DBF8001021F08051CBF80010A069C8B309
:101BC0003D49091D0968C1F3810102294AD0022853
:101BD000504607D0C8F8600000E03CE0FFF702FD87
:101BE00004463BE04746C8F86000FFF7FBFC0646AA
:101BF00005E000BFFFF7F6FC801B02282BD8286801
:101C00008001F7D4D4E907010843A16A2E4A4908A4
:101C100002EB0141626A41EA8211084394F82C10F8
:101C200040EA0161C9F8001001203866FFF7DAFCCC
:101C3000044606E03EE000BFFFF7D4FC001B02288C
:101C400009D828688001F7D534E000BFFFF7CAFC47
:101C5000001B022802D90320BDE8F88F2868800104
:101C6000F4D427E00128F7D0D9F80000E26900F4A5
:101C7000800191421CD1226A00F03F01914217D1AC
:101C800047F6C071626A0140B1EB821F10D1A26AAF
:101C90004FF0FF3300F4403103EB5202B1EB024F3F
:101CA00006D194F82C1000F07060B0EB016F01D0F9
:101CB0000120D1E70020CFE704380240000047426E
:101CC000800E4742007000400000FFFF70477047E1
:101CD00010B5040003D094F83D0010B107E00120D6
:101CE00010BD002084F83C00204600F01EF80220C1
:101CF00084F83D00211D206800F07AFC012084F862
:101D0000460084F83E0084F83F0084F8400084F8E0
:101D1000410084F8420084F8430084F8440084F8C9
:101D2000450084F83D00002010BD704790F83D103C
:101D3000012901D001207047022180F83D1001687F
:101D4000CA6842F00102CA6000681149884214D092
:101D5000B0F1804F11D00F4988420ED00E49884211
:101D60000BD00E49884208D00D49884205D00D4954
:101D7000884202D00C49884204D1816801F00701F1
:101D8000062903D0016841F001010160002070477D
:101D9000000001400004004000080040000C00402A
:101DA000000401400040014000180040704770B539
:101DB0000446006801694FF00005C943890715D43E
:101DC000C168C943890711D4E91E01610120207748
:101DD000206880698007204602D0FFF7E7FF04E013
:101DE00000F098F8204600F096F825772068016901
:101DF000C943490717D4C168C943490713D46FF0D1
:101E000004010161022020772068806910F4407F7E
:101E1000204602D0FFF7CAFF04E000F07BF820461E
:101E200000F079F8257720680169C943090716D4BD
:101E3000C168C943090712D46FF008010161042089
:101E400020772068C0698007204602D0FFF7AEFFE8
:101E500004E000F05FF8204600F05DF82577206888
:101E60000169C943C90617D4C168C943C90613D457
:101E70006FF010010161082020772068C06910F41C
:101E8000407F204602D0FFF791FF04E000F042F8C7
:101E9000204600F040F8257720680169C943C9074A
:101EA00008D1C168C943C90704D1891E0161204610
:101EB00000F032F820680169C943090609D4C168F5
:101EC000C943090605D46FF0800101612046FFF780
:101ED000FDFE20680169C943490609D4C168C943A8
:101EE000490605D46FF040010161204600F01EF85C
:101EF00020680169C94389060BD4C168C9438906B2
:101F000007D46FF0200101612046BDE87040FFF763
:101F1000DEBE70BD7047704700680349884201D13A
:101F2000FFF766BB70470000000001407047704734
:101F300070470000F8B5016804460868CA684B6934
:101F400010F00F0F4FF0000559D003F0010602F416
:101F50009077374365D0C10705D0D10503D5216CF3
:101F600041F001012164410705D5D90703D0216C57
:101F700041F002012164810705D5D90703D0216C06
:101F800041F004012164010707D502F0200131432B
:101F900003D0216C41F008012164216C00293AD062
:101FA000800604D5900602D5204600F0B4FB2068D8
:101FB0004069216CC0F38010090700D460B320464B
:101FC00000F082FB20684069400621D5206814306B
:101FD00050E8001F21F0400140E80012002AF5D12E
:101FE000A06BA8B16C490165A06BFFF7B1F80028A0
:101FF00011D0A06B016D01B0BDE8F0400847830629
:102000000FD593060DD52046BDE8F84000F083BB00
:102010002046FFF78DFFF8BD2046FFF789FF2564B6
:10202000F8BD266B2023012E79D1C60677D5D606BA
:1020300075D50868486800904869400640D5A16B8E
:10204000086840680004000CEAD0A28D8242E7D9FB
:10205000E085C869B0F5807F2DD020680C3050E84D
:10206000001F21F4807140E80012002AF5D1206899
:10207000143050E8001F21F0010140E80012002A4E
:10208000F5D12068143050E8001F21F0400140E8ED
:102090000012002AF5D184F83E30256320680C3008
:1020A00050E8001F21F0100140E80012002AF5D18D
:1020B000A06BFFF704F8A08DE18D401A81B229E0F2
:1020C000A08DE18D401A81B2E08D0028A8D00029B2
:1020D000A6D020680C3050E8002F22F4907240E81F
:1020E0000026002EF5D12068143050E8002F22F091
:1020F000010240E80026002EF5D184F83E30256329
:1021000020680C3050E8002F22F0100240E8002335
:10211000002BF5D12046FFF70AFFF8BDFFE70506C3
:102120002BD5150629D594F83D002128F5D1A068B6
:10213000B0F5805F01D12069B0B1206A411C2162F5
:10214000216800784860E08C401E0004000CE084A8
:10215000E3D12068C16821F08001C1602068C168B6
:1021600041F04001C160D8E7206A0088C0F3080050
:102170004860206A801C2062E5E74006CDD5500605
:10218000CBD5CA68204622F04002CA6084F83D30B0
:1021900000F0ADF8C1E70000B926000870B50400F2
:1021A00004D094F83D00002510B106E0012070BD78
:1021B00084F83C50204600F023F8242084F83D00A9
:1021C0002068C16821F40051C160204600F004FB82
:1021D0002068016921F4904101612068416921F082
:1021E0002A0141612068C16841F40051C160256441
:1021F000202084F83D0084F83E00002070BD0000DF
:102200002DE9F04387B0064614216846FEF735F9FC
:102210003149306888425BD130480024016841F080
:1022200010010160006800F0100005902B48143880
:10223000016841F0010101600068694600F0010099
:1022400005904FF4C06000900220CDE90104032006
:102250000390072004902248FFF7C6F8224D21483A
:102260004FF000672860C5E901744FF48068C5E944
:1022700003486C614FF48039AC61C5E907492846D1
:102280006C62FFF747F808B1FEF761FAB563AE6319
:10229000154D144860357830E5E802074020A5E880
:1022A0001101114845F814496030AC61C5E907498E
:1022B0006C62FFF72FF808B1FEF749FA7563002248
:1022C00005212520AE63FFF719FA2520FFF708FA4C
:1022D00007B0BDE8F0830000001001404438024020
:1022E00000000240406402408C03002070477047A9
:1022F000FEE70000104810B50E490160032141605F
:1023000000214FF400228160C0E903124FF4401213
:1023100042610176417681760122C276017741776A
:10232000FEF71DFD002803D0BDE81040FEF70FBAF0
:1023300010BD000000640040F8020020104810B5F5
:102340000E4901600321416000214FF400228160A9
:10235000C0E903124FF44012426101764176817662
:102360000122C27601774177FEF7F9FC002803D0FD
:10237000BDE81040FEF7EBB910BD0000006800405A
:10238000200300200D4808B5016841F48001016078
:102390000068002200F48000009005213A20FFF739
:1023A000ADF93A20FFF79CF9002205214620FFF7FE
:1023B000A5F9BDE808404620FFF792B93038024041
:1023C00010B58EB01C220B496846FEF724F8002198
:1023D000684600F015FC084C06491C2220601C31A0
:1023E00007A8FEF718F8002107A800F009FC6060B4
:1023F0000EB010BDF43800080000002070B586B0A3
:1024000014216846FEF739F816480024016841F0A7
:1024100080010160016801F080010591016841F0CF
:1024200002010160016801F002010591016841F0BB
:102430000101016000680C4E00F001004FF40045FE
:102440000590002229463046FFF7C6F80120009586
:10245000CDE90104694630460394FEF7C5FF06B096
:1024600070BD000030380240000002400C4810B53A
:102470000A4901604FF4E1314160002181600C2282
:10248000C160C0E904128161C161FFF787FE0028C5
:1024900003D0BDE81040FEF75AB910BD001001404E
:1024A00048030020FEE7FEE770B50D462DED088BD2
:1024B000B0EE438AF0EE628AB0EE429AF0EE619A94
:1024C000B0EE41AAF0EE60AAB0EE40BA0446742124
:1024D000FDF7D3FF0C48E0660C482067B0EE483AA1
:1024E000F0EE682AB0EE492AF0EE691AB0EE4A1A08
:1024F000F0EE6A0AB0EE4B0ABDEC088B2946204686
:10250000BDE8704000F0B0BC692E0008852E0008C0
:1025100010B5502080F31188BFF34F8FBFF36F8F3A
:1025200001F01AF918B104494FF0805008600020FA
:1025300080F3118810BD000004ED00E030B593B0C9
:1025400030216846FDF799FF14210CA8FDF795FF8F
:102550001E480024016841F080510160006800F0CD
:10256000805011901A48016841F480410160006870
:10257000102100F4804011900A2000900120CDE944
:1025800003010225CDE905050820CDE90740A82073
:10259000CDE9090504200B906846FFF7E1F908B181
:1025A00072B6FEE70F20CDE90C054FF4A050CDE93F
:1025B0000E404FF48050109005210CA8FFF7D0F882
:1025C000002801D072B6FEE713B030BD403802409B
:1025D000007000400248016841F4700101607047DA
:1025E00088ED00E00148FFF7E2BB00004C0400204A
:1025F000F0B50268254C264D264E274F274B4FF04D
:10260000804CA04209D0604507D0A84205D0B04216
:1026100003D0B84201D0984204D122F0700E4A682B
:1026200042EA0E02A0421BD0604519D0A84217D042
:10263000B04215D0B84213D0984211D0184DA842DC
:102640000ED0184DA8420BD0174DA84208D0174DF8
:10265000A84205D0164DA84202D0164DA84203D17B
:1026600022F44075CA682A434D6922F080022A4349
:1026700002608A68C2620A688262A04201D09842FF
:1026800001D10969016301214161F0BD00000140F0
:102690000004004000080040000C0040000401401D
:1026A0000040014000440140004801400018004043
:1026B000001C00400020004010B5806B0021C18547
:1026C000C184FFF735FC10BD01680C3151E8002FC3
:1026D00022F4907241E80023002BF5D101681431F7
:1026E00051E8002F22F0010241E80023002BF5D130
:1026F000016B012909D101680C3151E8002F22F04A
:10270000100241E80023002BF5D1202180F83E1073
:1027100000210163704708B590F83E10222901D0CE
:10272000022008BD82684FF480539A4201D10169AA
:1027300021B1816A9A421BD04AB10AE00268816ADB
:102740005268C2F308020A80816A891C08E00269A3
:1027500072B10268526802F07F020A70816A491CF5
:102760008162C18D491E0904090CC18503D019E09D
:1027700002685268F1E70168CA6822F02002CA6064
:102780000168CA6822F48072CA6001684A6922F04E
:1027900001024A61202180F83E10016B012903D01B
:1027A000FFF7A4FD002008BD0021016301680C3182
:1027B00051E8002F22F0100241E80023002BF5D150
:1027C00001680A68D20602D50A6849680091818DBD
:1027D000FFF7ADFBE6E7000070B50446006801694D
:1027E000E26821F44051114301612169A068E26966
:1027F00008436169114308432168CA6849F20C63C0
:102800009A430243CA6020684169A26921F4407179
:102810001143416131492068884202D030498842E1
:1028200002D1FFF767F801E0FFF754F8E2690023EF
:10283000192164253226B2F5004F626828D0A0FB2A
:102840000101930F9200FDF76FFD0146B0FBF5F01B
:102850006FF01802504301EB800006EB0010B0FB54
:10286000F5F000F0F002B1FBF5F002EB0012B1FB65
:10287000F5F06FF01803584301EB800006EB0010F1
:10288000B0FBF5F000F00F0021681044886070BDC7
:10289000A0FB010192185B41FDF746FD0146B0FB2C
:1028A000F5F00201B1FBF5F06FF01803584301EBAE
:1028B000800006EBC000B0FBF5F000F0F80002EB82
:1028C0004002B1FBF5F0584301EB800006EBC0007D
:1028D000B0FBF5F000F00700D6E700000010014063
:1028E000001401400148FFF725BB00004803002009
:1028F000FEE70000A0F50072013A01D0012A0AD1DA
:10290000054A401EC0B29070044A00EB400002EB42
:10291000C00000F001B9704720000020B80400207A
:10292000B0F5007F02D10846FDF77EBF704709076A
:10293000090E002804DB00F1E02080F80014704745
:1029400000F00F0000F1E02080F8141D704730EE19
:10295000201AD0ED001AF4EEC11AF1EE10FA02DCE2
:10296000B0EE611A01E080ED001A30EEC00AB4EE5C
:10297000C01AF1EE10FA01D280ED000A7047000093
:1029800030B589B000250C9C029004950820CDE953
:102990000550080A8DF800008DF80110100A8DF816
:1029A0000200180A8DF804008DF80530200A8DF811
:1029B00006008DF807408DF80320144C08E02088AD
:1029C000401C80B22080022802D9258009B030BD89
:1029D0000F48FEF7B0F80028F1D00D480068816874
:1029E000490101D5012008E08168090101D50220D3
:1029F00003E08068C00001D504206060034B6A4694
:102A00001B1D02A90248FDF737FFDFE70C0000207D
:102A1000F802002000B50B4885B000F108010EC98E
:102A20008DE80E00D0E90010CDE90310064A694692
:102A3000064800F033F8064A03A9064800F02EF8CD
:102A400005B000BD2C390008F5280008F802002068
:102A5000212900082003002038B50E480E49002324
:102A600090ED060AB1F90220B1F90010B5EEC00AE6
:102A70004FF40070F1EE10FA07D1B5EEC00AF1EE96
:102A800010FA02D1044CA41F647800930023FFF7CE
:102A900077FF38BDE804002026000020F0B5154679
:102AA0008BB00A4601210691002107910E21099160
:102AB000164E0168164F0446B14203D16946FDF730
:102AC00049FD04E0B94202D16946FDF79BFD20466D
:102AD000FEF7C2FA20680F49B04209D1CD60022149
:102AE0002046FDF7B7FE2068416941F002010AE087
:102AF000B84209D10D6110212046FDF7ABFE2068D8
:102B0000416941F0100141610BB0F0BD006400402B
:102B1000006800400C0000204A8852BA82808A88EF
:102B200052BAC2800388438009884ABA0280D31A05
:102B30008168B3F5805F01DD491E03E013F5805F16
:102B400001DA491C816002EB4131028A891AC160B5
:102B50007047FEF755FDFFF7F1FCFFF74FFCFFF75D
:102B600011FCFFF7C7FBFFF7E9FBFFF77FFCFFF75F
:102B700051FFFDF727FEFFF723FC00F03CF8FEE7CE
:102B800001460020842900D0C81C7047144810B5A5
:102B900090ED060A00210122B5EEC00A1148F1EEBF
:102BA00010FA18D1B5EEC00AF1EE10FA13D103797C
:102BB000012B10D003784478A34202D00221417047
:102BC0000BE0C3785B1CDBB2C370322B05D90271FA
:102BD0004170C17001E0427001714179017010BD16
:102BE000E80400202000002010B500B9012000F00A
:102BF0004FFC002010BD10B500F070FC002010BD8F
:102C00007FB50D4604464169B0F9080081B1A1695C
:102C100071B1FFF7B5FFD4E905128DE80700D4E9DB
:102C200000102B46226900F06CFD039004B070BDCB
:102C3000FFF7A6FF03A9CDE90001208A2B4682B247
:102C4000D4E9001000F030FD012801D00020EDE7AC
:102C50000398EBE710B530EEC01A2DED028B044659
:102C600080ED080AC0ED050A80ED0B1AD0ED151AAB
:102C700030EEC00A90F86000F5EEC01AB1EE400ADE
:102C8000F1EE10FA15D0B5EEC01AF1EE10FA02DD31
:102C9000F0EE410A01E0F0EE400AF4EEE10AF1EE56
:102CA00010FA06DD002877D094ED130ABDEC028BF4
:102CB00010BD9FED6C8A04F1380110B1012870D06D
:102CC000B2E0D4ED000A60EE810AC4ED0D0AD4ED45
:102CD0000A0A71EE600AC4ED0C0AD4ED021A61EE24
:102CE000A00AC4ED0F0AD4ED161AF5EEC01AF1EEE3
:102CF00010FA0ED0B5EEC01AF1EE10FA02DDB0EE09
:102D0000412A01E0B0EE402AB4EEE12AF1EE10FAD9
:102D100004DAF5EEC01AF1EE10FA1DD1D4ED171A4F
:102D2000F5EEC01AF1EE10FA09D0B5EEC01AF1EEC8
:102D300010FA33DCB4EEE10AF1EE10FA04D9F5EE44
:102D4000C01AF1EE10FA07D194ED0E0AD4ED010A83
:102D500000EE810A84ED0E0A94ED1A0AF0EE480A9C
:102D60000846FFF7F4FD94ED0D0AD4ED0E0A04F1C8
:102D7000400030EE200AD4ED0F0A30EE200AF0EECB
:102D8000480A84ED100A94ED190AFFF7E0FD94ED6E
:102D9000100A84ED110A47E061E002E0B0EE410A5A
:102DA000C8E794ED0A0AD4ED001A084671EE400A0D
:102DB00060EEA10AC4ED0D0AD4ED010A60EE810AAD
:102DC000C4ED0E0AF0EE000A00EE601A94ED090A56
:102DD000D4ED020A31EE000A20EE200AF0EE480A95
:102DE00084ED0F0A94ED1A0AFFF7B1FD94ED0D0A78
:102DF000D4ED0E0A04F14C0030EE200AD4ED0F0A97
:102E000030EE200A84ED120AD4ED140A30EE800A66
:102E1000F0EE480A84ED130A94ED190AFFF797FDC6
:102E200094ED130A84ED140A94ED0A0A84ED090A5C
:102E300094ED0B0A84ED0A0A94ED070A84ED060A64
:102E400094ED080A84ED070A94ED040A84ED030A60
:102E500094ED050A84ED040A94F8600022E794EDED
:102E6000100A23E700000000C0ED1A0A80ED190ADD
:102E700080ED161AC0ED171A80F8601080EC032A56
:102E80007047000080EC030A9FED020A80ED0E0AF5
:102E900070470000000000002DE9F041184C0F467B
:102EA0000546E6682068001D00F02AFA38B9206857
:102EB00090F82C1001208840216981432161681C11
:102EC00007D137B12168BDE8F0410E48091D00F077
:102ED0005BBA20683544B5424560216805D2A06BD5
:102EE000BDE8F041091D00F037BA606B091D00F024
:102EF00033FAA06A854200D2A562BDE8F0810000E5
:102F000038000020E80600202DE9F041054600F0D9
:102F100047FA2E4CA068401CA06020682C4F10B1CE
:102F2000606940B32DE02560A068012829D1002602
:102F300006EB860007EB800000F000FA761C072EF7
:102F4000F6D323488C3000F0F9F92148A03000F086
:102F5000F5F91F48B43000F0F1F91D48C83000F011
:102F6000EDF91B48DC3000F0E9F919488C3060635A
:102F70001430A06305E02068E96AC06A884200D87E
:102F80002560606A401C6062E96A0120226988400D
:102F90001043206101EB810007EB8000291D00F048
:102FA000F3F900F01DFA606900280CD02068E96A86
:102FB000C06A884207D207494FF080500860BFF3CB
:102FC0004F8FBFF36F8FBDE8F08100003800002005
:102FD0000C06002004ED00E010B5044690F8510006
:102FE00058B101280CD002280FD0502080F311884E
:102FF000BFF34F8FBFF36F8FFEE7206B00F004FA33
:103000002046BDE8104000F0FFB910BD10484FF455
:103010007051420706D0C01D0D4920F00700411A2B
:10302000C1F570510B4A00230144C2E9000308397D
:10303000183A21F0070111604B600B600B1AC0E9D0
:10304000001393604FF000405360506170470000E0
:10305000FC0600208C000020144E154CA6F1C80779
:103060004FF08058DFF84C9012E000BF00F098F964
:10307000F068C568281D00F043F9A068401EA060F4
:103080006068401E606000F0ABF92846FFF7A4FFBF
:1030900060680028EAD138680128F9D9C9F80080A9
:1030A000BFF34F8FBFF36F8FF2E70000D40600200D
:1030B0003800002004ED00E02DE9F0479A46DDE9F4
:1030C000098481466FF00303206B03EB82021044F6
:1030D000089E20F00707780707D0502080F311885A
:1030E000BFF34F8FBFF36F8FFEE7002561B1002064
:1030F00023180A5C83F834200A5C12B1401C1028A3
:10310000F6D384F8435001E084F83450072E00D3FE
:103110000626E662C4E91165201D00F01AF904F1E3
:10312000180000F016F92461C6F107006462A0617E
:10313000E56484F8505052464946384600F0C0F8DD
:103140002060B8F1000F01D0C8F80040BDE8F0875A
:1031500030B5114900E011460A688242FBD34B6842
:103160005C18844203D140681844486008464368AC
:103170001C18944209D1084C183C2468A24209D07A
:1031800052681A4442600A6812680260814200D0A4
:10319000086030BD0460F9E78C0000200648416BF0
:1031A000096829B1416BC968C9684968816270477B
:1031B0004FF0FF31FAE7000038000020084840686F
:1031C000401C4FF0500080F3118804D0BFF34F8FA4
:1031D000BFF36F8FFEE7BFF34F8FBFF36F8FFEE735
:1031E000940000202DE9F0410546002700F0ACF9DD
:1031F000324E306808B9FFF709FF706905424ED1B9
:10320000C5B3083568070ED005F00700C0F1080007
:103210000544680707D0502080F31188BFF34F8F13
:10322000BFF36F8FFEE72DB37068854237D8234810
:10323000183001460C6801E020460C466168A9423E
:1032400002D221680029F7D131688C4227D0076863
:103250002168016060680837411B10290FD9601987
:10326000420708D0502080F31188BFF34F8FBFF37F
:103270006F8FFEE713E041606560FFF769FF6168EB
:103280007068401A7060B268904200D2B060706995
:1032900001430020C4E90001F068401CF06000F028
:1032A000C1FA780707D0502080F31188BFF34F8F01
:1032B000BFF36F8FFEE73846BDE8F0817400002051
:1032C00010B5031F4FF080741C601B1F21F001011B
:1032D0001960191F044B0B6014390A60091F6FF045
:1032E000020244380A6010BDBD31000800F058F8F1
:1032F000FDF730FA00F074F80220FFF775FCF5E7EF
:10330000D0E9013201699A60D0E901235A604A6824
:10331000824201D182684A60002202610868401E30
:103320000860086870470000034B036003F1540015
:103330000860802010607047A400002000F10801A0
:103340004FF0FF32C0E90112C1600161002101604C
:10335000704700210161704730B50B685A1C02D0DC
:1033600000F1080202E0026904E022465468256880
:103370009D42FAD953684B6099608A605160086138
:103380000168491C016030BD42684A6093688B60E7
:1033900093685960916008610168491C0160704739
:1033A000502080F31188BFF34F8FBFF36F8F0A490E
:1033B0004868401C486001280CD10848006810F09B
:1033C000FF0F07D0502080F31188BFF34F8FBFF35A
:1033D0006F8FFEE7704700009400002004ED00E0CE
:1033E0000849486828B1401E486001D180F311881F
:1033F0007047502080F31188BFF34F8FBFF36F8F5A
:10340000FEE700009400002070B500282AD0164D79
:10341000A0F1080460686969084207D1502080F370
:103420001188BFF34F8FBFF36F8FFEE722683AB169
:10343000502080F31188BFF34F8FBFF36F8FFEE7EB
:103440008843606000F080F86068696808446860DC
:103450002046FFF77DFE2869401C2861BDE87040CA
:1034600000F0E0B970BD0000740000204FF0E020D3
:1034700000210161816105494FF47A720968B1FB4D
:10348000F2F1491E4161072101617047A00000204F
:1034900010B5020014D00F48006B38B1502080F3F3
:1034A0001188BFF34F8FBFF36F8FFEE700F04CF82A
:1034B00000211046FFF7F0FC00F0B4F9002807D116
:1034C00005494FF080500860BFF34F8FBFF36F8FF7
:1034D00010BD00003800002004ED00E010B586B0FB
:1034E0000024039405AA04A903A80494FFF71CFF71
:1034F000DDE903010094CDE9011000230EA110487D
:10350000059A00F0FEF80F490028C86211D050203B
:1035100080F31188BFF34F8FBFF36F8F4FF0FF30F1
:10352000886201204861CC6006B0BDE8104000F020
:1035300041B806B010BD000049444C4500000000F1
:1035400059300008380000200248016B491C016313
:1035500070470000380000201448016B11B10121B0
:10356000C16170470021C1610169B1FA81F1C1F106
:103570001F0101EB81020E4951F822306BB101EBC2
:10358000820101F108034A6852684A609A4201D1F7
:1035900052684A60D16801607047502080F31188FA
:1035A000BFF34F8FBFF36F8FFEE70000380000209E
:1035B0000C0600201CB537480168374A914207D1F4
:1035C000502080F31188BFF34F8FBFF36F8FFEE75A
:1035D00000683149491E884207D1502080F3118884
:1035E000BFF34F8FBFF36F8FFEE72C490878019030
:1035F000FF20087008788DF800009DF800009DF805
:10360000002000F0F000904207D0502080F3118895
:10361000BFF34F8FBFF36F8FFEE79DF80000204C84
:1036200000F0500020700720A06005E09DF8002009
:1036300052008DF80020401E9DF800201206F5D49F
:10364000A060032807D0502080F31188BFF34F8F6C
:10365000BFF36F8FFEE74FF44070A06001980870D1
:103660000C482030016841F470010160016841F0AC
:1036700070410160FFF7FAFE00206060FCF7F8FD82
:103680000848016841F040410160FCF7DDFD002081
:103690001CBD000000ED00E071C20F4100E400E03D
:1036A0009400002034EF00E02DE9FF5F8346DDE960
:1036B0000E87994616468A469000FFF793FD05004F
:1036C0001CD05420FFF78EFD040014D00020256389
:1036D00084F85100CDE90240CDE900874B463246DF
:1036E00051465846FFF7E8FC2046FFF70DFC012045
:1036F00004B0BDE8F09F2846FFF786FE4FF0FF308C
:10370000F6E7F0B585B0DDE90B640A9DA6B1DCB142
:10371000542700972663022684F85160002604AFE0
:10372000CDE90246CDE90057FFF7C6FC2046FFF77A
:10373000EBFB049805B0F0BD502080F31188BFF377
:103740004F8FBFF36F8FFEE7502080F31188BFF3D8
:103750004F8FBFF36F8FFEE72DE9F0412F4C00260E
:10376000206B28B1A069401CA0613046BDE8F08103
:10377000E5686D1CE56013D1606B006838B15020BE
:1037800080F31188BFF34F8FBFF36F8FFEE7606B3D
:10379000A16B6163A063206A401C2062FFF7FEFCFE
:1037A000A06ADFF87C80854209D3606B0068A0B115
:1037B000606BC068C7687868854211D2A0622068D3
:1037C000C06A00EB800158F82100012800D90126C9
:1037D000E0690028C9D00126C7E74FF0FF30EDE7C8
:1037E000381DFFF78DFDB86A18B107F11800FFF713
:1037F00087FDF96A0120226988401043206101EBAE
:10380000810108EB8100391DFFF7BEFDF86A2168D0
:10381000C96A8842C9D30126C7E7000038000020E2
:103820000C0600202DE9F0472C4D00242746286B7C
:1038300038B1FFF7B5FD286B401E2863286B40B1F7
:1038400046E0502080F31188BFF34F8FBFF36F8F96
:10385000FEE7A968224E0120D1B3A6F1B409804643
:103860003068E8B1F068C46804F11800FFF748FD5B
:10387000201DFFF745FDE06A2A6908FA00F11143AF
:10388000296100EB800109EB8100211DFFF77CFD20
:10389000E06A2968C96A8842E2D3C5F81C80DFE77C
:1038A0000CB1FFF77BFCAC6944B14646FFF754FF0F
:1038B00000B1EE61641EF9D10020A861E86938B159
:1038C0000849012738070860BFF34F8FBFF36F8F98
:1038D000FFF786FD3846BDE8F0870000380000207D
:1038E000C006002004ED00E04FF00000E1EE100AF9
:1038F0007047000060390008ED3200080100000048
:103900000000000080000000000000000000000037
:1039100068390008A106000802000000000000004D
:103920008000000000000000000000000002000015
:10393000FF0F00000102000002020000FF0F000064
:10394000000610160006101600000000000000001F
:103950000102030406070809000000000102030435
:1039600063616C630000000063616E5F636F6D6D87
:103970006F6E00009439000800000020A4000000D1
:10398000C4010008383A0008A4000020BC48000028
:10399000E00100080000000000000000000000003E
:1039A0000000000000000000000000000000000017
:1039B0000000000000000000000000000000000007
:1039C00001000000100000000000000000000000E6
:1039D00000000000000000000000000000000000E7
:1039E00000000000000000000000000000000000D7
:1039F00000000000000000000000000000000000C7
:103A000000000000000000000000000000000000B6
:103A100000000000000000000000000000000000A6
:103A2000000000000000000000000000AAAAAAAAEE
:083A3000000000000024F40076
:040000050800018965
:00000001FF
