:020000040800F2
:10000000D8A600205D02000845540008C14B000836
:10001000AD530008A109000879880008000000001D
:100020000000000000000000000000009D0100082A
:10003000B914000800000000F9010008115B000875
:1000400077020008770200087702000877020008AC
:10005000770200087702000877020008770200089C
:100060007702000877020008770200083D130008B5
:100070004D130008770200085D130008770200089E
:100080006D1300087D13000877020008890A000834
:10009000590A0008690A0008790A0008770200086E
:1000A00077020008555C0008770200087702000814
:1000B00077020008655C00087702000877020008F4
:1000C000770200087702000877020008770200082C
:1000D00077020008756400088564000899640008C8
:1000E000770200087702000877020008770200080C
:1000F0007702000877020008770200088D130008D5
:100100007702000877020008755C00087702000893
:1001100077020008016100087702000877020008F2
:1001200077020008770200089D1300087702000894
:100130007702000877020008770200087D0B0008AC
:100140004D0B00085D0B00086D0B000849540008BA
:10015000770200087702000877020008770200089B
:10016000770200087702000877020008770200088B
:1001700077020008770200087702000800000000FC
:100180007702000877020008DFF80CD000F0ACFB23
:1001900000480047CFAC0008D8A600202C4B1968B7
:1001A0000868B0E8F04F80F30988BFF36F8F4FF015
:1001B000000080F3118870470000000008480068C4
:1001C000006880F308884FF0000080F3148862B65E
:1001D00061B6BFF34F8FBFF36F8F00DF00BF00BF6B
:1001E00008ED00E0DFF80C00016841F470010160E7
:1001F000704700BF88ED00E0EFF30980BFF36F8F19
:10020000134B1A681EF0100F08BF20ED108A20E96A
:10021000F04F106009B44FF0500080F31188BFF325
:100220004F8FBFF36F8F0CF09FFC4FF0000080F3F7
:10023000118809BC19680868B0E8F04F1EF0100F6B
:1002400008BFB0EC108A80F30988BFF36F8F704746
:1002500068030020EFF305807047000006488047E0
:1002600006480047FEE7FEE7FEE7FEE7FEE7FEE79B
:10027000FEE7FEE7FEE7FEE7F15B00088901000804
:100280002DE9F05F0546002092469B4688460646CB
:10029000814640241BE0284641464746224600F05E
:1002A0005CFA53465A46C01A914110D3114618467B
:1002B000224600F043FA2D1A67EB01084F4622460A
:1002C0000120002100F03AFA17EB00094E41201EF0
:1002D000A4F10104DFDC484631462A464346BDE826
:1002E000F09F40EA01039B0703D009E008C9121FF1
:1002F00008C0042AFAD203E011F8013B00F8013BE0
:10030000521EF9D27047D2B201E000F8012B491E0B
:10031000FBD270470022F6E710B513460A460446A2
:100320001946FFF7F0FF204610BD10B548430446BC
:100330000AF0F4FC002805D00021002C02D0641E35
:100340000155FAE710BD2DE9FE4F804681EA030012
:10035000C00F0C46009021F0004123F00045B8EB9F
:100360000200A94105D24046214690461C460B4654
:10037000024623F00040104347D0270DC7F30A0080
:10038000C3F30A510290401A019040286BDAC3F37C
:10039000130040F4801B0098924620B10023D2EB5A
:1003A000030A63EB0B0B01985946C0F1400250461B
:1003B00000F0C4F906460D4650465946019A00F031
:1003C000DCF910EB08006141002487EA115284EA4D
:1003D000E7731A4340D0009A62B3019A012A4FEAA8
:1003E000075215DC001B61EB02014FF0004202EAEC
:1003F0000752CDE90042001C41F5801132462B46E0
:1004000000F013FA03B0BDE8F08F40462146F9E74B
:10041000001B61EB0201001C41F5801300185B41D9
:100420002018A2F5001747EB030140EAD570B61972
:100430006D4111E06D084FEA360645EAC0754FEA96
:100440000752001B61EB0201001C41F580114908B5
:100450004FEA30000019514132462B4603B0BDE847
:10046000F04F00F0D3B90098012240000023D0EBF8
:10047000020263EBE073009821464FEAE074B8EBA8
:10048000000061EB0401E9E783F000435BE781F0E2
:10049000004158E72DE9FE4F81EA030404F00044CF
:1004A00021F0004100944FF0000B23F0004350EA8C
:1004B00001045ED052EA03045BD0C3F30A54C1F3D3
:1004C0000A552C44A4F2F3340194A0FB0254C1F366
:1004D000130141F48011C3F3130343F4801301FBB0
:1004E000024400FB034E840A970A44EA815447EA17
:1004F0008357A4FB076802958D0A05FB07854FEA21
:10050000932C04FB0C542705029D4FEA065847EA3A
:100510001637B5EB08056EEB070C870E920E47EA0F
:10052000811742EA8312A7FB0201B6EB0B0164EBD1
:1005300000042B0D43EA0C335E1844EB1C50DA46E2
:100540005146E7FB0201C5F313044FEA0B3343EABC
:1005500014534FEA0432019C43EA0603A4F10C044D
:100560000294009CCDE900B400F05FF903B0BDE84F
:10057000F08F00200146F9E72DE9F04D81EA0304F0
:1005800004F0004B21F0004514464FF0000A23F020
:10059000004150EA050220D054EA01021DD0C5F303
:1005A0000A570246C5F31303C1F31300C1F30A56F9
:1005B00040F4801543F48013A7EB0608101BD646C1
:1005C00008F2FD3873EB050002D308F1010801E0E1
:1005D00092185B41B8F1000F03DA00200146BDE834
:1005E000F08D00204FF48011064684460EE0171B64
:1005F00073EB050705D3121B63EB050306434CEAB7
:10060000010C49084FEA300092185B4150EA01079B
:10061000EDD152EA030012D082EA040083EA050118
:10062000084305D0101BAB4106D20122002306E08F
:1006300000224FF0004302E06FF0010253101AEB6A
:1006400006004CEB085110EB0A0041EB0B01BDE832
:10065000F04D00F0DBB8F0B4CA17CB0F504051405A
:10066000C61841F100054FEAC372314628004FF029
:10067000960303D0B623F0BC00F09AB830460021B0
:10068000F9E70EB540F2334102910021CDE90011A6
:100690000A460B4600F0C9F803B000BD10B500F0E3
:1006A000004420F00040C20DC0F3160040F40000EA
:1006B0007F2A02DA0020014610BD0021962A03DCC1
:1006C000C2F19602D04002E0963A00F037F8002CD2
:1006D000F2D00023D0EB030063EB010110BD00F06A
:1006E000004230F000400AD0C10D01F56071C0F346
:1006F000160042EA0151C20840071143704700202A
:100700000146704701F0004330B421F0004150EA47
:10071000010206D00A0DA2F56072C1F31301002A8E
:1007200002DC30BC00207047440F44EAC104C10021
:10073000E01830BC00EBC25000F031B8202A04DBD6
:10074000203A00FA02F1002070479140C2F12003E4
:1007500020FA03F3194390407047202A04DB203A23
:1007600021FA02F00021704721FA02F3D040C2F1D1
:1007700020029140084319467047202A06DBCB1718
:10078000203A41FA02F043EAE07306E041FA02F34C
:10079000D040C2F120029140084319467047002919
:1007A000A8BF7047401C490008BF20F001007047F7
:1007B00010B4B0FA80FC00FA0CF050EA010404BF57
:1007C00010BC704749B1CCF1200421FA04F411FAAD
:1007D0000CF118BF012121430843A3EB0C01CB1DF1
:1007E0004FEA00614FEA102042BF002010BC704762
:1007F00000EBC35010440029A4BF10BC7047401C3C
:10080000490008BF20F0010010BC704710B5141E4D
:1008100073F1000408DA401C41F1000192185B41B9
:100820001A4301D120F0010010BD2DE9F04D924690
:100830009B4611B1B1FA81F202E0B0FA80F22032A7
:100840009046FFF77BFF04460F4640EA0A0041EA64
:100850000B0153465A46084313D0114653EA010090
:1008600019D0C8F140025046FFF777FF05460E4603
:10087000504659464246FFF761FF084305D0012024
:1008800004E020463946BDE8F08D0020054346EAE5
:10089000E0762C4337430A986305E40AA0EB08008E
:1008A0000022FD0A44EA47540A3002D500200146DE
:1008B000E9E7010510196941DDE9084500196941B9
:1008C000BDE8F04DA2E70EB5C10F80EAE070084424
:1008D000CA07002140F233438DE80E000A460B465A
:1008E000FFF7A3FF03B000BD064C074D06E0E0682C
:1008F00040F0010394E8070098471034AC42F6D367
:10090000FFF746FCB0EE0008D0EE000870B5C1F36A
:100910000A5201F000450024C1F3130140F2FF33F5
:1009200041F480119A4201DA002070BD40F2334355
:100930009A42A2F2334203DC5242FFF70EFF00E07C
:1009400090402C43F1D0404270BD70B58C1810F827
:10095000015B15F0070301D110F8013B2A1106D104
:1009600010F8012B03E010F8016B01F8016B5B1E1E
:10097000F9D12B0705D40023521E0DD401F8013BF9
:10098000FAE710F8013BCB1A921C03E013F8015B65
:1009900001F8015B521EF9D5A142D8D3002070BDE9
:1009A00000BFFEE770B506460C4615462846E91717
:1009B00005EB9171891061610020206101202062A6
:1009C0002146304601F092F870BD2DE9F04107460E
:1009D0000E461546002436E02046E11704EB9171DF
:1009E0008910A4EB810131B1012909D002290CD071
:1009F000032919D10EE055F824004001306013E0BE
:100A000055F82400400170600EE055F824004001C4
:100A1000B06009E055F824004001F06022463146FC
:100A20003846FFF7BFFF00BF00BF601C55F820002D
:100A300040F6FF71884204D1224631463846FFF71E
:100A4000B1FF601CC4B255F8240040F6FF71884223
:100A5000C2D1BDE8F081000010B5024801F0AAF94A
:100A600010BD0000480B002010B5024801F0A2F9AB
:100A700010BD0000480B002010B5024801F09AF9A3
:100A800010BD0000480B002010B5024801F092F99B
:100A900010BD0000480B002070B506460C461546F8
:100AA0002846E91705EB917189100E31616101202B
:100AB000206120622146304601F018F870BD2DE912
:100AC000F04107460E461546002436E02046E11761
:100AD00004EB91718910A4EB810131B1012909D096
:100AE00002290CD0032919D10EE055F82400400149
:100AF000306013E055F82400400170600EE055F8B6
:100B000024004001B06009E055F824004001F06085
:100B1000224631463846FFF7BFFF00BF00BF601CCA
:100B200055F8200040F6FF71884204D12246314634
:100B30003846FFF7B1FF601CC4B255F8240040F6F8
:100B4000FF718842C2D1BDE8F081000010B50248B3
:100B500001F030F910BD0000700B002010B5024804
:100B600001F028F910BD0000700B002010B50248FC
:100B700001F020F910BD0000700B002010B50248F4
:100B800001F018F910BD0000700B002030B58BB0DB
:100B900004460D4601200790002008900E200A9080
:100BA0000A492068884205D12A4601A92046FFF754
:100BB0000CFF08E006492068884204D12A4601A9B2
:100BC0002046FFF77CFF0BB030BD00000064004002
:100BD000006800400346042B15D007DC7BB1012BD5
:100BE0000ED0022B0DD0032B12D10BE0202B0BD0FB
:100BF000212B0AD0222B09D0232B09D107E008E0B2
:100C000007E006E005E004E003E002E001E000E0C8
:100C100000BF00BF002070470020704710B50022C1
:100C20000449054805F0B4FE0449034805F0A2FE56
:100C3000002010BDE0230020D80F0020E01B002082
:100C400070B504460D46204629680BF0C5FC2146C8
:100C5000034805F08FFE024805F05CFE002070BDE1
:100C6000D80F002010B503460C460021084610BDE1
:100C70002DE9F04104460D4600260A48D0F8BC7222
:100C8000D7F8140210B10120BDE8F0812A462146B0
:100C9000044805F07DFE034805F012FF0646304685
:100CA000F2E70000D80F002010B52DED0C8B964810
:100CB00090ED000ABDEEC00A10EE100A00B2934992
:100CC000A1F852009248408801EE100AB8EE411A8D
:100CD000F0EE410A0846B0F9520001EE100AB8EEF3
:100CE000C11AB0EE410A9FED8B1A08F013FF874836
:100CF00080ED150A90ED150ADFED870A20EE200A37
:100D000080ED160A90ED150AF7EE000A20EE200A93
:100D100080ED170A814890ED010A7C48D0ED170A52
:100D200030EE600A7E4880ED1B0A784890ED160A86
:100D300010EE101A0846FFF7D2FC41EC1D0BB0EE86
:100D40004D0AF0EE6D0A07F0D3FEB0EE40BAF0EEB9
:100D500060BA7448406800EE100AFFEE000A20EE08
:100D6000200A10EE101A0846FFF7B9FC41EC1C0BE4
:100D700053EC1B2BFFF78EFB41EC190B634890EDF6
:100D8000160A10EE101A0846FFF7A9FC41EC1D0BDD
:100D9000B0EE4D0AF0EE6D0A07F046FEB0EE40BA36
:100DA000F0EE60BA5F4801680846FFF798FC41EC36
:100DB0001C0B53EC1B2BFFF76DFB41EC1A0B53EC98
:100DC000192BFFF761FB41EC180BFFF79BFC00EEC2
:100DD000100AF7EE000A20EE200A4C4880ED040AC3
:100DE00090ED160A10EE101A0846FFF778FC41EC59
:100DF0001D0BB0EE4D0AF0EE6D0A07F015FEB0EED9
:100E000040BAF0EE60BA4748406800EE100AF7EECC
:100E1000000A20EE200A10EE101A0846FFF75FFCC9
:100E200041EC1C0B53EC1B2BFFF734FB41EC1A0B72
:100E3000364890ED160A10EE101A0846FFF74FFCE0
:100E400041EC1D0BB0EE4D0AF0EE6D0A07F050FEBE
:100E5000B0EE40BAF0EE60BA324801680846FFF7DB
:100E60003EFC41EC1C0B53EC1B2BFFF713FB41EC3E
:100E7000180B53EC1A2BFFF707FB41EC190BFFF78C
:100E800041FC00EE100AF7EE000A20EE200A1F488F
:100E900080ED050A90ED040AF5EE080A80EE201AAE
:100EA000B3EE030A21EE000ADFED1F0A20EE200A4E
:100EB00080ED040A90ED050AF5EE080A80EE201A8E
:100EC000B3EE030A21EE000ADFED170A20EE200A36
:100ED00080ED050A1348806800EE100AF5EE080A56
:100EE00080EE201AB3EE030A21EE000ADFED0E0AAF
:100EF00020EE200ADFED0D0A20EE200A034880EDE7
:100F0000060ABDEC0C8B10BDC8000020342C00205C
:100F1000403D00200000B44335FA8E3C303C0020B8
:100F2000C02C0020A95100203333654277F3843E62
:100F300010B52DED0C8BA64890ED000ABDEEC00A51
:100F400010EE100A00B2A349A1F85200A24840884E
:100F500001EE100AB8EE411AF0EE410A0846B0F967
:100F6000520001EE100AB8EEC11AB0EE410A9FED30
:100F70009B1A08F0CFFD974880ED150A90ED150AF1
:100F8000DFED970A20EE200A80ED160A90ED150A93
:100F9000F7EE000A20EE200A80ED170A90ED160AFF
:100FA00010EE101A0846FFF79AFB41EC1D0BB0EE4D
:100FB0004D0AF0EE6D0A07F09BFDB0EE40BAF0EE80
:100FC00060BA8848B0F9040000EE100AB8EEC00A12
:100FD000F7EE000A20EE200A8348D0ED020A20EE48
:100FE000200A10EE101A0846FFF779FB41EC1C0BA3
:100FF00053EC1B2BFFF74EFA41EC190B754890EDA3
:10100000160A10EE101A0846FFF769FB41EC1D0B9B
:10101000B0EE4D0AF0EE6D0A07F006FDB0EE40BAF4
:10102000F0EE60BA6F48B0F9060000EE100AB8EEB4
:10103000C00A6D48D0ED030A20EE200A10EE101A07
:101040000846FFF74CFB41EC1C0B53EC1B2BFFF746
:1010500021FA41EC1A0B53EC192BFFF715FA41EC6E
:10106000180BFFF74FFB00EE100AF7EE000A20EE18
:10107000200A584880ED040A90ED160A10EE101A66
:101080000846FFF72CFB41EC1D0BB0EE4D0AF0EECD
:101090006D0A07F0C9FCB0EE40BAF0EE60BA5148F4
:1010A000B0F9040000EE100AB8EEC00AF7EE000A2C
:1010B00020EE200A4C48D0ED020A20EE200A10EE65
:1010C000101A0846FFF70BFB41EC1C0B53EC1B2BD3
:1010D000FFF7E0F941EC190B3E4890ED160A10EECF
:1010E000101A0846FFF7FBFA41EC1D0BB0EE4D0A53
:1010F000F0EE6D0A07F0FCFCB0EE40BAF0EE60BA1C
:101100003848B0F90600404200EE100AB8EEC00AB6
:101110003548D0ED030A20EE200A10EE101A0846DA
:10112000FFF7DDFA41EC1C0B53EC1B2BFFF7B2F978
:1011300041EC1A0B53EC192BFFF7A6F941EC180BF5
:10114000FFF7E0FA00EE100AF7EE000A20EE200AA0
:10115000204880ED050A90ED050AB1EE400A80EDC9
:10116000050A0078012805D19FED200A194880ED75
:10117000060A29E017480078032825D1154890ED84
:10118000180ADFED1B0AB4EEE00AF1EE10FA0DD8F2
:1011900090F9680000EE100AB8EEC00A0D48D0EDD4
:1011A000180A20EE200A80ED060A0DE0094890F9A1
:1011B000680000EE100AB8EEC00A0648D0ED180A22
:1011C00020EE200A80ED060ABDEC0C8B10BD00005D
:1011D000C8000020342C0020403D00200000B44313
:1011E00035FA8E3CDC4C0020F44C0020000000005E
:1011F0000000FA4510B597201749A1F8520017488A
:10120000008801EE100AB8EE411AF0EE410A0846D5
:10121000B0F9520001EE100AB8EEC11AB0EE410A60
:101220009FED0F1A08F076FC0B4880ED150A90ED43
:10123000150ADFED0C0A20EE200A80ED170A9FED5B
:101240000A0A80ED040A9FED080A80ED050A9FED69
:10125000060A80ED060A10BD342C0020903C0020C8
:1012600000F8FF45A005343D0000000010B52048FF
:1012700090ED0A0AD0ED070A9FED1E1A00EE810AD2
:1012800080ED0A0A90ED0B0AD0ED080A9FED191ABD
:1012900000EE810A80ED0B0AC06917498860144886
:1012A000006AC8601248406A08611148806A086094
:1012B0000F48C06A48600E48806D086304F000FA69
:1012C0000E4890ED010AF2EE090AB4EEE00AF1EEE2
:1012D00010FA06DDB7EE000A10EE100A0649C862E1
:1012E00005E09FED070A10EE100A0349C86210BD21
:1012F000342C00206F12833AB6510020E83B0020C6
:101300000000000010B53422054940F201100AF037
:10131000F3FC6022034901200AF0EEFC10BD00003E
:10132000B65100205652002010B50021024A11602B
:10133000516003F037FF10BD5800002010B502487F
:1013400001F01EF910BD0000380D002010B5024854
:1013500001F016F910BD0000180F002010B502486A
:1013600001F00EF910BD0000780F002010B5024802
:1013700001F006F910BD0000580E002010B502481B
:1013800001F0FEF810BD0000B80E002010B50248B4
:1013900001F0F6F810BD0000980D002010B50248CD
:1013A00001F0EEF810BD0000F80D002001680A4BB6
:1013B000CAB2103AA3FB02321209084B9B5CC36508
:1013C000032A04D96FF30901091D816502E06FF357
:1013D00009018165806D7047ABAAAAAAD2EC00080A
:1013E000014600208A6A8B69002B0FD0B3F5005F9D
:1013F0001DD08AB3012A30D0022A2ED0032A04D16C
:10140000C96A11F0807F00D0012070471AB1012A0B
:1014100007D0022AF9D1C96A11F0807FF5D00120E6
:101420007047C96AB1F1C07FFAD1012070475AB143
:10143000012A0BD0022A07D0032AF7D1C96AB1F1D9
:10144000C07FF3D10120704701207047C96A11F0B5
:10145000807FFAD001207047FFE701207047D0F865
:1014600000C0CCF804308368402B04D00368996036
:101470000068C260704703689A600068C160704786
:1014800010B4D0F800C0DCF8004024F48024CCF87C
:101490000040D0F800C0CCF804308368402B05D061
:1014A000036899600068C26010BC704703689A6066
:1014B0000068C16010BC70477047704710B5134892
:1014C0004079E8B99FED121ADFED110AB2EE040A75
:1014D00000234FF47A5219460E4804F0A7F89FED06
:1014E0000C1ADFED0B0AB2EE040A00234FF47A5215
:1014F0001946094804F09AF801200449487102E0AD
:101500000020024948710148407910BD402D00205B
:1015100000000000E43A0020543B002010B50446CF
:101520001E2C0BD1DFED181A9FED181AF2EE040AEB
:10153000B0EE000A16480AF0D9FA13E0642C0BD179
:10154000DFED111A9FED131AF2EE040AB0EE000A55
:101550000F480AF0CBFA05E024B99FED0B0A0C48BE
:1015600080ED010A0A4890ED010A0B4880ED020A5D
:1015700090ED020A80ED060A90ED020AB1EE400AF3
:1015800080ED0C0A10BD0000000000000060EA457C
:10159000A03A00200080BB44402D002010B5224816
:1015A000B0F9040000EE100AB8EEC00A1F4880ED42
:1015B000070A1D48B0F91C0000EE100AB8EEC00A78
:1015C0001A4880ED0D0A0020FFF7A8FF174890ED9C
:1015D000061AF0EE410A90ED071AB0EE410A1448DF
:1015E00009F0A4FC114890ED0C1AF0EE410A90EDC0
:1015F0000D1AB0EE410A0F4809F098FC0C4890ED26
:10160000100ABDEEC00A10EE100A00B20A490882A4
:10161000084890ED100ABDEEC00A10EE100A01B2A3
:101620000548418210BD0000483C0020402D0020AC
:10163000E43A0020543B00200038002010B5224836
:10164000B0F9040000EE100AB8EEC00A1F4880EDA1
:10165000070A1D48B0F91C0000EE100AB8EEC00AD7
:101660001A4880ED0D0A6420FFF758FF174890EDE7
:10167000061AF0EE410A90ED071AB0EE410A14483E
:1016800009F054FC114890ED0C1AF0EE410A90ED6F
:101690000D1AB0EE410A0F4809F048FC0C4890EDD5
:1016A000100ABDEEC00A10EE100A00B20A49088204
:1016B000084890ED100ABDEEC00A10EE100A01B203
:1016C0000548418210BD0000483C0020402D00200C
:1016D000E43A0020543B00200038002070B50A484E
:1016E0000468001D0568001D0668344454B10822D2
:1016F0000649204603F066FA0422044910312846C0
:1017000003F060FA70BD0000107AFF1F9600002001
:10171000F0EE400AC0ED000A90ED002AB0EE421A49
:1017200090ED002AF0EE421A90ED002AB0EE420A47
:10173000042131E000EB810292ED002AB4EEC12ACF
:10174000F1EE10FA06DD00EB810292ED002AB0EE18
:10175000421A0EE000EB810292ED002AB4EEE12A7B
:10176000F1EE10FA05D200EB810292ED002AF0EEC4
:10177000421A00EB810292ED002A32EE002AB0EE0E
:10178000420A4A1E00EB820292ED002A00EB81021F
:1017900082ED002A4A1E91B20029CBD1032130EEFE
:1017A000412A32EE612AB0EE420A02EE101AB8EE79
:1017B000422AC0EE022AB0EE620A704710B50BF062
:1017C00099FB0BF0C7FA10BD9FED150A154880ED87
:1017D000000A154890ED010A124880ED080A1348E6
:1017E00090ED010A0F4880ED0B0A9FED110A114898
:1017F00080ED000A0C4840680F498861002006E02F
:1018000000220849643121F81020411CC8B2022886
:10181000F6DB9FED030A094880ED0E0A70470000D1
:1018200000000000C02C0020183C0020303C0020AC
:10183000000032438C020020EA5100203C4300208B
:10184000154890ED000A1548B0F9020000EE900A24
:10185000F8EEE00A124890ED011A00EE810A0E48F7
:1018600080ED000A90ED080A0C48B0F9000000EE87
:10187000900AF8EEE00A0A4890ED001A00EE810A9C
:10188000054880ED080A074840680749886102203A
:101890000649087270470000C02C0020DC4C002074
:1018A000F44C0020183C0020EA510020742E002047
:1018B0002A4890ED000ADFED2A0AB4EEE00AF1EEC4
:1018C00010FA0EDD90ED000ADFED260A70EE600AD8
:1018D0009FED251A80EE810A10EE100A23498861D7
:1018E0000AE01E48D0ED000A9FED1F1A80EE810A23
:1018F00010EE100A1D4988611D4800884FF4B4712C
:10190000484341F6FF7190FBF1F000EE100AF8EE4B
:10191000C00A9FED151A80EE810A10EE100A1349D5
:1019200048610846406900EE100ADFED120AB4EE85
:10193000E00AF1EE10FA0BDD0846406900EE100AED
:10194000DFED0D0A30EE600A10EE100A486103E088
:10195000064840690549486170470000183C00206E
:10196000000034430000B44333336542B6510020D5
:10197000903C0020C3F54840C3F5C8400C480078AF
:1019800020B1012806D002280CD107E009480A49F5
:10199000086008E009480849086004E0084806496A
:1019A000086000E000BF00BF034800687047000007
:1019B000C5000020F000002008010020F4000020F5
:1019C000F800002090F82020012A07D0022A05D034
:1019D000416A41F4802141620120704700684269F8
:1019E000114341610020704770B490F82040D0F856
:1019F00000C0DCF808C0012C08D0022C06D0416AD7
:101A000041F48021416270BC012070470CF0806479
:101A10000CF000652C4302D11CF0805F5FD0CCF34A
:101A2000016CBCF1020F06D9416A41F40001416228
:101A300070BC01207047012404FA0CF41C608B6810
:101A40004FF4C0749BB1CD6804EB0C162B434D686A
:101A500043EAC5030568AB514FF4C273066803EB54
:101A60000C130D69F550097D012909D00DE00D8891
:101A7000CB6804EB0C1643EA45530568AB51EBE722
:101A80000168CD5845F48075CD501179D3795579D9
:101A900041EA036193791B0443EA052319434FF498
:101AA000C675036805EB0C1559511178D37841EAD6
:101AB0000361937852781B0443EA022211434FF4E6
:101AC000C473026803EB0C13D150016804EB0C10D3
:101AD0000A5842F001020A5070BC00207047416A67
:101AE00041F40011416270BC0120704790F8202041
:101AF000012A07D0022A05D0416A41F480214162BF
:101B0000012070474248D0F8002242F00102C0F89C
:101B10000022D0F8002222F47C52C0F80022D0F833
:101B200000224B6A42EA0322C0F800220A7D012308
:101B300002F01F0203FA02F2D0F81C329343C0F8FD
:101B40001C32CB69D3B9D0F80C329343C0F80C32B5
:101B5000B1F80CC04B686CF31F43D1F814C000EB14
:101B6000CC0CCCF84032B1F808C00B686CF31F43C2
:101B7000D1F814C000EBCC0CCCF84432CB69012B6B
:101B80001AD1D0F80C321343C0F80C32B1F800C0AF
:101B90004B686CF31F43D1F814C000EBCC0CCCF8AD
:101BA0004032B1F808C0CB686CF31F43D1F814C0C1
:101BB00000EBCC0CCCF844328B697BB1D0F804320A
:101BC0001343C0F804320B6973B1D0F814321343D5
:101BD000C0F81432096A01290CD010E0D0F80432A0
:101BE0009343C0F80432EEE7D0F814329343C0F8C0
:101BF0001432EFE7D0F81C121143C0F81C12D0F8D1
:101C0000001221F00101C0F800120020704700000E
:101C100000640040704710B490F820C0BCF1010F80
:101C200009D0BCF1020F06D0416A41F48021416223
:101C300010BC0120704739B1D0F800C0DCF810C0EA
:101C40001CF0030F7DD006E0D0F800C0DCF80CC01B
:101C50001CF0030F7BD04FF4D87C04680CEB011C04
:101C600054F80C4004F004049460002C7DD0046807
:101C700054F80C40E4085460046854F80CC00CF0AC
:101C8000020CC2F80CC04FF4DA7C04680CEB011CA7
:101C900054F80C4004F00F041461046854F80C402C
:101CA000C4F307249461046854F80CC04FEA1C4C38
:101CB000C2F814C04FF4DC72D0F800C002EB01127D
:101CC0005CF802C083F800C0D0F800C05CF802C025
:101CD0004FEA1C2C83F801C0D0F800C05CF802C0A9
:101CE0004FEA1C4C83F802C0D0F800C05CF8022018
:101CF000120EDA704FF4DE72D0F800C002EB01125F
:101D00005CF802C083F804C0D0F800C05CF802C0E0
:101D10004FEA1C2C83F805C0D0F800C05CF802C064
:101D20004FEA1C4C83F806C0D0F800C05CF80220D3
:101D3000120EDA71F9B10068016941F02001016108
:101D400002E00BE003E010E010BC00207047416AA5
:101D500041F40011416210BC01207047416A41F416
:101D60000011416210BC01207047046854F80C4017
:101D7000640D146080E70068C16841F02001C16013
:101D8000DEE70246002092F82010012901D0022946
:101D90000FD111688A6812F0806F00D001208A6824
:101DA00012F0006F00D0401C896811F0805F00D0F5
:101DB000401C70472DE9F05F0546002428684669FD
:101DC000D0F804908768D0F80CA0D0F810B0D0F804
:101DD000188016F0010F54D017F0010F17D0012111
:101DE000816017F0020F03D0284600F003FB0EE0DD
:101DF00017F0040F02D04FF4006408E017F0080F4A
:101E000002D04FF4805402E0284600F0F2FA17F4B2
:101E1000807F19D029684FF48070886017F4007FA4
:101E200003D0284600F0E8FA0EE017F4806F02D0E5
:101E300044F4005408E017F4006F02D044F48044E6
:101E400002E0284600F0D7FA17F4803F19D029683D
:101E50004FF48030886017F4003F03D0284600F02C
:101E6000CDFA0EE017F4802F02D044F4004408E0CD
:101E700017F4002F02D044F4803402E0284600F02A
:101E8000BCFA16F0080F07D01AF0100F04D044F473
:101E9000007429681020C86016F0040F4FF008077E
:101EA00007D01AF0080F04D02868C760284600F051
:101EB00031FA16F0020F07D02868C06810F0030F3F
:101EC00002D0284600F028FA16F0400F07D01BF089
:101ED000100F04D044F4806429681020086116F0C3
:101EE000200F07D01BF0080F04D028680761284690
:101EF00000F02EFA16F0100F07D02868006910F0D5
:101F0000030F02D0284600F025FA16F4003F08D04F
:101F100019F0100F05D0296810204860284600F0FD
:101F200035FA16F4803F07D019F0080F04D028685E
:101F30004760284600F063FA16F4004F4AD019F0C3
:101F4000040F44D016F4807F04D018F0010F01D0A4
:101F500044F0010416F4007F04D018F0020F01D001
:101F600044F0020416F4806F04D018F0040F01D07E
:101F700044F0040416F4006F29D018F0700F26D036
:101F800008F07000402815D006DC102809D0202861
:101F90000AD0302816D10AE050280ED0602811D17E
:101FA0000EE044F008040DE044F010040AE044F0B0
:101FB000200407E044F0400404E044F0800401E021
:101FC00044F480742868816921F070018161296876
:101FD00004204860002C05D0686A204368622846C7
:101FE000FFF718FEBDE8F09F70B50446002C03D043
:101FF00094F8200010B104E0012070BD204600F0EC
:10200000A7F82068016841F00101016000F08EFD31
:102010000546206840684FF0050610F0010F11D109
:1020200000F084FD401B0A2807D9606A40F40030A4
:10203000606284F82060012070BD2068406810F064
:10204000010FEDD02068016821F00201016000F06D
:102050006DFD05462068406810F0020F11D000F0B9
:1020600065FD401B0A2807D9606A40F400306062B1
:1020700084F82060012070BD2068406810F0020FD5
:10208000EDD1207E01283FD02068016821F0800139
:102090000160607E01283DD02068016821F0400188
:1020A0000160A07E01283BD02068016821F020015A
:1020B0000160E07E012839D02068016841F01001FC
:1020C0000160207F012837D02068016821F00801D5
:1020D0000160607F012835D02068016821F004018B
:1020E0000160E168A06862690843216911430843FF
:1020F0006168491E08432168C861002060620120B0
:1021000084F82000002070BD2068016841F0800143
:102110000160BEE72068016841F040010160C0E74E
:102120002068016841F020010160C2E72068016871
:1021300021F010010160C4E72068016841F0080146
:102140000160C6E72068016841F004010160C8E74A
:1021500010B586B00446142101A8FEF7DBF86749E4
:102160002068884259D166480068401C644908606C
:102170000846006801280FD100BF00200090614888
:10218000006840F000705F4908600846006800F091
:102190000070009000BF00BF00BF002000905948B1
:1021A0001038006840F008005649103908600846A9
:1021B000006800F00800009000BF00BF03200190FD
:1021C0000220029000200390032004900920059033
:1021D00001A94D4800F08CFB00220521132000F0DE
:1021E0004BFD132000F03AFD00220521142000F0E1
:1021F00043FD142000F032FD00220521152000F0DF
:102200003BFD152000F02AFD00220521162000F0DC
:1022100033FD162000F022FD6DE03C492068884225
:1022200069D100BF002000903648006840F080600F
:10223000344908600846006800F08060009000BFE4
:1022400000BF2F480068401C2D4908600846006800
:1022500001280FD100BF002000902A48006840F0FC
:102260000070284908600846006800F0007000907F
:1022700000BF00BF00BF0020009022481038006857
:1022800040F002001F49103908600846006800F05D
:102290000200009000BF00BF4FF4405001900220A8
:1022A000029000200390032004900920059001A9CA
:1022B000174800F01DFB002205213F2000F0DCFC48
:1022C0003F2000F0CBFC00220521402000F0D4FC90
:1022D000402000F0C3FC00220521412000F0CCFC8E
:1022E000412000F0BBFC00220521422000F0C4FC8C
:1022F000422000F0B3FC06B010BD000000640040B6
:102300004800002040380240000C024000680040B5
:10231000000402407047000010B5044609492068D7
:1023200088420DD1084BA3F11C0200212046FFF783
:1023300072FC05491C3908681C31044A1268904730
:1023400010BD000000640040A43D00209002002069
:102350007047000010B504460949206888420DD135
:10236000084BA3F11C0201212046FFF754FC05494C
:102370001C3908681C31044A1268904710BD0000DF
:1023800000680040A43D002094020020704770B512
:10239000044694F82000012805D0606A40F400202B
:1023A0006062012070BD022084F82000206801686E
:1023B00021F00101016000F0B9FB0546206840688A
:1023C00010F0010F12D000F0B1FB401B0A2808D911
:1023D000606A40F400306062052084F8200001202B
:1023E00070BD2068406810F0010FECD100206062E1
:1023F00070BD7047704770477047704770477047AF
:1024000010B50446002C02D0607910B106E001201E
:1024100010BD00202071204600F004F801206071FA
:10242000002010BD08B50A4A016891420FD100BFD3
:10243000002100910749096841F48051054A116063
:102440001146096801F48051009100BF00BF08BD2A
:10245000003002403038024070B50446DDF810C04C
:102460000025A06880280DD094F8340001280ED0F3
:10247000012084F8340094F83500012809D00225A1
:10248000284670BD4FF4807060650125F8E7022092
:1024900070BD022084F835002068066846F4802666
:1024A00006602068036163462046FEF7D8FF206877
:1024B000016841F001010160E2E72DE9F0410446C5
:1024C000A66D00F033FB054694F83500002702287E
:1024D00006D08020606584F834700120BDE8F0816A
:1024E0002068016821F0160101602068416921F02F
:1024F00080014161206C08B9A06C20B1206801689E
:1025000021F0080101602068016821F001010160EB
:102510002068006810F0010F12D000F007FB401B8C
:10252000052808D920206065032084F8350084F848
:102530003470BDE8F0812068006810F0010FECD124
:1025400094F85C003F2101FA00F0B060012084F8AB
:10255000350084F834700020BDE8F08190F8351023
:10256000022903D08021416501207047052180F8B0
:1025700035100068016821F00101016000207047FA
:102580002DE9F84304464FF00008CDF80080764866
:102590004FF416510068B0FBF1F7A56D2E6894F862
:1025A0005C00082101FA00F0304211D02068026876
:1025B00012F0040F0CD0026822F00402026094F8BA
:1025C0005C0001FA00F0A860606D40F001006065F9
:1025D00094F85C004FF0010909FA00F0304209D08C
:1025E0002168496911F0800F04D0A860606D40F047
:1025F0000200606594F85C1004208840304209D0E5
:102600002168096811F0020F04D0A860606D40F0E5
:102610000400606594F85C1010208840304224D09B
:102620002168096811F0080F1FD0A86020680168B0
:1026300011F4802F0DD0006810F4002F04D0A16C8D
:1026400099B12046884710E0216C71B12046884737
:102650000BE0016811F4807F03D1016821F00801CB
:102660000160216C09B12046884794F85C10202055
:102670008840304251D02168096811F0100F4CD0C9
:10268000A86094F8350005280DD02068016811F481
:10269000802F32D0006810F4002F29D0E16B59B39D
:1026A0002046884739E02068016821F01601016062
:1026B0002068416921F080014161206C08B9A06C5B
:1026C00020B12068016821F00801016094F85C00E5
:1026D0003F2101FA00F0A86084F8359084F8348036
:1026E000216D00293ED001B02046BDE8F0430847E7
:1026F000616C09B1204688470FE0016811F4807FC2
:1027000007D1016821F01001016084F8359084F848
:102710003480E16B09B120468847606D002821D0E4
:10272000606D10F0010F15D0052084F83500206889
:10273000016821F0010101600098401C0090B8423E
:1027400004D82068006810F0010FF5D184F83590A6
:1027500084F83480E16C002904D001B02046BDE843
:10276000F0430847BDE8F883000000202DE9F04160
:10277000044600F0DBF90546DCB1022084F83500A0
:10278000002684F834602068016821F001010160AE
:102790002068006810F0010F13D000F0C7F9401B4B
:1027A000052809D920206065032084F83500BDE89C
:1027B000F0810120BDE8F0812068006810F0010F71
:1027C000EBD121680868234A1040A3686268D4F8F6
:1027D00010C01A43E36843EA0C031A4363691A43BF
:1027E000A3691A43E3691A43236A1A431043626ACE
:1027F000042A03D1236BE26A1A431043086020685D
:10280000406920F00701606A40EA010501270428B9
:102810000ED1A06A0543E06A50B12046FEF7E0FD04
:1028200030B14020606584F835700120BDE8F0814A
:10283000206845612046FEF7B9FD94F85C103F2200
:1028400002FA01F18160666584F835700020BDE808
:10285000F08100003F8010F070B504460025A66DA1
:1028600094F8340001280DD0012084F8340094F845
:1028700035C00020BCF1010F06D084F834000225D9
:10288000284670BD022070BD4FF0020C84F835C0A0
:1028900060652046FEF7F4FD94F85C003F2101FAE4
:1028A00000F0B0602068016841F016010160206C02
:1028B00020B12068016841F00801016020680168CA
:1028C00041F001010160DBE770B5044600F02EF92C
:1028D0000546B4F1FF3F02D004480078044400F0FC
:1028E00025F9401BA042FAD370BD00005C03002014
:1028F0002DE9F84F0022DFF818A2DFF810924FF010
:10290000010E03274FF00F08AAF1040B0EFA02FC88
:102910000B6803EA0C0363457DD10C7904F00304D2
:10292000012C01D0022C14D18568540007FA04F65A
:10293000B543CE6806FA04F42C438460446824EA64
:102940000C0C0C79C4F30014944044EA0C0CC0F84D
:1029500004C0D1F804C037EA0C0C0CD0C4684FEAAC
:10296000420C07FA0CF5AC438D6805FA0CFC4CEAF6
:10297000040CC0F80CC091F804C00CF0030CBCF1BE
:10298000020F12D14FEAD20C00EB8C04256A4FEAF9
:10299000427C4FEADC6C08FA0CF6B5430E6906FA85
:1029A0000CFC4CEA050CC4F820C004684FEA420C49
:1029B00007FA0CF5AC430D7905F0030505FA0CFC9C
:1029C0004CEA040CC0F800C0D1F804C01CF4403F2D
:1029D0007DD0D9F800C04CF4804CC9F800C0D9F8BB
:1029E00000C00CF4804CCDF800C022F0030C0CF1B8
:1029F000804505F59835D5F808C89407240F08FADE
:102A000004F62CEA0606A0F1804CBCF5003C64D02C
:102A1000A0F1804C00E05AE0BCF5013C60D0A0F190
:102A2000804CBCF5023C5ED0A0F1804CBCF5033C70
:102A30005CD0A0F1804CBCF5043C5AD0A0F1804C95
:102A4000BCF5053C58D0A0F1804CBCF5063C56D0F6
:102A5000A0F1804CBCF5073C54D04FF0080C0CFAA8
:102A600004FC4CEA060CC5F808C8DAF800C02CEAE9
:102A7000030C4C6814F4801F01D04CEA030CCAF814
:102A800000C0244CD4F800C02CEA030C4D6815F4A7
:102A9000001F01D04CEA030CC4F800C0DBF800C0F2
:102AA0002CEA030C4C6814F4003F01D04CEA030CF0
:102AB000CBF800C0184CD4F800C02CEA030C4D68C9
:102AC00015F4803F01D04CEA030CC4F800C0521C3E
:102AD000102AFFF41BAFBDE8F88F4FF0000CBEE7E3
:102AE0004FF0010CBBE74FF0020CB8E74FF0030CBE
:102AF000B5E74FF0040CB2E74FF0050CAFE74FF02D
:102B0000060CACE74FF0070CA9E700004438024080
:102B1000083C01400C3C0140003C0140002A01D02F
:102B20008161704709048161704700000148806835
:102B3000704700005C03002002488168027811445D
:102B4000816070475C03002010B50B48016841F4B8
:102B500000710160016841F480610160016841F425
:102B600080710160032000F0BBF8002000F006F83F
:102B700000F04AF8002010BD003C024070B588B05B
:102B800004460025002600222146192000F074F892
:102B9000192000F063F800BF00200190164800687B
:102BA00040F40030144908600846006800F4003022
:102BB000019000BF00BF02A903A800F009FF00F0C8
:102BC0003BFF45000D48B5FBF0F0461E0C480D4993
:102BD000086040F2E7310B48C160466000210161A6
:102BE000816001F0FBF920B9064801F08FFA08B0C6
:102BF00070BD0120FBE700004438024040420F0056
:102C000000440140E02B002008B500BF00200090E8
:102C10001148006840F480400F4908600846006889
:102C200000F48040009000BF00BF00BF0020009073
:102C3000081F006840F08050091F086008460068BF
:102C400000F08050009000BF00BF00220F21901EB6
:102C500000F012F808BD00004438024000280ADBEA
:102C600000F01F01012202FA01F14009800000F189
:102C7000E020C0F80011704710B4184B1B68C3F374
:102C80000223C3F1070CBCF1040F01D94FF0040C6F
:102C90001C1D072C01D2002300E0DB1E012404FAD6
:102CA0000CFCACF1010C0CEA0101994004FA03F3AD
:102CB0005B1E1A401143002806DB00F1E0200901E9
:102CC00080F8001410BC704700F00F0000F1E02005
:102CD000090180F8141D10BC704700000CED00E0E5
:102CE00000F00700064A11684FF6FF03194041EA59
:102CF000002040F0FD7040F08060106070470000E0
:102D00000CED00E07047006841620020704730B46D
:102D10000368586A00291BD0D3F828C000EB1C4C6C
:102D200000200129A1F101014FF4827408D004EBC5
:102D300080055D590CEB154C401CC0B28842F6D39F
:102D400004EB81014CEA0240585030BC002070472F
:102D500040EA02409862F8E710B50446D4F8080546
:102D600004F058FA10BD70B504460D4605EBC503D6
:102D700004F13C0101EB83010A692946D4F80805F6
:102D800004F072F970BD70B504460D4605EBC5033D
:102D900004F51F7101EB83010A692946D4F808057F
:102DA00004F0D0F970BD10B50446D4F8080504F05D
:102DB00033FA10BD11F0800F01F00F0101EBC101DA
:102DC00000EB810101D03C3101E001F51F71006889
:102DD00005F091BA70B5044611F0800F01F00F00B4
:102DE00000EBC00104EB81014FF001024FF0000540
:102DF00002D03C314A7002E001F51F714D7008703D
:102E000094F8BC04012808D084F8BC24206804F09D
:102E1000EDFE84F8BC54002070BD022070BD70B57A
:102E2000044601F00F026068824201D9012070BDA2
:102E300001F00F0000EBC00011F0800F04EB8000E8
:102E40004FF001034FF0000503D000F13C014B703F
:102E500002E000F51F714D708D700A7094F8BC048B
:102E6000012808D084F8BC34206805F0D3F884F831
:102E7000BC54002070BD022070BD01F00F0101EBB9
:102E8000C10100EB8100D0F89C02704770B5044688
:102E900011F0800F01F00F0000EBC00104EB810185
:102EA0004FF0010C4FF0000503D03C3181F801C018
:102EB00002E001F51F714D700870CA600B714A780D
:102EC00002B10881022B00D14D7194F8BC04012895
:102ED00008D084F8BCC4206804F0C4FD284684F8F7
:102EE000BC5470BD022070BD10B50C4604F00F0C30
:102EF0000CEBCC0100EB810101F51F710A618B61C4
:102F000000230B624B7081F800C00369012B00D1D4
:102F10004A6114F00F0F05D0027C006805F0D5F867
:102F2000002010BD027C006804F0ACFFF8E770B52B
:102F300004460D46616805F00F00884201D9012062
:102F400070BD15F0800F4FF000064FF0010206D063
:102F500000EBC00104EB81013C314A7006E005EB57
:102F6000C50104EB810101F51F714E708A70087074
:102F700094F8BC04012808D084F8BC24206805F02B
:102F800075F815F00F0F02D007E0022070BD217C0C
:102F900004F2C442206805F00DF884F8BC640020F7
:102FA00070BD10B50C4604F00F0C0CEBCC0100EB1F
:102FB00081013C310A618B6100230B6201234B705C
:102FC00081F800C00369012B00D14A6114F00F0F92
:102FD00005D0027C006805F078F8002010BD027C66
:102FE000006804F04FFFF8E72DE9F05F044625681C
:102FF000284605F043FA00287ED1206805F06AFAD9
:10300000002879D0D5F80808C0F30D20C4F8FC04D6
:10301000206805F05FFA10F0020F04D020684169C3
:1030200001F002014161206805F054FA10F0100F20
:1030300036D02068816921F0100181612F6A07F084
:103040000F0000EBC00004EB800000F51F76C7F313
:103050004340022802D0062812D01CE047F6F07048
:10306000074218D0C7F30A1217462846316905F0FF
:1030700035FA306938443061306A384430620AE0E9
:10308000082204F2C441284605F028FA306AC7F342
:103090000A11084430622068816941F010018161A1
:1030A000206805F017FA10F4002F4FF0100B4FF0C6
:1030B000000A4FF0010967D00026206805F0E9F901
:1030C00080465FEA08005FD018F0010F56D0F1B2D9
:1030D000206805F0F7F9074617F0010F07D005EB58
:1030E0004610C0F8089B3146204602F0D9F917F087
:1030F000080F0AD0082000E01FE205EB4611C1F8D6
:10310000080B3146204602F0A7F917F0100F03D044
:1031100005EB4610C0F808BB17F0020F1DD0686918
:1031200010F0800F05D0D5F8040840F48061C5F890
:10313000041806EBC60004EB800000F51F70C17890
:10314000012905D180F803A0F1B2204600F007FA6A
:1031500005EB46110220C1F8080B17F0200F04D030
:1031600005EB46112020C1F8080B17F4005F05D0CD
:1031700005EB46114FF40050C1F8080B761C4FEADE
:103180005808B8F1000F9FD1206805F0A3F910F49A
:10319000802F74D0206805F075F907460026002FAF
:1031A0006DD04FF0020B17F0010F64D0F1B2206820
:1031B00005F076F9804618F0010F24D006F00F00D4
:1031C00009FA00F0D5F834188143C5F8341805EB36
:1031D0004610C0F808992069012810D106EBC600F6
:1031E00004EB8000826CC16C1144C1643EB9606D17
:1031F00028B904F2C4420121206804F0DBFEF1B2D8
:103200002046FFF7B0FD18F0080F04D005EB46117B
:103210000820C1F8080918F0100F04D005EB46117A
:103220001020C1F8080918F0400F04D005EB461132
:103230004020C1F8080918F0020F15D03146284681
:1032400005F0E0F806EBC60004EB80003C30C178E6
:10325000012905D180F803A0F1B2204600F076F9EB
:1032600005EB4610C0F808B918F0800F03D03146BE
:10327000204602F089F9761C7F08002F93D1206840
:1032800005F028F910F0004F11D0D5F8040820F00F
:103290000101C5F8041894F8F404012861D020460F
:1032A00000F072FA2068416901F000414161206834
:1032B00005F010F910F4006F0CD0D5F8080810F0E4
:1032C000010F02D0204600F0ABFA2068416901F4FA
:1032D00000614161206805F0FDF810F4805F65D061
:1032E000D5F8040820F00101C5F804181021206861
:1032F00005F088F80021606800281DD94FF67F325C
:1033000005EB4110C0F80829D0F8003923F4001368
:10331000C0F80039C0F8082BD0F8003B23F40013A4
:10332000C0F8003BD0F8003B43F00063C0F8003B1E
:10333000491C60688842E3D8D5F81C0840F00111A8
:10334000C5F81C18206B98B1D5F8840840F00B0123
:10335000C5F88418D5F8440840F00B01C5F84418A6
:1033600013E084F8F4A400212046FFF7CBFC99E792
:10337000D5F8140842F22B010143C5F81418D5F80A
:10338000100840F00B01C5F81018D5F8000820F41B
:10339000FE61C5F80018217C04F2C442206804F0E4
:1033A00009FE2068416901F480514161206805F0FF
:1033B00091F810F4005F16D0206804F0A1FB20689B
:1033C00005F04CF8E06000F021FB23680146227B09
:1033D000184605F025F9204600F0BEF9206841693D
:1033E00001F400514161206805F074F810F0080FF5
:1033F00007D0204600F0CFF92068416901F00801AC
:103400004161206805F066F810F0800F17D0A869B8
:1034100020F08001A9610126606801280FD906EB20
:10342000C60004EB800090F87F02012803D1F1B2BE
:103430002046FFF7BFFC761C6068B042EFD82068DA
:1034400005F048F810F4801F23D001266068012899
:103450001AD905EB4610D0F8001906EBC60004EBAC
:10346000800090F84020012A0AD111F0004F07D0C7
:1034700080F83F90F0B240F080012046FFF79AFCC0
:10348000761C6068B042E4D82068416901F480117C
:103490004161206805F01EF810F4001F2DD00120B6
:1034A0006168012924D905EB4011D1F8001B00EB1C
:1034B000C00204EB820292F88032012B14D111F089
:1034C000004F11D094F8FC3401F4803103F0010373
:1034D000994209D182F87F92A96941F08002AA61DC
:1034E000696911F0800F2AD0401C61688142DAD8E6
:1034F0002068416901F400114161206804F0EAFF8D
:1035000010F0804F07D02046FFF726FC2068416965
:1035100001F080414161206804F0DCFF10F0040FED
:103520000BD02068456815F0040F02D02046FFF745
:103530003AFC2068416829434160BDE8F09FD5F816
:10354000040840F40070C5F80408D1E770B50446DB
:103550000D462946D4F8080503F0C8FE70BD70B5C5
:1035600004460D462946D4F8080503F0D4FE70BD84
:103570002DE9F0478AB00446002C05D0266894F85F
:10358000BD04002520B108E00AB00120BDE8F087A5
:1035900084F8BC54204600F08BF8032084F8BD0466
:1035A000F06B10F4807F00D12561206804F064FC8A
:1035B00004F11000D4F82C8090E80F10A76A666A16
:1035C0008DE80F10CDF81C8006970596616B206B77
:1035D0000991089094E80F0004F0A0FA022728B19E
:1035E00084F8BD740AB00120BDE8F087002120688E
:1035F00004F0CEFF002160680126002813D901EBFA
:10360000C10004EB800080F83D6080F83C10A0F819
:10361000441080F840508564C5644565481CC1B2BB
:1036200060688842EBD800216068002814D901EB5B
:10363000C10004EB800080F87D5280F87C1280F895
:103640008052C0F88852C0F88C52C0F89452481C7E
:10365000C1B260688842EAD804F11000D4F82CA006
:1036600090E80F10D4F82890D4F824808DE80F103B
:10367000CDF81CA0CDF81890CDF81480616B206BAC
:103680000991089094E80F0004F03AFB28B184F8FF
:10369000BD740AB00120BDE8F08784F8385084F882
:1036A000BD64206804F01EFB0AB00020BDE8F0876E
:1036B00010B586B00446142101A8FCF72BFE206843
:1036C000B0F1A04F42D100BF002000902048006818
:1036D00040F001001E4908600846006800F0010043
:1036E000009000BF00BF4FF4C05001900220029034
:1036F00000200390032004900A20059001A915489A
:10370000FFF7F6F800BF1248001D006840F0800087
:103710000F49091D086000BF002000900C481430BC
:10372000006840F480400A49143108600846006887
:1037300000F48040009000BF00BF00BF00220521C0
:103740004320FFF799FA4320FFF788FA06B010BD2F
:10375000303802400000024070B504460125E068A0
:1037600008B9002506E0E068022801D1012501E042
:10377000FDF7A3FE2946D4F8080503F058FED4F857
:10378000080503F00DFE70BD10B50446D4F8080519
:1037900003F036FE10BD10B50446D4F8080503F05A
:1037A00039FE10BD10B5044694F8BC0401280BD0B6
:1037B000012084F8BC0484F83810206804F018FF55
:1037C000002084F8BC0410BD022010BD10B50446D2
:1037D00004F2C441D4F8080503F03FFE10BD10B553
:1037E0000446206894F8BC14012906D0012184F80D
:1037F000BC14A16A012902D008E0022010BDA16911
:10380000012903D0816B41F480318163206804F089
:10381000CCFD206804F058FA002084F8BC0410BDE8
:1038200010B50446D4F8080503F06BFE2068D0F804
:10383000000E40F001002168C1F8000E206A28B196
:103840000348006840F006000149086010BD000010
:1038500010ED00E02DE9F04704460D46002C13D092
:10386000DFF85491D9F80000EFB200F00700A84249
:103870000DD289F80070D9F8000000F00700A842C6
:1038800005D00120BDE8F0870120BDE8F087206861
:103890004A4E10F0020F14D010F0040F03D030681D
:1038A00040F4E0503060207810F0080F03D030680A
:1038B00040F4604030603068A16820F0F0000843B8
:1038C0003060207810F0010F3ED060683C4901283C
:1038D00008D002280DD003280BD0096811F0020F80
:1038E00028D00AE0096811F4003F06D10120BDE8A4
:1038F000F087096811F0007F19D0316821F00301C9
:1039000008433060FFF712F980463068616800F0C4
:103910000C00B0EB810F17D041F2883AFFF706F99F
:10392000A0EB0800504508D90320BDE8F08701202E
:10393000BDE8F0870120BDE8F0873068616800F0DD
:103940000C00B0EB810FE9D1D9F8000000F00700BE
:10395000A8420AD989F80070D9F8000000F00700E1
:10396000A84202D00120BDE8F087207810F0040FB3
:1039700005D03068E16820F4E050084330602078DA
:1039800010F0080F06D03068216920F4604040EA4A
:10399000C100306000F060F831680A4AC1F30311D9
:1039A000515CC8400849086008480068FFF7E6F81D
:1039B0000020BDE8F0870000003C024008380240CB
:1039C0000038024008E800080000002060030020E2
:1039D0000F2202600B4A136803F00303436013686D
:1039E00003F0F0038360136803F4E053C3601268CC
:1039F00002F46042D20802610348006800F0070048
:103A00000860704708380240003C024001480068E6
:103A1000704700000000002000B5FFF7F7FF0449E1
:103A20000968044AC1F38221515CC84000BD00000E
:103A30000838024018E8000800B5FFF7E7FF04491E
:103A40000968044AC1F34231515CC84000BD00001E
:103A50000838024018E8000810B51548006810F052
:103A60000C01144823D0042921D008291FD1124C5D
:103A7000216801F03F02216811F4800F08D021680D
:103A80000023C1F38811A1FB0001FCF7F9FB07E05B
:103A900021680023C1F38811A1FB0001FCF7F0FBB2
:103AA0002168C1F30141491C4900B0FBF1F010BD90
:103AB000083802400024F400043802402DE9F84F91
:103AC0000446002C12D02078FB4E10F0010FA6F116
:103AD000040563D0301D016801F00C0104290CD0ED
:103AE000006800F00C00082803D010E00120BDE8B9
:103AF000F88F306810F4800F09D0286810F4003F68
:103B00004CD06068002849D10120BDE8F88F60687A
:103B1000B0F5803F14D0B0F5A02F16D0286820F45F
:103B200080302860286820F480202860606810B306
:103B3000FEF7FCFF0746286810F4003F0ED02DE08A
:103B4000286840F480302860F0E7286840F480203E
:103B50002860286840F480302860E7E7FEF7E6FF39
:103B6000C01B642802D90320BDE8F88F286810F430
:103B7000003FF3D012E0FEF7D9FF0746286810F4A3
:103B8000003F0BD0FEF7D2FFC01B642802D90320F0
:103B9000BDE8F88F286810F4003FF3D12078C74FB4
:103BA00010F0020F4FF0000957D0C548016811F01E
:103BB0000C0F14D0006800F00C00082803D1306806
:103BC00010F4800F0BD0E06880B301203860FEF75E
:103BD000ADFF8046286810F0020F12D01EE0286862
:103BE00010F0020F05D0E068012802D00120BDE8E6
:103BF000F88F2868216920F0F80040EAC1002860A9
:103C00002BE0FEF793FFA0EB0800022802D9032067
:103C1000BDE8F88F286810F0020FF2D028682169FB
:103C200020F0F80040EAC100286016E0FFE7C7F87E
:103C30000090FEF77BFF8046286810F0020F0CD042
:103C4000FEF774FFA0EB0800022802D90320BDE8AC
:103C5000F88F286810F0020FF2D1207810F0080FCA
:103C600035D09848DFF860A26169C1B101210160D7
:103C7000FEF75CFF8046DAF8000010F0020F26D154
:103C8000FEF754FFA0EB0800022802D90320BDE88C
:103C9000F88FDAF8000010F0020FF1D017E0C0F84A
:103CA0000090FEF743FF8046DAF8000010F0020FA4
:103CB0000DD0FEF73BFFA0EB0800022802D903203D
:103CC000BDE8F88FDAF8000010F0020FF1D120788B
:103CD00010F0040F71D04FF000087C48006810F01D
:103CE000805F0AD17948016841F080510160006825
:103CF00000F0805000904FF00108DFF8D4B1DBF8FD
:103D0000000010F4807F1BD1DBF8000040F48070CD
:103D1000CBF80000FEF70AFF8246DBF8000010F443
:103D2000807F0DD1FEF702FFA0EB0A00022802D926
:103D30000320BDE8F88FDBF8000010F4807FF1D09D
:103D4000A068DFF890B1012818D005281DD0DBF855
:103D5000000020F00100CBF80000DBF8000020F0AC
:103D60000400CBF80000A06840B3FEF7DFFE8246F7
:103D7000DBF8000010F0020F14D03EE0DBF800008A
:103D800040F00100CBF80000EDE7DBF8000040F068
:103D90000400CBF80000DBF8000040F00100CBF895
:103DA0000000E0E7FEF7C2FEA0EB0A0141F2883016
:103DB000814204D90320BDE8F88F26E005E0DBF856
:103DC000000010F0020FEDD017E0FEF7AFFE8246C4
:103DD000DBF8000010F0020F0FD0FEF7A7FEA0EBFB
:103DE0000A0141F28830814202D90320BDE8F88FF0
:103DF000DBF8000010F0020FEFD1B8F1010F04D191
:103E00003248016821F080510160A069F0B32C496B
:103E100009684FF0FF3801F00C01082966D002282C
:103E200010D0C7F86090FEF781FE0446286810F0B5
:103E3000007F2BD0FEF77AFE001B022851D9032009
:103E4000BDE8F88FC7F86090FEF770FE81462868DD
:103E500010F0007F0CD0FEF769FEA0EB09000228ED
:103E600002D90320BDE8F88F286810F0007FF2D156
:103E7000216AE069A26A0843616A08EB520289017B
:103E800041EA0241084394F82C1000E055E040EA72
:103E90000160306001203866FEF748FE044628685D
:103EA00010F0007F49D1FEF741FE001B022813D914
:103EB0000320BDE8F88F00000438024000004742AC
:103EC00008380240800E47427438024040380240B1
:103ED0000070004070380240286810F0007FE2D087
:103EE0002BE0286810F0007FA4D126E0012822D022
:103EF0003068E26900F4800191421AD1226A00F030
:103F00003F01914215D147F6C071626A0140B1EBA1
:103F1000821F0ED1A26A00F4403108EB5202B1EBCD
:103F2000024F06D194F82C1000F07060B0EB016FD6
:103F300003D00120BDE70120BBE70020B9E77047AF
:103F4000704730B490F83C20012A44D0012480F816
:103F50003C40022280F83D200268D2F804C09368F9
:103F60002CF0700C0D6845EA0C0CC2F804C0026815
:103F7000A2F1804CBCF5803C20D0B2F1804F1DD026
:103F8000A2F1804CBCF5806C18D0A2F1804CBCF53D
:103F9000006C13D0A2F1804CBCF5406C0ED0A2F1A5
:103FA000804CBCF5823C09D0A2F1804CBCF5A03C11
:103FB00004D0A2F1804CBCF5C05C04D123F0800396
:103FC00049681943916080F83D40002180F83C1019
:103FD00030BC0020704730BC0220704710B504464A
:103FE000002C03D094F83D0010B107E0012010BD73
:103FF000002084F83C00204600F01EF8022084F8DF
:104000003D00211D206801F03DFE012084F846009E
:1040100084F83E0084F83F0084F8400084F84100B2
:1040200084F8420084F8430084F8440084F8450092
:1040300084F83D00002010BD10B586B00446142160
:1040400001A8FCF767F92D492068884237D100BFE5
:10405000002000902A48006840F0020028490860CB
:104060000846006800F00200009000BF00BF00BFDB
:104070000020009022481038006840F002002049DB
:10408000103908600846006800F00200009000BF88
:1040900000BF0120019002200290002003900490B4
:1040A0000220059001A91748FEF722FC00220521F5
:1040B0001D20FEF7E1FD1D20FEF7D0FD1BE012499B
:1040C0002068884217D100BF002000900C4800688B
:1040D00040F008000A4908600846006800F008003F
:1040E000009000BF00BF002205213220FEF7C4FD72
:1040F0003220FEF7B3FD06B010BD00000004004002
:104100004038024000040240000C004090F83D108E
:10411000012901D001207047022180F83D1001687B
:10412000CA6842F00102CA600068A0F18041B1F59E
:10413000803126D0B0F1804F23D0A0F18041B1F57D
:1041400080611ED0A0F18041B1F5006119D0A0F1CD
:104150008041B1F5406114D0A0F18041B1F58231C8
:104160000FD0A0F18041B1F5A0310AD0A0F180417B
:10417000B1F5C05105D0016841F001010160002096
:104180007047816801F007010629F8D0016841F005
:1041900001010160F3E770B50446002594F83C0086
:1041A000012818D0012684F83C60022084F83D00E4
:1041B0002068826822F0770222F47F4282600868D9
:1041C000502839D00EDC202854D006DC002851D0ED
:1041D000102811D14EE0022070BD30284AD040286E
:1041E0000AD13DE0602831D070280DD0B0F5805F55
:1041F00003D0B0F5005F13D0012584F83D600020A6
:1042000084F83C00284670BDCB684A6889682068FD
:1042100001F09EFD2068816841F077018160ECE744
:10422000CB684A688968206801F092FD206881683F
:1042300041F480418160E0E7CA684968206801F084
:104240009AFD5021206801F08EFDD6E7CA684968C2
:10425000206801F0A3FD6021206801F084FDCCE717
:10426000CA684968206801F086FD4021206801F095
:104270007AFDC2E722680146104601F074FDBCE7F2
:10428000704770B50446206801694FF0000511F0D1
:10429000020F17D0C16811F0020F13D0E91E01619F
:1042A000012020772068806910F0030F03D020469A
:1042B000FFF7E6FF05E0204600F09DF8204600F0FD
:1042C0009BF825772068016911F0040F18D0C168A8
:1042D00011F0040F14D06FF0040101610220207767
:1042E0002068806910F4407F03D02046FFF7C8FFA4
:1042F00005E0204600F07FF8204600F07DF82577A5
:104300002068016911F0080F18D0C16811F0080F7A
:1043100014D06FF008010161042020772068C06983
:1043200010F0030F03D02046FFF7AAFF05E0204658
:1043300000F061F8204600F05FF8257720680169F9
:1043400011F0100F18D0C16811F0100F14D06FF0D9
:1043500010010161082020772068C06910F4407FB7
:1043600003D02046FFF78CFF05E0204600F043F81D
:10437000204600F041F825772068016911F0010F0F
:1043800009D0C16811F0010F05D06FF00101016182
:10439000204600F033F82068016911F0800F09D041
:1043A000C16811F0800F05D06FF0800101612046D7
:1043B000FFF7C5FD2068016911F0400F09D0C16801
:1043C00011F0400F05D06FF040010161204600F070
:1043D00021F82068016911F0200F0BD0C16811F09D
:1043E000200F07D06FF0200101612046BDE870402A
:1043F000FFF7A6BD70BD70477047000010B50446BA
:1044000003492068884201D1FEF796FB10BD0000E9
:10441000004401407047704770470000F8B50446FB
:1044200022681068D168536900F00F0CBCF1000FCE
:104430000AD110F0200F07D011F0200F04D0204631
:10444000BDE8F84001F0FABE0025BCF1000F75D0C0
:1044500003F0010C01F490765CEA06066ED010F0D1
:10446000010F06D011F4807F03D0226C42F00102CC
:10447000226410F0040F06D013F0010F03D0226C59
:1044800042F00202226410F0020F06D013F0010F76
:1044900003D0226C42F00402226410F0080F08D00E
:1044A00001F0200252EA0C0203D0226C42F0080212
:1044B0002264226C002A35D010F0200F05D011F0B4
:1044C000200F02D0204601F0B9FE20684069C0F3F9
:1044D0008010216C11F0080F00D148B3204601F084
:1044E0006BFE2068406910F0400F1CD0206814302B
:1044F00050E8001F21F0400140E80012002AF5D1E9
:10450000A06B60B15C490165A06BFEF727F800283D
:1045100008D0A06B016D01B0BDE8F040084720460F
:10452000FFF77AFFF8BD2046FFF776FFF8BD05E0FC
:10453000FFE72046FFF770FF2564F8BD236B012BD2
:104540007ED110F0100F7BD011F0100F7ED01068CC
:104550005068009050694FF0200310F0400F43D096
:10456000A16B0868406880B20028E6D0A28D824224
:10457000E3D9E085C869B0F5807F2DD020680C3084
:1045800050E8001F21F4807140E80012002AF5D1A4
:104590002068143050E8001F21F0010140E80012AB
:1045A000002AF5D12068143050E8001F21F04001A6
:1045B00040E80012002AF5D184F83E3025632068D7
:1045C0000C3050E8001F21F0100140E80012002AD2
:1045D000F5D1A06BFDF771FFA08DE18D401A81B27E
:1045E0002046FFF718FFF8BDA08DE18D401A81B27B
:1045F000E08D0028F7D00029F5D020680C3050E875
:10460000002F22F4907240E8002CBCF1000FF4D18E
:104610002068143050E8002F22F0010240E8002CFE
:10462000BCF1000FF4D184F83E30256320680C30D3
:1046300050E8002F22F0100240E80023002B00E099
:1046400004E0F3D12046FFF7E6FEF8BD10F0800F3E
:1046500007D011F0800F04D02046BDE8F84001F0EB
:10466000CFBE10F0400FF0D011F0400FEDD020463B
:10467000BDE8F84001F0C7BD1161000870B50446FF
:10468000002C04D094F83D00002510B106E0012074
:1046900070BD84F83C50204600F022F8242084F8B5
:1046A0003D002068C16821F40051C160204601F03E
:1046B00029FE2068016921F4904101612068416967
:1046C00021F02A0141612068C16841F40051C160B4
:1046D0002564202084F83D0084F83E00002070BD51
:1046E00010B586B00446142101A8FBF713FEF84963
:1046F000206888427ED100BF00200090F548006805
:1047000040F48010F34908600846006800F4801007
:10471000009000BF00BF00BF00200090ED4810389F
:10472000006840F00400EB49103908600846006852
:1047300000F00400009000BF00BF00BF0020009008
:104740000846006840F0080008600846006800F06D
:104750000800009000BF00BF881401900220029062
:1047600000200390032004900820059001A9DA4856
:10477000FEF7BEF804200190022002900020039072
:10478000032004900820059001A9D448FEF7B0F852
:10479000D348D4490860C00548600021D1488160F1
:1047A000C1604FF480610161002141618161C1619B
:1047B00001624162FDF7DAFF08B1FCF77EFE00BF3F
:1047C000C848A063846300BFC548A830C6490860D4
:1047D0004FF0006048604021C34881600021C16003
:1047E0004FF480610161002141618161C161016219
:1047F000416200E012E0FDF7B9FF08B1FCF75DFE91
:1048000000BFB9486063846300BF002205213520E2
:10481000FEF732FA3520FEF721FA56E1B349206857
:1048200088425DD100BF00200090AA48001D0068AA
:1048300040F01000A749091D08600846006800F014
:104840001000009000BF00BF00BF00200090A148F2
:104850001038006840F001009E4910390860084691
:10486000006800F00100009000BF00BF4FF4C0607E
:104870000190022002900020039003200490072062
:10488000059001A99A48FEF733F89A489A490860BA
:104890004FF000604860002197488160C1604FF48C
:1048A000806101610021416181614FF48071C161CA
:1048B0004FF44031016200214162FDF757FF08B11A
:1048C000FCF7FBFD00BF8C48A063846300BF00229F
:1048D00005212520FEF7D0F92520FEF7BFF9F4E0E9
:1048E00086492068884276D100BF00200090794830
:1048F000006840F40030774908600846006800F41A
:104900000030009000BF00BF00BF00200090714841
:104910001038006840F001006E4910390860084600
:10492000006800F00100009000BF00BF0C20019063
:10493000022002900020039003200490072005909D
:1049400001A96B48FDF7D4FF654878306C490860D1
:104950004FF000604860002169488160C1604FF4F9
:1049600080610161002141618161C1610162416237
:10497000FDF7FCFE08B1FCF7A0FD00BF6048A06396
:10498000846300BF564890305E4908604FF0006075
:10499000486040215B4881600021C1604FF4806124
:1049A0000161002141618161C16101624162FDF7E4
:1049B000DDFE08B1FCF781FD00BF524860638463EF
:1049C00000BF002205212620FEF756F92620FEF71B
:1049D00045F97AE0FFE74C492068884275D100BF6D
:1049E000002000903B48006840F48020394908606E
:1049F0000846006800F48020009000BF00BF00BFA0
:104A00000020009033481038006840F0020031491F
:104A1000103908600846006800F00200009000BFEE
:104A200000BF4FF4406001900220029000200390EC
:104A3000032004900720059001A93448FDF758FF92
:104A400027481830324908604FF000604860002164
:104A50002F488160C1604FF4806101610021416194
:104A60008161C16101624162FDF780FE08B1FCF71E
:104A700024FD00BF2648A063846300BF1848483067
:104A8000244908604FF0006048604021214881605F
:104A90000021C1604FF480610161002141618161A9
:104AA000C16101624162FDF761FE08B1FCF705FDDD
:104AB00000BF18486063846300BF002205212720DF
:104AC000FEF7DAF82720FEF7C9F806B010BD00009F
:104AD000005000404038024000080240000C0240F4
:104AE00010600240380D0020980D00200010014099
:104AF0000000024040640240F80D002000440040E5
:104B0000580E0020B80E002000480040000402406B
:104B1000180F0020780F00207047000037B50446BA
:104B200094F83D00202802D003B0022030BD019946
:104B3000002937D0002A35D094F83C00012834D021
:104B4000012084F83C002162A284E28400252564CF
:104B5000212084F83D00636B1548D863636B1548CA
:104B60001864636B1448D864606B0565206813464D
:104B7000001DD4F834C002466046FDF76DFE216882
:104B80006FF04000086084F83C502068143050E812
:104B9000001F41F0800140E80012002AF5D103B067
:104BA000002030BD03B0012030BD03B0022030BD75
:104BB0006B610008AF610008216100087047704711
:104BC00000BFFEE730B50B46002100BF16E00A2407
:104BD000B4EB107F05D9302404EB107403F81140B6
:104BE00005E0412404EB10740A3C03F81140000175
:104BF00000254C00641C1D554C1CE1B29142E6DBC3
:104C000030BDF0EE400A90ED070A90ED001A20EE5C
:104C1000010A80ED010A90ED090A90ED071AD0ED26
:104C2000051A01EE210A80ED030A90ED030A90EDCA
:104C30000A1A30EE010A90ED031AC1EE001AC0ED17
:104C4000061A90ED010A90ED061AD0ED011A70EEE9
:104C5000E11A01EE210A80ED020A90ED060AB7EE94
:104C6000001A31EE400A90ED031A20EE010A80EDA1
:104C7000040A90ED040A80ED050A90ED020A80ED29
:104C8000000A90ED020A704710B52DED028B044624
:104C9000F0EE408AB0EE608A30212046FBF73AFB06
:104CA000C4ED098A84ED0A8AB7EE000A84ED070A8A
:104CB000B7EE000A84ED0B0ABDEC028B10BD0000BC
:104CC0009FED0E0A80ED000A9FED0C0A80ED010AAF
:104CD0009FED0A0A80ED020A9FED080A80ED030AA3
:104CE0009FED060A80ED040A9FED040A80ED050A97
:104CF0009FED020A80ED060A7047000000000000E8
:104D000080ED090AC0ED0A0A7047000010B50F488F
:104D10000F4908600620486000210D488160C1608D
:104D20004FF4003101610901416100210176012147
:104D30004176002181760121C176002101774177FA
:104D4000FDF752F908B1FCF7B8FB10BD0064004054
:104D5000480B002010B50F480F4908600620486036
:104D600000210D488160C1604FF4003101610901EB
:104D700041610021017601214176002181760121E6
:104D8000C176002101774177FDF72EF908B1FCF7D4
:104D900094FB10BD00680040700B002010B5054862
:104DA000054908600846FDF72BFB08B1FCF785FBB9
:104DB00010BD0000003002404C00002008B500BFCC
:104DC000002000902A48006840F40010284908603C
:104DD0000846006800F40010009000BF00BF00BF4C
:104DE000002000900846006840F4800008600846F3
:104DF000006800F48000009000BF00BF0022052181
:104E00000B20FDF739FF0B20FDF728FF00220521BD
:104E10000C20FDF731FF0C20FDF720FF00220521BB
:104E20000E20FDF729FF0E20FDF718FF00220521B7
:104E30001020FDF721FF1020FDF710FF00220521B3
:104E40001120FDF719FF1120FDF708FF00220521B1
:104E50002F20FDF711FF2F20FDF700FF0022052175
:104E60003A20FDF709FF3A20FDF7F8FE08BD0000E3
:104E70003038024000B5E3B007F032FC1C2258493C
:104E80005CA8FBF72EFA00215CA806F020F8554933
:104E900008601C2252491C3155A8FBF722FA002158
:104EA00055A806F014F8504908601C224C493831C6
:104EB0004EA8FBF716FA00214EA806F008F84B4959
:104EC00008601C224649543147A8FBF70AFA002122
:104ED00047A805F0FCFF464908601C224049703194
:104EE00040A8FBF7FEF9002140A805F0F0FF41497A
:104EF00008601C223A498C3139A8FBF7F2F90021ED
:104F000039A805F0E4FF3C4908601C223449A83167
:104F100032A8FBF7E6F9002132A805F0D8FF37499F
:104F200008601C222E49C4312BA8FBF7DAF90021B6
:104F30002BA805F0CCFF324908601C222849E0313B
:104F400024A8FBF7CEF9002124A805F0C0FF2D49C5
:104F500008601C222249FC311DA8FBF7C2F9002180
:104F60001DA805F0B4FF284908601C22274916A88F
:104F7000FBF7B7F9002116A805F0A9FF244908603E
:104F80001C2222491C310FA8FBF7ABF900210FA806
:104F900005F09DFF1F4908601C221C49383108A8F4
:104FA000FBF79FF9002108A805F091FF1A49086056
:104FB0001C221649543101A8FBF793F9002101A8DE
:104FC00005F085FF1549086000228021012008F0C6
:104FD000EBFD1349086007F0A3FB63B000BD0000C0
:104FE00020E80008440000202C0000201C000020C5
:104FF000200000203C000020340000203800002069
:1050000028000020240000200800002038E90008C3
:105010000C000020100000200400002014000020DC
:105020004000002000B587B0142102A8FBF772F9F8
:1050300000BF002001905648006840F080005449AD
:1050400008600846006800F08000019000BF00BFC3
:1050500000BF002001900846006840F00100086091
:105060000846006800F00100019000BF00BF00BFCB
:10507000002001900846006840F0020008600846E1
:10508000006800F00200019000BF00BF00BF0020D8
:1050900001900846006840F010000860084600686B
:1050A00000F01000019000BF00BF00BF0020019081
:1050B0000846006840F0080008600846006800F0F4
:1050C0000800019000BF00BF00BF0020019008460B
:1050D000006840F0040008600846006800F0040022
:1050E000019000BF00BF002289142A48FDF716FD79
:1050F00000224FF470612848FDF710FD00224FF4A4
:1051000000412648FDF70AFD0022C0212448FDF792
:1051100005FD4FF480500290012003900020049080
:10512000059002A91B48FDF7E3FB4FF48040029075
:10513000022003900020049005900920069002A907
:105140001748FDF7D5FB4FF47060029001200390E3
:1051500000200490059002A90F48FDF7C9FB4FF409
:10516000004002900120039000200490059002A9C5
:105170000A48FDF7BDFBC0200290012003900020EB
:105180000490059002A90648FDF7B2FB07B000BDE8
:105190003038024000100240000C02400000024083
:1051A0000004024000B587B00020039004900590F1
:1051B00006900190029014481449086054204860F9
:1051C0000021124881603221C160002101618161AA
:1051D000FEF704FF08B1FCF770F94FF4805003901C
:1051E00003A90A48FEF7D7FF08B1FCF766F90020CB
:1051F0000190029001A90548FEF7A3FE08B1FCF753
:105200005CF907B000BD000000040040980B0020CE
:1052100000B587B00020039004900590069001909F
:105220000290144814490860472048600021124841
:105230008160491EC160002101618161FEF7CEFEDF
:1052400008B1FCF73AF94FF48050039003A90A48DB
:10525000FEF7A1FF08B1FCF730F9002001900290A1
:1052600001A90548FEF76DFE08B1FCF726F907B065
:1052700000BD0000000C0040E00B002010B50B4802
:105280000B4908604FF47A3048600021084881607B
:10529000C16001610C21416100218161C161FFF7A1
:1052A000EDF908B1FCF709F910BD0000005000400D
:1052B000280C002010B50B480B4908600B484860CB
:1052C000002109488160C1604FF4806101610421BF
:1052D000416100218161C161FFF7D0F908B1FCF79C
:1052E000ECF810BD001001406C0C0020A0860100FD
:1052F00010B50B480B4908604FF4E13048600021BD
:1053000008488160C16001610C2141610021816117
:10531000C161FFF7B3F908B1FCF7CFF810BD000089
:1053200000440040B00C002010B50B480B49086049
:105330004FF47A304860002108488160C160016103
:105340000C21416100218161C161FFF797F908B12A
:10535000FCF7B3F810BD000000480040F40C00203A
:1053600010B500220D490E4801F044FE08B1FCF7CB
:10537000A4F80C490A4802F0FEF808B1FCF79DF8C1
:105380000949074801F0EAFA08B1FCF796F8044821
:1053900002F0C6F908B1FCF790F810BD60000020DB
:1053A000D80F002044040020B000002000BFFEE71A
:1053B0000146C868806B0068006820F00100CA6878
:1053C000926B12681060087ACA68926B1268526811
:1053D000801A4872087ACA68926B12685060C8686E
:1053E000806B0068006800F40020A8B9C868806B72
:1053F0000068006840F40020CA68926B1268106070
:10540000C868806B0068006840F00100CA68926B51
:105410001268106008687047C868806B0068006890
:1054200020F40020CA68926B12681060C868806B14
:105430000068006840F00100CA68926B1268106052
:105440004868E8E77047000010B50248FDF7CCFD5A
:1054500010BD0000B412002070B504462068056C31
:1054600000EB4110D0F8081B0C4EB54206D911F4E0
:10547000004F03D04FF40041C0F8081B2046FEF750
:10548000A5F9B54208D92069012805D104F2C44222
:105490000121206802F08EFD002070BD0A30544FBB
:1054A0002DE9F04104460D462368196C03EB4510C5
:1054B000D0F8082B276920264FF4004C012F08D084
:1054C0002F4FB9424BD112F4004F3ED0C0F808CB59
:1054D00053E02C4B12F0080F07D099424DD912F42B
:1054E000004F4AD0C0F808CB47E012F0200F02D09E
:1054F000C0F8086B41E012F0280F3ED1994205D95F
:1055000012F4004F02D0C0F808CB36E005EBC5011D
:1055100004EB810101F51F71D0F8100BCA69C0F3CB
:105520001200101A086225B98A693AB10A69104452
:105530000861E9B22046FDF726FC1EE004F2C442F1
:105540000121206802F036FDF3E712F0200F01D0B0
:10555000C0F8086BE9B22046FDF715FC0DE045B92F
:10556000D4F8940228B904F2C4420021184602F08B
:1055700021FDE9B22046FDF706FC0020BDE8F081E0
:105580000A31544F0A30544F2DE9F84F07460E4662
:10559000D7F8008006EBC60007EB800000F13C0462
:1055A000A169206A884202D90120BDE8F88F081A53
:1055B000E168814200D20846C01C4FEA900A08EB1D
:1055C000461915E0151AE268AA4200D21546E81CF1
:1055D0004FEA900A387C0090ABB2F2B240462169A3
:1055E00003F098F8206928442061206A284420624A
:1055F000D9F8180980B2504505D3A269206A9042B3
:1056000001D2002ADED1216AA06988420AD806F0B8
:105610000F00012101FA00F0D8F8341821EA000047
:10562000C8F834080020BDE8F88F00002DE9F041EB
:105630002DED048B04460D4616461F46B0EE408AFB
:10564000F0EE608AB0EE419A0A48A0660A48E06629
:10565000B0EE491AF0EE680AB0EE480A3B46324610
:1056600029462046D4F868C0E047BDEC048BBDE86D
:10567000F081000061B1000875B100080B480078A6
:1056800000EE100AB8EE400A094880ED040AB5EEB3
:10569000000A80ED060A9FED070A074880ED190A07
:1056A0009FED060A024880ED050A70473802002087
:1056B000C43B002000002042342C00200000704237
:1056C0007948406879490860774800898880784837
:1056D000408900EE100AB8EE400A084680ED040A40
:1056E000808800EE100AB8EE400A084680ED050AF0
:1056F000D0ED050A6F48007800EE100AB8EE400AB7
:10570000F4EEC00AF1EE10FA08DB6A48007800EE09
:10571000100AB8EE400A084680ED050A6648007D8A
:10572000C0F3001098B1654890ED010AF2EE0C0A42
:10573000B4EEE00AF1EE10FA09DD9FED610A61486E
:1057400080ED180A9FED600A80ED190AABE05D4814
:105750000078072809D19FED5D0A5A4880ED180AA4
:10576000B2EE040A80ED190A9DE0504890ED040A5B
:10577000DFED570AB4EE600AF1EE10FA09D19FEDA1
:10578000550A504880ED180A9FED530A80ED190A1A
:1057900089E0464890ED040ADFED4B0AB4EE600A5A
:1057A000F1EE10FA09D19FED4D0A464880ED180A36
:1057B0009FED4B0A80ED190A75E03C4890ED040A14
:1057C000DFED480AB4EE600AF1EE10FA09D19FED60
:1057D000460A3C4880ED180A9FED410A80ED190AFF
:1057E00061E0324890ED040ADFED400AB4EE600A51
:1057F000F1EE10FA09D19FED3E0A324880ED180A09
:105800009FED370A80ED190A4DE0284890ED040A13
:10581000DFED380AB4EE600AF1EE10FA09D19FED1F
:10582000360A284880ED180A9FED2D0A80ED190AE6
:1058300039E01E4890ED040ADFED300AB4EE600A4C
:10584000F1EE10FA09D19FED2E0A1E4880ED180ADC
:105850009FED230A80ED190A25E0144890ED040A13
:10586000DFED280AB4EE600AF1EE10FA08D090EDF0
:10587000040ADFED240AB4EEE00AF1EE10FA09DDC5
:105880009FED0F0A0F4880ED180A9FED110A80ED79
:10589000190A08E09FED1A0A0A4880ED180A9FEDE0
:1058A000100A80ED190A7047803F0020C43B002099
:1058B000733F002038020020DC4C0020E83B002031
:1058C0000000FA45342C0020000048420000FA4451
:1058D000000034420080894500000C4200C08F4522
:1058E0000000204200005C4200009645000070422B
:1058F00000A0A5450000A0420020CB450000C84202
:105900000020E4450000F0423EB505460C4600206C
:10591000029001900090012027490870FDF706F9D8
:10592000264908600846006825490968401A254943
:1059300008602088029060880190A0880090BDF8DF
:10594000080000EE100AB8EE400ADFED1F0A80EEF4
:10595000201A1E4880ED011A90ED010AF2EE090AA4
:1059600070EE600A9FED1A1A80EE810ADFED160ACA
:1059700020EE200ABCEEC00A10EE100A134908738C
:10598000BDF8040000EE100AB8EE400ADFED0E0A82
:1059900080EE201A0F4880ED031ABDF8000000EEDB
:1059A000100AB8EE400ADFED080A80EE201A094816
:1059B00080ED021A3EBD00003902002044020020A2
:1059C000480200203C0200200000C842E83B0020C2
:1059D00034333341C43B00201A48B0F90800002892
:1059E00003DD1848B0F9080003E01648B0F90800D4
:1059F00040423C2802DC0120134908701148B0F9EC
:105A00000800B0F5257F1BD10F480078C0B10020F9
:105A10000D4908700D48007803280AD10B4890F80A
:105A20006800404240B2094981F8680001200870CE
:105A300006E006480078012802D1032003490870D7
:105A400070470000DC4C0020E8000020342C0020CF
:105A50001A48C08838B11948018919480186174881
:105A6000C18817484186164890ED0A0A408E4000CA
:105A700000EE900AF8EEE00A9FED121A00EEC10A5D
:105A80000F4880ED0A0A90ED0A0AB5EEC00AF1EE61
:105A900010FA03D29FED0C0A80ED0A0A0848008E26
:105AA00000EE100AB8EE400A0548D0ED0A0A30EEC2
:105AB000600ABDEEC00A80ED0B0A7047733F0020FC
:105AC0007C2D00206F12833A000000000948007B03
:105AD000C0F38000084908700846007828B10748DC
