:020000040800F2
:10000000505B00205D02000827370008AF30000871
:1000100025370008010900085544000800000000C9
:100020000000000000000000000000009D0100082A
:10003000DF0A000800000000F9010008893A000802
:1000400077020008770200087702000877020008AC
:10005000770200087702000877020008770200089C
:100060007702000877020008770200086509000897
:10007000710900087D090008890900089509000830
:10008000A1090008AD090008770200082909000845
:1000900005090008110900081D0900087702000879
:1000A000770200088D3B00087702000877020008FD
:1000B000770200087702000877020008770200083C
:1000C000770200087702000877020008770200082C
:1000D00077020008714300087D430008954300083B
:1000E000770200087702000877020008770200080C
:1000F000770200087702000877020008B9090008B3
:1001000077020008770200087702000877020008EB
:100110001D3E0008353E00087702000877020008FF
:1001200077020008C5090008D10900087702000815
:1001300077020008770200087702000859090008D2
:1001400035090008410900084D0900087702000838
:1001500077020008DD090008E9090008AD4300083E
:10016000770200087702000877020008770200088B
:1001700077020008770200087702000800000000FC
:100180007702000877020008DFF80CD000F0A6FB29
:100190000048004755600008505B00202C4B196850
:1001A0000868B0E8F04F80F30988BFF36F8F4FF015
:1001B000000080F3118870470000000008480068C4
:1001C000006880F308884FF0000080F3148862B65E
:1001D00061B6BFF34F8FBFF36F8F00DF00BF00BF6B
:1001E00008ED00E0DFF80C00016841F470010160E7
:1001F000704700BF88ED00E0EFF30980BFF36F8F19
:10020000134B1A681EF0100F08BF20ED108A20E96A
:10021000F04F106009B44FF0500080F31188BFF325
:100220004F8FBFF36F8F07F025FB4FF0000080F377
:10023000118809BC19680868B0E8F04F1EF0100F6B
:1002400008BFB0EC108A80F30988BFF36F8F704746
:100250008C000020EFF305807047000006488047BF
:1002600006480047FEE7FEE7FEE7FEE7FEE7FEE79B
:10027000FEE7FEE7FEE7FEE7393B000889010008DC
:100280002DE9F05F0546002092469B4688460646CB
:10029000814640241BE0284641464746224600F05E
:1002A0009EF953465A46C01A914110D3114618463A
:1002B000224600F085F92D1A67EB01084F462246C9
:1002C0000120002100F07CF917EB00094E41201EAF
:1002D000A4F10104DFDC484631462A464346BDE826
:1002E000F09F40EA01039B0703D009E008C9121FF1
:1002F00008C0042AFAD203E011F8013B00F8013BE0
:10030000521EF9D27047D2B201E000F8012B491E0B
:10031000FBD270470022F6E710B513460A460446A2
:100320001946FFF7F0FF204610BD2DE9FE4F80462D
:1003300081EA0300C00F0C46009021F0004123F039
:100340000045B8EB0200A94105D24046214690463F
:100350001C460B46024623F00040104347D0270DB1
:10036000C7F30A00C3F30A510290401A01904028D3
:100370006BDAC3F3130040F4801B0098924620B15F
:100380000023D2EB030A63EB0B0B01985946C0F133
:100390004002504600F014F906460D4650465946B4
:1003A000019A00F02CF910EB08006141002487EA63
:1003B000115284EAE7731A4340D0009A62B3019A5B
:1003C000012A4FEA075215DC001B61EB02014FF0D6
:1003D000004202EA0752CDE90042001C41F58011BB
:1003E00032462B4600F02CF903B0BDE8F08F4046B2
:1003F0002146F9E7001B61EB0201001C41F5801367
:1004000000185B412018A2F5001747EB030140EAF2
:10041000D570B6196D4111E06D084FEA360645EA10
:10042000C0754FEA0752001B61EB0201001C41F549
:10043000801149084FEA30000019514132462B46DD
:1004400003B0BDE8F04F00F0ECB800980122400086
:100450000023D0EB020263EBE073009821464FEAE1
:10046000E074B8EB000061EB0401E9E783F00043BE
:100470005BE781F0004158E72DE9FE4F81EA030474
:1004800004F0004421F0004100944FF0000B23F0F1
:10049000004350EA01045ED052EA03045BD0C3F388
:1004A0000A54C1F30A552C44A4F2F3340194A0FB7E
:1004B0000254C1F3130141F48011C3F3130343F455
:1004C000801301FB024400FB034E840A970A44EAAE
:1004D000815447EA8357A4FB076802958D0A05FB00
:1004E00007854FEA932C04FB0C542705029D4FEA25
:1004F000065847EA1637B5EB08056EEB070C870E72
:10050000920E47EA811742EA8312A7FB0201B6EB7B
:100510000B0164EB00042B0D43EA0C335E1844EB33
:100520001C50DA465146E7FB0201C5F313044FEABB
:100530000B3343EA14534FEA0432019C43EA0603A7
:10054000A4F10C040294009CCDE900B400F078F80A
:1005500003B0BDE8F08F00200146F9E770B5C1F3A4
:100560000A5201F000450024C1F3130140F2FF33A9
:1005700041F480119A4201DA002070BD40F2334309
:100580009A42A2F2334203DC524200F028F800E023
:1005900090402C43F1D0404270BD00F0004230F05A
:1005A00000400AD0C10D01F56071C0F3160042EAA7
:1005B0000151C208400711437047002001467047AF
:1005C000202A04DB203A00FA02F100207047914013
:1005D000C2F1200320FA03F3194390407047202A08
:1005E00004DB203A21FA02F00021704721FA02F3DD
:1005F000D040C2F120029140084319467047202A9A
:1006000006DBCB17203A41FA02F043EAE07306E03A
:1006100041FA02F3D040C2F120029140084319464A
:10062000704710B5141E73F1000408DA401C41F144
:10063000000192185B411A4301D120F0010010BD66
:100640002DE9F04D92469B4611B1B1FA81F202E0DC
:10065000B0FA80F220329046FFF7B2FF04460F4610
:1006600040EA0A0041EA0B0153465A46084313D0B8
:10067000114653EA010019D0C8F140025046FFF775
:10068000AEFF05460E46504659464246FFF798FFD4
:10069000084305D0012004E020463946BDE8F08D2E
:1006A0000020054346EAE0762C4337430A98630569
:1006B000E40AA0EB08000022FD0A44EA47540A308D
:1006C00002D500200146E9E7010510196941DDE97D
:1006D000084500196941BDE8F04DA2E72DE9F04D4C
:1006E00081EA030404F0004B21F0004514464FF06A
:1006F000000A23F0004150EA050220D054EA01022A
:100700001DD0C5F30A570246C5F31303C1F3130006
:10071000C1F30A5640F4801543F48013A7EB060892
:10072000101BD64608F2FD3873EB050002D308F122
:10073000010801E092185B41B8F1000F03DA0020D4
:100740000146BDE8F08D00204FF480110646844636
:100750000EE0171B73EB050705D3121B63EB0503B4
:1007600006434CEA010C49084FEA300092185B41FD
:1007700050EA0107EDD152EA030012D082EA0400E8
:1007800083EA0501084305D0101BAB4106D20122C4
:10079000002306E000224FF0004302E06FF0010268
:1007A00053101AEB06004CEB085110EB0A0041EB1A
:1007B0000B01BDE8F04DFFF734BF70B521F00043E9
:1007C00003430CD0C1F30A550024D5EB040564EBB8
:1007D0000403D617AD1AB34102DB0020014670BDF9
:1007E000201841EB025170BD2DE9F04D00231A464F
:1007F0001B1A8A4103DB00200146BDE8F08DC1F3DE
:100800000A52C1F3130141F480154FF0000BD107D8
:1008100002D100186D41521E0027044640F2FF111C
:10082000384601EB620A3E468046024600204FF4FD
:100830008011FFF7D4FEC2197141BB1846EB0100CD
:10084000B4EB030C75EB000C04D3E41A65EB000564
:1008500017460E46241908F101006D4180463428E0
:10086000E3DDF91946EB0600091BA84103D24FF05E
:10087000FF32134601E0002213461BEB070046EB54
:100880000A51BDE8F04DFFF7CCBE0EB5C10F80EAAE
:10089000E0700844CA07002140F233438DE80E009F
:1008A0000A460B46FFF7CCFE03B000BD30B5041E70
:1008B00071F1000404DB4FF00044404264EB01019D
:1008C000141E73F1000405DB1C464FF00043524236
:1008D00063EB0403994208BF904230BD064C074DBC
:1008E00006E0E06840F0010394E807009847103400
:1008F000AC42F6D3FFF74CFCD8870008F887000815
:10090000FEE70000014800F0E5BA0000AC07002057
:10091000014800F0DFBA0000AC070020014800F0F9
:10092000D9BA0000AC070020014800F0D3BA00009B
:10093000AC070020014800F0CDBA0000D407002029
:10094000014800F0C7BA0000D4070020014800F0B9
:10095000C1BA0000D4070020014800F0BBBA000073
:10096000D4070020014800F06FBE00007C0B00207F
:10097000014800F069BE0000BC0D0020014800F0F5
:1009800063BE0000BC0A0020014800F05DBE00000C
:100990001C0E0020014800F057BE00001C0B002078
:1009A000014800F051BE0000FC0C0020014800F09E
:1009B0004BBE00005C0D0020014800F045BE000069
:1009C000DC0B0020014800F03FBE00007C0E002040
:1009D000014800F039BE00003C0C0020014800F046
:1009E00033BE0000DC0E0020014800F02DBE0000E8
:1009F0009C0C002001680A4BCAB2103AA3FB0232D9
:100A00001209084B9B5CC365032A04D96FF30901E3
:100A1000091D816502E06FF309018165806D7047F2
:100A2000ABAAAAAA6C860008014600208A6A8B69D4
:100A3000002B0FD0B3F5005F1DD08AB3012A30D050
:100A4000022A2ED0032A04D1C96A11F0807F00D077
:100A5000012070471AB1012A07D0022AF9D1C96AC8
:100A600011F0807FF5D001207047C96AB1F1C07FD5
:100A7000FAD1012070475AB1012A0BD0022A07D0BF
:100A8000032AF7D1C96AB1F1C07FF3D101207047C1
:100A900001207047C96A11F0807FFAD001207047A9
:100AA000FFE70120704710B4D0F800C0DCF8004028
:100AB00024F48024CCF80040D0F800C0CCF80430F6
:100AC0008368402B05D0036899600068C26010BC41
:100AD000704703689A600068C16010BC7047704737
:100AE000704790F82020012A07D0022A05D0416AD9
:100AF00041F480214162012070470068426911433E
:100B000041610020704770B490F82040D0F800C0D8
:100B1000DCF808C0012C08D0022C06D0416A41F450
:100B20008021416270BC012070470CF080640CF0A1
:100B300000652C4302D11CF0805F5FD0CCF3016CC8
:100B4000BCF1020F06D9416A41F40001416270BC58
:100B500001207047012404FA0CF41C608B684FF4E8
:100B6000C0749BB1CD6804EB0C162B434D6843EA6F
:100B7000C5030568AB514FF4C273066803EB0C1351
:100B80000D69F550097D012909D00DE00D88CB686C
:100B900004EB0C1643EA45530568AB51EBE70168DB
:100BA000CD5845F48075CD501179D379557941EA06
:100BB000036193791B0443EA052319434FF4C67577
:100BC000036805EB0C1559511178D37841EA03619C
:100BD000937852781B0443EA022211434FF4C47302
:100BE000026803EB0C13D150016804EB0C100A5897
:100BF00042F001020A5070BC00207047416A41F483
:100C00000011416270BC01207047000090F8202064
:100C1000012A07D0022A05D0416A41F480214162AD
:100C2000012070474248D0F8002242F00102C0F88B
:100C30000022D0F8002222F47C52C0F80022D0F822
:100C400000224B6A42EA0322C0F800220A7D0123F7
:100C500002F01F0203FA02F2D0F81C329343C0F8EC
:100C60001C32CB69D3B9D0F80C329343C0F80C32A4
:100C7000B1F80CC04B686CF31F43D1F814C000EB03
:100C8000CC0CCCF84032B1F808C00B686CF31F43B1
:100C9000D1F814C000EBCC0CCCF84432CB69012B5A
:100CA0001AD1D0F80C321343C0F80C32B1F800C09E
:100CB0004B686CF31F43D1F814C000EBCC0CCCF89C
:100CC0004032B1F808C0CB686CF31F43D1F814C0B0
:100CD00000EBCC0CCCF844328B697BB1D0F80432F9
:100CE0001343C0F804320B6973B1D0F814321343C4
:100CF000C0F81432096A01290CD010E0D0F804328F
:100D00009343C0F80432EEE7D0F814329343C0F8AE
:100D10001432EFE7D0F81C121143C0F81C12D0F8BF
:100D2000001221F00101C0F80012002070470000FD
:100D300000640040704710B490F820C0BCF1010F6F
:100D400009D0BCF1020F06D0416A41F48021416212
:100D500010BC0120704739B1D0F800C0DCF810C0D9
:100D60001CF0030F7DD006E0D0F800C0DCF80CC00A
:100D70001CF0030F7BD04FF4D87C04680CEB011CF3
:100D800054F80C4004F004049460002C7DD00468F6
:100D900054F80C40E4085460046854F80CC0CCF3D8
:100DA000400CC2F80CC04FF4DA7C04680CEB011C58
:100DB00054F80C4004F00F041461046854F80C401B
:100DC000C4F307249461046854F80CC04FEA1C4C27
:100DD000C2F814C04FF4DC72D0F800C002EB01126C
:100DE0005CF802C083F800C0D0F800C05CF802C014
:100DF0004FEA1C2C83F801C0D0F800C05CF802C098
:100E00004FEA1C4C83F802C0D0F800C05CF8022006
:100E1000120EDA704FF4DE72D0F800C002EB01124D
:100E20005CF802C083F804C0D0F800C05CF802C0CF
:100E30004FEA1C2C83F805C0D0F800C05CF802C053
:100E40004FEA1C4C83F806C0D0F800C05CF80220C2
:100E5000120EDA71F9B10068016941F020010161F7
:100E600002E00BE003E010E010BC00207047416A94
:100E700041F40011416210BC01207047416A41F405
:100E80000011416210BC01207047046854F80C4006
:100E9000640D146080E70068C16841F02001C16002
:100EA000DEE70246002092F82010012901D0022935
:100EB0000FD111688A6812F0806F00D001208A6813
:100EC00012F0006F00D0401C896811F0805F00D0E4
:100ED000401C70472DE9F05F0546002428684669EC
:100EE000D0F804908768D0F80CA0D0F810B0D0F8F3
:100EF000188016F0010F54D017F0010F17D0012100
:100F0000816017F0020F03D0284600F033FB0EE09B
:100F100017F0040F02D04FF4006408E017F0080F38
:100F200002D04FF4805402E0284600F022FB17F470
:100F3000807F19D029684FF48070886017F4007F93
:100F400003D0284600F018FB0EE017F4806F02D0A3
:100F500044F4005408E017F4006F02D044F48044D5
:100F600002E0284600F007FB17F4803F19D02968FB
:100F70004FF48030886017F4003F03D0284600F01B
:100F8000FDFA0EE017F4802F02D044F4004408E08C
:100F900017F4002F02D044F4803402E0284600F019
:100FA000ECFA16F0080F07D01AF0100F04D044F432
:100FB000007429681020C86016F0040F4FF008076D
:100FC00007D01AF0080F04D02868C760284600F040
:100FD000FDF916F0020F07D02868C06810F0030F63
:100FE00002D0284600F0F4F916F0400F07D01BF0AD
:100FF000100F04D044F4806429681020086116F0B2
:10100000200F07D01BF0080F04D02868076128467E
:1010100000F07AFA16F0100F07D02868006910F077
:10102000030F02D0284600F070FA16F4003F08D0F3
:1010300019F0100F05D0296810204860284600F0EC
:1010400065FA16F4803F07D019F0080F04D028681D
:101050004760284600F093FA16F4004F4AD019F082
:10106000040F44D016F4807F04D018F0010F01D093
:1010700044F0010416F4007F04D018F0020F01D0F0
:1010800044F0020416F4806F04D018F0040F01D06D
:1010900044F0040416F4006F29D018F0700F26D025
:1010A00008F07000402815D006DC102809D0202850
:1010B0000AD0302816D10AE050280ED0602811D16D
:1010C0000EE044F008040DE044F010040AE044F09F
:1010D000200407E044F0400404E044F0800401E010
:1010E00044F480742868816921F070018161296865
:1010F00004204860002C05D0686A204368622846B6
:10110000FFF718FEBDE8F09F70B50446002C03D031
:1011100094F8200010B104E0012070BD204600F0DA
:10112000A7F82068016821F00201016000F060FD6D
:101130000546206840684FF0050610F0020F11D0F8
:1011400000F056FD401B0A2807D9606A40F40030C1
:10115000606284F82060012070BD2068406810F053
:10116000020FEDD12068016841F00101016000F03B
:101170003FFD05462068406810F0010F11D100F0D6
:1011800037FD401B0A2807D9606A40F400306062CE
:1011900084F82060012070BD2068406810F0010FC5
:1011A000EDD0207E01283FD02068016821F0800129
:1011B0000160607E01283DD02068016821F0400177
:1011C0000160A07E01283BD02068016821F0200149
:1011D0000160E07E012839D02068016841F01001EB
:1011E0000160207F012837D02068016821F00801C4
:1011F0000160607F012835D02068016821F004017A
:101200000160E168A06862690843216911430843ED
:101210006168491E08432168C8610020606201209E
:1012200084F82000002070BD2068016841F0800132
:101230000160BEE72068016841F040010160C0E73D
:101240002068016841F020010160C2E72068016860
:1012500021F010010160C4E72068016841F0080135
:101260000160C6E72068016841F004010160C8E739
:10127000F0B587B0044614216846FFF74BF84E4B93
:101280004E48DFF830E11968D4F800C04B4A032516
:101290000226092710300024491CF4453AD1196070
:1012A000012907D1016841F000710160006800F078
:1012B00000700590106840F0080010601068CDE9DB
:1012C000005600F00800CDE9047069463C48CDE9BD
:1012D000024500F077FB00220521132000F014FDE9
:1012E000132000F003FD00220521142000F00CFD66
:1012F000142000F0FBFC00220521152000F004FD65
:10130000152000F0F3FC00220521162000F0FCFC63
:1013100016204BE0DFF8ACE0F44549D1D0F800C02E
:101320004CF0806CC0F800C0D0F800C001290CF06F
:10133000806CCDF814C0196007D1016841F00071CC
:101340000160006800F000700590106840F0020035
:101350001060106802AB00F0020005904FF440509E
:10136000CDE9000683E8B0006946174800F02AFB83
:10137000002205213F2000F0C7FC3F2000F0B6FC12
:1013800000220521402000F0BFFC402000F0AEFC10
:1013900000220521412000F0B7FC412000F0A6FC0E
:1013A00000220521422000F0AFFC422000F09EFC0C
:1013B00007B0F0BD00640040140000203038024047
:1013C000000C02400068004000040240704700002A
:1013D00070B5464E464C474DB0425BD104F10C030C
:1013E00005F1D8020021FFF7A6FC05F1D80000683E
:1013F000032808D0092837D0A0F58071F13908D02A
:10140000122941D136E03A4903200C3102F06AFA40
:101410003AE037480C30018849BA09B200EE101A98
:101420003549B8EEC00A81ED040A428852BA12B2B8
:1014300000EE102AB8EEC00A81ED050A828852BA81
:1014400012B200EE102AB8EEC00A81ED060A8079C9
:101450002A4938B1012802D0022802D014E0042021
:1014600000E0092008700FE0214920480C3104F009
:10147000E3FD09E0401EC0B220701D4900EB4000B2
:1014800005EBC0000C312EE03068416941F00201EB
:10149000416170BD1A4EB042FBD1154B194A1C3345
:1014A0000021FFF748FC17480168A1F20120082835
:1014B000EAD2DFE800F0050504050E0E0E0EE3E7A4
:1014C000C0B260700A4900EB400005EBC0001C315F
:1014D00009E0491FC8B2A07000EB4000044905EBC9
:1014E000C0001C31603004F075FDCDE7AC07002072
:1014F0001C0000207C0F0020FC1000206100002058
:10150000D40700208810002070477047704770B5DE
:10151000044694F82000012805D0606A40F40020B9
:101520006062012070BD022084F8200020680168FC
:1015300021F00101016000F05BFB05462068406876
:1015400010F0010F12D000F053FB401B0A2808D9FD
:10155000606A40F400306062052084F820000120B9
:1015600070BD2068406810F0010FECD1002060626F
:1015700070BD70477047704770477047704770473D
:101580002DE9F0410446A66D00F032FB054694F8C3
:1015900035000027022806D08020606584F834706A
:1015A0000120BDE8F0812068016821F0160101608A
:1015B0002068416921F080014161206C08B9A06C6C
:1015C00020B12068016821F00801016020680168ED
:1015D00021F0010101602068006810F0010F12D0B5
:1015E00000F006FB401B052808D92020606584F820
:1015F0003470032084F83500BDE8F081206800686D
:1016000010F0010FECD194F85C003F2101FA00F0DA
:10161000B06084F83470012084F835000020BDE803
:10162000F08190F83510022903D080214165012016
:101630007047052180F835100068016821F001012C
:1016400001600020704700002DE9F84304464FF088
:101650000008CDF8008076484FF416510068B0FBC2
:10166000F1F7A56D2E6894F85C00082101FA00F0EE
:10167000304211D02068026812F0040F0CD00268CA
:1016800022F00402026094F85C0001FA00F0A86005
:10169000606D40F00100606594F85C004FF0010956
:1016A00009FA00F0304209D02168496911F0800F31
:1016B00004D0A860606D40F00200606594F85C1092
:1016C00004208840304209D02168096811F0020FD7
:1016D00004D0A860606D40F00400606594F85C1070
:1016E00010208840304224D02168096811F0080F8A
:1016F0001FD0A8602068016811F4802F0DD0006809
:1017000010F4002F04D0A16C99B12046884710E056
:10171000216C71B1204688470BE0016811F4807F8D
:1017200003D1016821F008010160216C09B1204654
:10173000884794F85C1020208840304251D02168BE
:10174000096811F0100F4CD0A86094F835000528F6
:101750000DD02068016811F4802F32D0006810F499
:10176000002F29D0E16B59B32046884739E0206823
:10177000016821F0160101602068416921F08001B3
:101780004161206C08B9A06C20B12068016821F08B
:101790000801016094F85C003F2101FA00F0A860A4
:1017A00084F8348084F83590216D00293ED001B052
:1017B0002046BDE8F0430847616C09B120468847E0
:1017C0000FE0016811F4807F07D1016821F010015A
:1017D000016084F8348084F83590E16B09B12046CB
:1017E0008847606D002821D0606D10F0010F15D082
:1017F000052084F835002068016821F001010160AE
:101800000098401C0090B84204D82068006810F08E
:10181000010FF5D184F8348084F83590E16C00290B
:1018200004D001B02046BDE8F0430847BDE8F88386
:10183000180000202DE9F041044600F0D9F90546D2
:10184000DCB1002684F83460022084F8350020687A
:10185000016821F0010101602068006810F0010FAB
:1018600013D000F0C5F9401B052809D92020606578
:10187000032084F83500BDE8F0810120BDE8F08147
:101880002068006810F0010FEBD121680868234A36
:101890001040A3686268D4F810C01A43E36843EAB2
:1018A0000C031A4363691A43A3691A43E3691A4391
:1018B000236A1A431043626A042A03D1236BE26A43
:1018C0001A43104308602068406920F00701606AED
:1018D00040EA0105012704280ED1A06A0543E06A09
:1018E00050B12046FFF7A0F830B14020606584F881
:1018F00035700120BDE8F081206845612046FFF782
:1019000079F894F85C103F2202FA01F18160666573
:1019100084F835700020BDE8F08100003F8010F0B1
:1019200070B504460025A66D94F8340001280DD04A
:10193000012084F8340094F835C00020BCF1010F78
:1019400006D084F834000225284670BD022070BD00
:101950004FF0020C84F835C060652046FFF7A3F80D
:1019600094F85C003F2101FA00F0B0602068016843
:1019700041F0160101602068416941F08001416138
:10198000206C20B12068016841F0080101602068E6
:10199000016841F001010160D6E7000070B504461E
:1019A00000F026F90546B4F1FF3F02D00448007864
:1019B000044400F01DF9401BA042FAD370BD0000A2
:1019C000800000202DE9F84F0022DFF80082DFF8C8
:1019D0000092DFF800A24FF0030E0F27012303FA55
:1019E00002F50B682B40AB427DD1D1F804C0BCF1AD
:1019F000020F02D0BCF1120F12D14FEAD20C00EB51
:101A00008C0CDCF820605407E40E07FA04FB26EA8D
:101A10000B06D1F810B00BFA04F43443CCF8204094
:101A200006684FEA420C0EFA0CF4A64391F804B093
:101A30000BF0030B0BFA0CFB4BEA060606604E6834
:101A4000012E05D0022E03D0112E01D0122E11D15D
:101A50008668A643D1F80CB00BFA0CFB4BEA0606DD
:101A60008660466826EA05050E79C6F3001696409C
:101A700035434560C56825EA04048D6805FA0CFC09
:101A80004CEA040CC0F80CC0D1F804C01CF0805F14
:101A90007DD0D8F800C04CF4804CC8F800C0D8F80D
:101AA00000C00CF4804CCDF800C022F0030C0CF107
:101AB000804404F59834D4F808C895072D0F07FA28
:101AC00005F62CEA0606A0F1804CBCF5003C64D07B
:101AD000A0F1804CBCF5013C62D0A0F1804CBCF57B
:101AE000023C60D000E052E0A0F1804CBCF5033C29
:101AF0005CD0A0F1804CBCF5043C5AD0A0F1804CE5
:101B0000BCF5053C58D0A0F1804CBCF5063C56D045
:101B1000A0F1804CBCF5073C54D04FF0080C0CFAF7
:101B200005FC4CEA060CC4F808C8D9F800C02CEA39
:101B3000030C4C6814F4803F01D04CEA030CC9F844
:101B400000C0254CD4F800C02CEA030C4D6815F4F5
:101B5000003F01D04CEA030CC4F800C0DAF800C022
:101B60002CEA030C4C6814F4801F01D04CEA030CDF
:101B7000CAF800C0194CD4F800C02CEA030C4D6818
:101B800015F4001F01D04CEA030CC4F800C0521C2D
:101B9000102AFFF423AFBDE8F88F4FF0000CBEE72A
:101BA0004FF0010CBBE74FF0020CB8E74FF0030C0D
:101BB000B5E74FF0040CB2E74FF0050CAFE74FF07C
:101BC000060CACE74FF0070CA9E7000044380240D0
:101BD000003C0140083C0140043C01400C3C0140F9
:101BE000002A01D0816170470904816170470000BB
:101BF000014880687047000080000020024881682A
:101C000002781144816070478000002010B50B48B5
:101C1000016841F400710160016841F48061016074
:101C2000016841F480710160032000F0A1F80020F8
:101C300000F006F800F03EF8002010BD003C024025
:101C400010B5014688B00022192000F05DF8192077
:101C500000F04CF813480024016841F400310160A1
:101C6000006805A900F400300690684600F04CF9C1
:101C700000F07EF90C494000B0FBF1F10C480B4A32
:101C8000491E026040F2E732C0E90324C0E90114B2
:101C900000F0F4FB10B1012008B010BD044800F0C2
:101CA0001DFCF9E74438024040420F000044014067
:101CB0003C0F00200C4882B0016841F48041016073
:101CC000006800F4804000900748001F016841F060
:101CD000805101600068002200F0805000900F21C8
:101CE000901E02B000F010B84438024000280ADB11
:101CF00000F01F01012202FA01F14009800000F109
:101D0000E020C0F80011704710B4184B1B68C3F3F3
:101D10000223C3F1070CBCF1040F01D94FF0040CEE
:101D20001C1D072C01D2002300E0DB1E012404FA55
:101D30000CFCACF1010C0CEA0101994004FA03F32C
:101D40005B1E1A401143002806DB00F1E020090168
:101D500080F8001410BC704700F00F0000F1E02084
:101D6000090180F8141D10BC704700000CED00E064
:101D700000F00700064A11684FF6FF03194041EAD8
:101D8000002040F0FD7040F080601060704700005F
:101D90000CED00E02DE9F04704460D46002C13D071
:101DA000DFF85091D9F80000EFB200F00F00A84220
:101DB0000DD289F80070D9F8000000F00F00A84299
:101DC00005D00120BDE8F0870120BDE8F08720683C
:101DD000494E10F0020F14D010F0040F03D03068F9
:101DE00040F4E0503060207810F0080F03D03068E5
:101DF00040F4604030603068A16820F0F000084393
:101E00003060207810F0010F3ED060683B49012817
:101E100008D002280DD003280BD0096811F0020F5A
:101E200028D00AE0096811F4003F06D10120BDE87E
:101E3000F087096811F0007F19D0316821F00301A3
:101E400008433060FFF7D4FE80463068616800F0D8
:101E50000C00B0EB810F17D041F2883AFFF7C8FEB3
:101E6000A0EB0800504508D90320BDE8F087012009
:101E7000BDE8F0870120BDE8F0873068616800F0B8
:101E80000C00B0EB810FE9D1D9F8000000F00F0091
:101E9000A8420AD989F80070D9F8000000F00F00B4
:101EA000A84202D00120BDE8F087207810F0040F8E
:101EB00005D03068E16820F4E050084330602078B5
:101EC00010F0080F06D03068216920F4604040EA25
:101ED000C100306000F05CF83168094AC1F30311B9
:101EE000515CC840074908600020FFF7A9FE0020A8
:101EF000BDE8F087003C024008380240003802404C
:101F000054860008180000200F2202600B4A136854
:101F100003F003034360136803F0F0038360136866
:101F200003F4E053C360126802F46042D208026115
:101F30000348006800F00F0008607047083802404E
:101F4000003C024001480068704700001800002073
:101F500000B5FFF7F7FF04490968044AC1F382217D
:101F6000515CC84000BD000008380240648600088B
:101F700000B5FFF7E7FF04490968044AC1F342319D
:101F8000515CC84000BD000008380240648600086B
:101F900010B51548006810F00C01144823D004292E
:101FA00021D008291FD1124C216801F03F0221687D
:101FB00011F4800F08D021680023C1F38811A1FB20
:101FC0000001FEF75DF907E021680023C1F38811E5
:101FD000A1FB0001FEF754F92168C1F30141491C3E
:101FE0004900B0FBF1F010BD083802400024F400B5
:101FF000043802402DE9F84F0446002C10D0207818
:10200000FA4D10F0010F64D0F948016801F00C019D
:1020100004290DD0006800F00C00082803D011E05E
:102020000120BDE8F88FF348006810F4800F09D054
:10203000286810F4003F4CD06068002849D1012086
:10204000BDE8F88F6068B0F5803F14D0B0F5A02FE0
:1020500016D0286820F480302860286820F480207A
:102060002860606810B3FFF7C3FD0646286810F4C7
:10207000003F0ED02DE0286840F480302860F0E763
:10208000286840F480202860286840F48030286068
:10209000E7E7FFF7ADFD801B642802D90320BDE808
:1020A000F88F286810F4003FF3D012E0FFF7A0FD8E
:1020B0000646286810F4003F0BD0FFF799FD801BFF
:1020C000642802D90320BDE8F88F286810F4003F87
:1020D000F3D12078C84F10F0020F4FF0000856D00F
:1020E000C348016811F00C0F15D0006800F00C0017
:1020F000082804D1BF48006810F4800F0BD0E068B6
:1021000078B301203860FFF773FD0646286810F0A9
:10211000020F12D01DE0286810F0020F05D0E06811
:10212000012802D00120BDE8F88F2868216920F03D
:10213000F80040EAC100286029E0FFF759FD801B44
:10214000022802D90320BDE8F88F286810F0020F9A
:10215000F3D02868216920F0F80040EAC100286027
:1021600015E0FFE7C7F80080FFF742FD0646286844
:1021700010F0020F0BD0FFF73BFD801B022802D9A5
:102180000320BDE8F88F286810F0020FF3D1207803
:1021900010F0080F33D09948DFF864926169B9B143
:1021A00001210160FFF724FD0646D9F8000010F078
:1021B000020F24D1FFF71CFD801B022802D9032047
:1021C000BDE8F88FD9F8000010F0020FF2D016E049
:1021D000C0F80080FFF70CFD0646D9F8000010F0AB
:1021E000020F0CD0FFF704FD801B022802D9032048
:1021F000BDE8F88FD9F8000010F0020FF2D1207876
:1022000010F0040F73D04FF00009DFF8F8A1DAF8EE
:10221000000010F0805F0CD1DAF8000040F0805030
:10222000CAF80000DAF8000000F0805000904FF08B
:102230000109DFF8D4B1DBF8000010F4807F1AD177
:10224000DBF8000040F48070CBF80000FFF7D0FC12
:102250000646DBF8000010F4807F0CD1FFF7C8FCC5
:10226000801B022802D90320BDE8F88FDBF80000AC
:1022700010F4807FF2D0A068DFF890B1012818D068
:1022800005281DD0DBF8000020F00100CBF800008D
:10229000DBF8000020F00400CBF80000A06838B3A1
:1022A000FFF7A6FC0646DBF8000010F0020F14D082
:1022B0003CE0DBF8000040F00100CBF80000EDE767
:1022C000DBF8000040F00400CBF80000DBF8000071
:1022D00040F00100CBF80000E0E7FFF789FC811B2C
:1022E00041F28830814204D90320BDE8F88F26E00E
:1022F00005E0DBF8000010F0020FEED016E0FFF76B
:1023000077FC0646DBF8000010F0020F0ED0FFF756
:102310006FFC811B41F28830814202D90320BDE865
:10232000F88FDBF8000010F0020FF0D1B9F1010FC7
:1023300005D1DAF8000020F08050CAF80000A0694A
:10234000E8B32B49096801F00C0108296BD0022879
:1023500010D0C7F86080FFF74BFC0446286810F0E7
:10236000007F5ED0FFF744FC001B022855D90320F4
:10237000BDE8F88FC7F86080FFF73AFC064628688A
:1023800010F0007F0BD0FFF733FC801B022802D92E
:102390000320BDE8F88F286810F0007FF3D1216A90
:1023A000E069A26A0843616A4FF0FF33890103EBD9
:1023B000520241EA0241084394F82C1000E030E058
:1023C00040EA01610B48016001203866FFF710FC0C
:1023D0000446286810F0007F23D1FFF709FC001B9A
:1023E000022815D90320BDE8F88F1CE00038024010
:1023F000083802400438024000004742800E47423D
:10240000743802404038024000700040703802408A
:10241000286810F0007FE0D003E0286810F0007F0B
:10242000A0D10020DFE70120DDE77047704730B41E
:1024300090F83C20012A1ED0012480F83C40022262
:1024400080F83D200268D2F804C093682CF0700C2C
:102450000D6845EA0C0C23F0800349681943C2F863
:1024600004C00268916080F83D40002180F83C1073
:1024700030BC0020704730BC0220704710B50446C5
:10248000002C03D094F83D0010B107E0012010BDEE
:10249000002084F83C00204600F00CF8022084F86C
:1024A0003D00211D206801F077FB012084F83D00EC
:1024B000002010BD08B500680649884208D10648CA
:1024C000016841F080010160006800F08000009028
:1024D00008BD0000001C0040403802400168CA6886
:1024E00042F00102CA600068816801F00701062914
:1024F00003D0016841F0010101600020704770477E
:1025000070B50446206801694FF0000511F0020F14
:1025100017D0C16811F0020F13D0E91E016101202C
:1025200020772068806910F0030F03D02046FFF762
:10253000E6FF05E0204600F007F9204600F0C8F964
:1025400025772068016911F0040F18D0C16811F0D7
:10255000040F14D06FF0040101610220207720687D
:10256000806910F4407F03D02046FFF7C8FF05E0E4
:10257000204600F0E9F8204600F0AAF92577206807
:10258000016911F0080F18D0C16811F0080F14D0BC
:102590006FF008010161042020772068C06910F005
:1025A000030F03D02046FFF7AAFF05E0204600F006
:1025B000CBF8204600F08CF925772068016911F0EE
:1025C000100F18D0C16811F0100F14D06FF0100167
:1025D0000161082020772068C06910F4407F03D093
:1025E0002046FFF78CFF05E0204600F0ADF82046BE
:1025F00000F06EF925772068016911F0010F09D00C
:10260000C16811F0010F05D06FF001010161204692
:1026100000F060F92068016911F0800F09D0C168ED
:1026200011F0800F05D06FF0800101612046FFF7A7
:10263000FCFE2068016911F0400F09D0C16811F05B
:10264000400F05D06FF040010161204600F04CF9C9
:102650002068016911F0200F0BD0C16811F0200F24
:1026600007D06FF0200101612046BDE87040FFF700
:10267000DDBE70BD30B587B0044614216846FDF755
:1026800049FE2468002229490223B4F1804F11D069
:10269000274D2848AC4221D10C6844F002040C605C
:1026A000096801F00201059103210091CDE9013291
:1026B000694624E0086840F001000860086800935B
:1026C00000F001000590CDE901320120CDE90320A1
:1026D00069461948FFF776F907B030BD174DAC428F
:1026E00010D1086840F0080008600868694600F0EA
:1026F00008000590A0140090CDE901321048CDE902
:102700000323E7E70F4DAC42E6D10C6844F0020426
:102710000C60096801F002010591E9000091CDE922
:1027200001320921CDE903216946D3E7303802405F
:102730000004004000040240000002400008004085
:10274000000C024000180040704770B504460D466A
:1027500094F83C0001280DD0012684F83C6002204A
:1027600084F83D0042B1042A1AD0082A2DD00C2A40
:1027700053D13EE0022070BD2946206801F072FA74
:102780002068816941F0080181612068816921F038
:1027900004018161206881692A69114381613CE0FB
:1027A0002946206801F096FA2068816941F40061A9
:1027B00081612068816921F480618161206881697B
:1027C0002A6941EA0221816127E02946206801F057
:1027D000BDFA2068C16941F00801C1612068C16982
:1027E00021F00401C1612068C1692A691143C161F6
:1027F00013E02946206801F0E5FA2068C16941F438
:102800000061C1612068C16921F48061C1612068F3
:10281000C1692A6941EA0221C16184F83D60002052
:1028200084F83C0070BD10B50446002C03D094F829
:102830003D0010B107E0012010BD002084F83C00ED
:10284000204600F00DF8022084F83D00211D20688C
:1028500001F0A2F9012084F83D00002010BD000025
:1028600008B501681648B1F1804F0BD0154A914266
:1028700010D1016841F002010160006800F002001F
:10288000009008BD016841F001010160006800F09E
:102890000100F5E70C4A914207D1016841F00401BB
:1028A0000160006800F00400EAE7084A9142E8D1BC
:1028B000016841F040010160006800F04000DFE77E
:1028C000403802400004004000080040001800406A
:1028D0007047000000680349884201D1FFF78EB9B4
:1028E0007047000000440140704710B5044620685E
:1028F0004169C1F3C01194F83920212A0BD151B19B
:10290000416921F080014161206B08B1FEF738FE7A
:10291000204601F001FB20684169C1F3801194F861
:102920003A20222A0BD151B1416921F04001416185
:10293000606B08B1FEF724FE204601F0D2FA0020B9
:1029400010BD704710B5044622681068D1685269FE
:1029500000F00F03002B0AD110F0200F07D011F068
:10296000200F04D02046BDE8104001F0DEBA002B55
:102970006BD002F0010301F4907C53EA0C0364D0A5
:1029800010F0010F06D011F4807F03D0E36B43F009
:102990000103E36310F0040F06D012F0010F03D01F
:1029A000E36B43F00203E36310F0020F06D012F072
:1029B000010F03D0E36B43F00403E36310F0080F4F
:1029C00006D012F0010F03D0E26B42F00802E2637E
:1029D000E26B002A2ED010F0200F05D011F0200F4E
:1029E00002D0204601F0A1FA20684069C0F38010AF
:1029F000E16B11F0080F00D108B3204601F071FA25
:102A00002068416911F0400F15D0416921F0400163
:102A10004161606B58B118490165606BFEF701FEBA
:102A2000002807D0606B016DBDE8104008472046C4
:102A3000FFF787FF10BD2046FFF783FF10BD20463C
:102A4000FFF77FFF0020E06310BD10F0800F07D07C
:102A500011F0800F04D02046BDE8104001F054BCB6
:102A600010F0400FF0D011F0400FEDD02046BDE83F
:102A7000104001F044BA0000413E000870B5044621
:102A8000002C04D094F83900002510B106E0012094
:102A900070BD84F83850204600F022F8242084F8D5
:102AA00039002068C16821F40051C160204601F05E
:102AB0008BFA2068016921F4904101612068416925
:102AC00021F02A0141612068C16841F40051C160D0
:102AD000E563202084F8390084F83A00002070BDB6
:102AE0002DE9F04F87B0044614216846FDF712FC2B
:102AF000FF48FE4A10382368DFF8F4B301270221AB
:102B0000002506154FF003084FF0080E4FF040095E
:102B10004FF0006A93426FD1DBF8003043F400239A
:102B2000CBF80030DBF8002002F4002205920268A6
:102B300042F001020260026802F00102059202689E
:102B400042F0040202600068C34600F004000590F1
:102B50000220CDE90070CDE9027BF0466946E548E8
:102B6000CDF810E0FEF72EFF7000009001AA0220C1
:102B7000CDF8108082E881086946DF48FEF722FF21
:102B8000DFF87C83DD494046C8F80010C0E901A5A4
:102B9000C0E90356C8F81450C8F81850C8F81C50BB
:102BA000C8F820505746C8F82450FEF743FE08B135
:102BB000FDF796FFD24DD148C4F8348060353030EF
:102BC000C8F8384085E881020020C5E9030668613D
:102BD000A861E861286268622846FEF72BFE08B10A
:102BE000FDF77EFF2563002205213420AC63FFF74B
:102BF0008BF8342073E0FFE7C24A934275D1DBF8CB
:102C00000030002543F48013CBF80030DBF80020BF
:102C100002F480120592026842F004020260026827
:102C200002F004020592026842F0080202600068A5
:102C3000029700F0080005904FF48050CDE90001A4
:102C40000820CDE903808B466946AB48FEF7BAFE03
:102C50000420CDE9000B02970820CDE903806946E6
:102C6000A948FEF7AFFEDFF89882A44908F1C00832
:102C700030394046C8F80010C0E901A5C0E9035644
:102C8000C8F81450C8F81850C8F81C50C8F820509C
:102C90005746C8F82450FEF7CDFD08B1FDF720FFD8
:102CA00096489A4DC4F834807830C8F8384085E8A2
:102CB00081020020C5E903066861A861E861286215
:102CC00068622846FEF7B6FD08B1FDF709FF2563E7
:102CD000002205213520AC63FFF716F83520FFF7F9
:102CE00005F807B0BDE8F08FFFE7814ADFF820C2A2
:102CF000121D63455BD11368AB4643F010031360AC
:102D0000126802F010020592026842F001020260AD
:102D1000006800F0010005904FF4C0608DE8830169
:102D20000720049069467348FEF74CFEDFF8DC810B
:102D3000784908F160084046C8F80010C0E901A5CC
:102D4000C0E90356C8F81450C8F81850C8F81C5009
:102D5000C8F820505746C8F82450FEF76BFD08B15C
:102D6000FDF7BEFE694D6B48C4F83480C03578303D
:102D7000C8F8384085E88102C5E903B6C5F814B043
:102D8000C5F818B0C5F81CB0C5F820B02846C5F87D
:102D900024B0FEF74FFD08B1FDF7A2FE2563002227
:102DA00005212520AC63FEF7AFFF252097E7DFF86C
:102DB00068C163454ED1DBF8003043F40033CBF8F3
:102DC0000030DBF8002002F400320592026842F085
:102DD00001020260006800F0010005900C208DE8FF
:102DE00083010720049069464248FEF7EBFD434803
:102DF0004A4F48303860C7E901A5C7E903567D61ED
:102E0000BD61FD613D6238467D62FEF713FD08B18C
:102E1000FDF766FE6763BC63404F3848603760303B
:102E2000C7F80890C7E903567D61BD61FD613D6249
:102E30007D62C7E9000A3846FEF7FCFC08B1FDF7E1
:102E40004FFE2763002205212620BC63FEF75CFFAE
:102E5000262044E7DFF8C8C063457CD1DBF80030AA
:102E6000002543F48023CBF80030DBF8002002F487
:102E700080220592026842F002020260006800F0BF
:102E8000020005904FF440608DE883010720049014
:102E900069462448FEF796FDDFF88080174908F15F
:102EA000C00818394046C8F80010C0E901A5C0E9BB
:102EB0000356C8F81450C8F81850C8F81C50C8F881
:102EC00020505746C8F82450FEF7B4FC08B1FDF76F
:102ED00007FE0A48144DC4F834801830C8F838404A
:102EE00085E881020020C5E9030620E0004C00408F
:102EF00040380240000002400008024040600240AA
:102F0000BC0A002000500040000C0240DC0B0020F6
:102F1000001001404064024000440040FC0C0020CE
:102F200000480040000402401C0E002013E06861CD
:102F3000A861E861286268622846FEF77BFC08B158
:102F4000FDF7CEFD2563002205212720AC63FEF7A7
:102F5000DBFE2720C3E6DFF89CC063457FF4C1AEEB
:102F6000136843F020031360126802F020020592F8
:102F7000026842F004020260006800F0040005905C
:102F8000C0208DE8834169461B48FEF71BFD1C4F9E
:102F90001A484FF020683860C7E90185C7E9035631
:102FA0007D61BD61FD613D6238467D62FEF742FC98
:102FB00008B1FDF795FD6763BC63114F0F4860379B
:102FC0007830C7E903567D61BD61FD613D627D6278
:102FD00087E801033846FEF72DFC08B1FDF780FDB8
:102FE0002763002205214720BC63FEF78DFE4720A2
:102FF00075E6000000140140000802402864024009
:103000007C0E002037B582B00446134694F83A008F
:10301000202802D005B0022030BD039A002A36D005
:10302000002B34D094F83800012833D0012084F8E4
:103030003800A262A3850025E563222084F83A00C7
:10304000616B1648C863616B15480864616B15486D
:10305000C864606B05652068011D606BFEF760FC4D
:10306000206801684168019184F83850C16841F4D2
:103070008071C1602068416941F0010141612068AF
:10308000416941F04001416105B0002030BD05B00B
:10309000012030BD05B0022030BD00009B3E00087D
:1030A000D93E0008513E0008704770477047FEE760
:1030B0000F4810B50D4901600621416000214FF411
:1030C00000328160C0E903121201426101760122DF
:1030D00042768176C17601774177FEF715F80028B0
:1030E00003D0BDE81040FDF7FBBC10BD00640040FC
:1030F000AC0700200F4810B50D4901600621416062
:1031000000214FF400328160C0E9031212014261D4
:103110000176012242768176C17601774177FDF70B
:10312000F3FF002803D0BDE81040FDF7D9BC10BD67
:1031300000680040D4070020394808B5016841F410
:1031400000110160016801F400110091016841F46F
:10315000800101600068002200F4800000900521D9
:103160000B20FEF7D1FD0B20FEF7C0FD002205214C
:103170000C20FEF7C9FD0C20FEF7B8FD002205214A
:103180000D20FEF7C1FD0D20FEF7B0FD0022052148
:103190000E20FEF7B9FD0E20FEF7A8FD0022052146
:1031A0000F20FEF7B1FD0F20FEF7A0FD0022052144
:1031B0001020FEF7A9FD1020FEF798FD0022052142
:1031C0001120FEF7A1FD1120FEF790FD0022052140
:1031D0002F20FEF799FD2F20FEF788FD0022052104
:1031E0003920FEF791FD3920FEF780FD00220521F0
:1031F0003A20FEF789FD3A20FEF778FD00220521EE
:103200004520FEF781FD4520FEF770FD00220521D7
:103210004620FEF779FDBDE808404620FEF766BD72
:103220003038024010B5A4B004F03EF91C221D490C
:103230006846FDF756F80021684602F0F4FF1A4C84
:1032400018491C2220611C3107A8FDF74AF800210B
:1032500007A802F0E8FF134920601C2238310EA8AD
:10326000FDF73FF800210EA802F0DDFF0D49606078
:103270001C22543115A8FDF734F8002115A802F0DE
:10328000D2FF0849A0601C2270311CA8FDF729F864
:1032900000211CA802F0C7FFE06004F025F924B06B
:1032A00010BD0000C8850008000000202DE9F04F87
:1032B00087B014216846FDF72DF83C4800240168CA
:1032C00041F080010160016801F080010591016811
:1032D00041F001010160016801F0010105910168FF
:1032E00041F002010160016801F0020105910168ED
:1032F00041F010010160016801F0100105910168C1
:1033000041F008010160016801F0080105910168C0
:1033100041F0040101600068DFF8948000F00400CF
:103320004FF480550590002229464046FEF758FC90
:10333000DFF880904FF47066002231464846FEF771
:103340004FFCDFF874A0EF00002239465046FEF72C
:1033500047FCDFF868B00022C0215846FEF740FC69
:1033600000950125CDE90154694640460394FEF7D6
:1033700029FB0096CDE90154694648460394FEF7BF
:1033800021FB0097CDE90154694650460394FEF7AE
:1033900019FBC0200090CDE90154694658460394BA
:1033A000FEF710FB07B0BDE8F08F00003038024098
:1033B00000100240000C02400000024000040240E5
:1033C00010B588B01C216846FCF7A4FF16481549C3
:1033D000002401605321C0E9011444F61F61C0E9D3
:1033E00003148461FFF71FFA08B1FDF779FB602031
:1033F000CDE900040294002269460B480494FFF7CB
:10340000A4F908B1FDF76CFB042269460648FFF7F2
:103410009CF908B1FDF764FB0348FFF72BF908B0EE
:1034200010BD000000180040BC0800200B4810B57B
:103430000949016053214160002144F61F62C0E93F
:10344000021201618161FFF719F8002803D0BDE87D
:103450001040FDF745BB10BD001C0040FC080020DB
:1034600010B58AB0002407941C2168460894FCF724
:1034700051FF16484FF0804101605321C0E901140B
:1034800044F61F61C0E903148461FFF7CCF908B169
:10349000FDF726FB079407A90C480894FEF7C7FF21
:1034A00008B1FDF71DFB6020CDE900040294042261
:1034B000694606480494FFF748F908B1FDF710FB88
:1034C0000248FFF7D7F80AB010BD0000FC07002043
:1034D00010B58AB0002407941C2168460894FCF7B4
:1034E00019FF1B48194901605321C0E9011444F632
:1034F0001F61C0E903148461FFF795F908B1FDF776
:10350000EFFA079407A912480894FEF790FF08B154
:10351000FDF7E6FA602000904FF44870CDE9010411
:10352000082269460A480494FFF70FF908B1FDF72D
:10353000D7FA0C2269460648FFF707F908B1FDF7EC
:10354000CFFA0348FFF796F80AB010BD0004004018
:103550003C08002010B58AB0002407941C2168465E
:103560000894FCF7D7FE1748154901605321C0E9BC
:10357000011444F61F61C0E903148461FFF753F995
:1035800008B1FDF7ADFA079407A90E480894FEF7B5
:103590004EFF08B1FDF7A4FA602000904FF4487088
:1035A000CDE901040022694606480494FFF7CDF8EE
:1035B00008B1FDF795FA0348FFF75CF80AB010BDB3
:1035C000000800407C0800200C4810B50A49016042
:1035D0004FF4E1314160002181600C22C160C0E9FB
:1035E00004128161C161FFF749FA002803D0BDE8E8
:1035F0001040FDF775BA10BD004C00403C0900209A
:103600000C4810B50A4901604FF47A31416000213D
:1036100081600C22C160C0E904128161C161FFF7C1
:103620002DFA002803D0BDE81040FDF759BA10BDAF
:10363000005000407C0900200E4810B50C49016084
:103640000D4941604FF48051816000214FF4806248
:10365000C0E903120C22C0E90521C161FFF70EFA8F
:10366000002803D0BDE81040FDF73ABA10BD0000B5
:1036700000100140BC090020A08601000C4810B5D4
:103680000A4901604FF47A314160002181600C22C7
:10369000C160C0E904128161C161FFF7EFF9002840
:1036A00003D0BDE81040FDF71BBA10BD0044004038
:1036B000FC0900200C4810B50A4901604FF47A312A
:1036C0004160002181600C22C160C0E90412816167
:1036D000C161FFF7D3F9002803D0BDE81040FDF722
:1036E000FFB910BD004800403C0A00200C4810B54E
:1036F0000A4901604FF47A314160002181600C2257
:10370000C160C0E904128161C161FFF7B7F9002807
:1037100003D0BDE81040FDF7E3B910BD001401402F
:103720007C0A0020FEE7704730B4034C4466034C2B
:10373000846630BC02F09EBE756400088364000895
:103740000A489FED090A0B4980ED000A9FED080A1F
:1037500081ED3B0A9FED080A80ED060A9FED070AFE
:1037600080ED080A7047000000004842A4100020C5
:1037700000E0AB45FC10002000007042CDCCCC3EF8
:1037800030B51A490A78022A03D14968184A914289
:103790002BDA164B174D2C3B002493ED060A164AE4
:1037A00010EE101AA9420DDA01219FED141A1977B3
:1037B000147031EE400AD3ED080A20EE800A83ED42
:1037C000090A01E0197F59B11178491C11700021D3
:1037D00030F8115020F81150491CC9B20429F7D310
:1037E0001078322801D31C77147030BDD01000201F
:1037F0000000584100002042480000200000204204
:1038000030B52448244A8169914203DD9FED230AA3
:1038100080ED060A22490B7843B11E4B214D2C3313
:103820005C68AC4202DB1B7D012B08D000681E4B9C
:10383000984207D19FED1D0A81ED3B0A30BD9FEDF7
:103840001C0AF9E71B4B9FED1C0A9842F4D01B4B56
:10385000984202D19FED1A0AEEE7904202D19FED05
:10386000190AE9E7184A904202D19FED180AE3E7E6
:10387000174A904202D19FED170ADDE7164ADFEDA5
:10388000170A904202D0164A9042D5D1C1ED3B0AA8
:1038900030BD0000A4100020000070420000704203
:1038A000FC100020000058410000344200308E45DA
:1038B00000D004460000484200E0AB4500005C42F6
:1038C0000040B54500C0C1450000A0420020CB45E6
:1038D0000000C8420080ED450000F0420010EF45B6
:1038E00000007F430EB50022ADF80020ADF80420A3
:1038F000ADF8082003283AD10888ADF800004888C0
:10390000ADF804008888ADF80800BDF80000F2EEBC
:10391000071A00EE100A1748B8EE401A9FED140A75
:10392000C1EE000AB2EE091AC0ED010A30EEC11A6A
:10393000C1EE210A60EE800AFCEEE00A10EE901A59
:103940004170BDF8040000EE900A0A48F8EE600AE3
:103950002C3880EE801A80ED011ABDF8081000EEB8
:10396000901AF8EE600A80EE801A80ED031A0EBD00
:103970000000C842D01000204FF47A74204602F0B4
:10398000C9FBFBE700B500F049F82148DFED210A4B
:10399000037843B3204AA0F12C01B2EE041A012BA4
:1039A00026D0022B23D100BF91ED000AD1ED031ADE
:1039B00030EE610A30EE410A80ED020AB5EEC00A2F
:1039C000F1EE10FA01D2C0ED020A90ED022AD0ED1C
:1039D000011A82EE210A80ED040AB5EEC00AF1EE6A
:1039E00010FA0ED201E0C0ED020AC0ED040A00BDDB
:1039F00091ED010AD1ED021A30EE610A80ED030A61
:103A0000D2E710EE101A9142F1DD80ED041A00BDEC
:103A1000D0100020000000000000204170B51448C4
:103A2000144B0022057814480124416845B1134D18
:103A30002D785DB199420FDB057D012D03D00BE0A0
:103A4000027002750BE00225057008E00A4D0C4E6D
:103A50002C3DAD69B54201DC027000E00470994272
:103A600001DA027570BD074A9142FBDB047570BD37
:103A70006100002000005841D0100020FC10002000
:103A8000000020420000704110B5502080F31188E2
:103A9000BFF34F8FBFF36F8F04F088FB18B1044959
:103AA0004FF080500860002080F3118810BD0000A6
:103AB00004ED00E030B593B030216846FCF72AFCF5
:103AC00014210CA8FCF726FC19480025016841F0D8
:103AD00080510160006800F0805011901548016825
:103AE00041F4804101600068022400F4804011909C
:103AF00001200090000401908001CDE906400820DB
:103B00000890A820CDE9090404200B906846FEF730
:103B100071FA0CA90F2081E831004FF4A0500F90EA
:103B2000E002109005210CA8FEF734F913B030BD67
:103B300040380240007000401048016841F47001B4
:103B400001600F48016841F0010101600C4A002149
:103B50000832116002680B4B1A400260031D0A4ACA
:103B60001A60026822F48022026005480C3001606D
:103B700002495806803908607047000088ED00E06F
:103B800000380240FFFFF6FE103000240148FEF727
:103B9000B7BC00003C0F0020F0B402682C4B2D4C49
:103BA0002D4D2E4EDFF8B8C098420AD0B0F1804FAC
:103BB00007D0A04205D0A84203D0B04201D0604552
:103BC00003D122F070024F683A43984228D0B0F1F6
:103BD000804F25D0A04223D0A84221D0B0421FD090
:103BE00060451DD0A0F18044B4F5A03418D0A0F1F8
:103BF0008044B4F5A23413D0A0F18044B4F5A434C9
:103C00000ED0A0F18044B4F5C05409D0A0F1804496
:103C1000B4F5E05404D0A0F18044B4F5005403D1CD
:103C200022F44072CC6822434C6922F08002224385
:103C300002608A68C2620A688262984201D0604566
:103C400001D10969016301214161F0BC70470000A5
:103C5000000001400004004000080040000C00404B
:103C60000004014070B4026A22F001020262036A99
:103C70004268D0F818C02CF0700C2CF0030C0C68C3
:103C800044EA0C0C23F002038C6823430F4C104DC4
:103C9000A04201D0A84205D123F00803CE683343E7
:103CA00023F00403A04201D0A84207D122F480727D
:103CB00022F400724C6922438C6922434260C0F8AE
:103CC00018C049684163036270BC7047000001403E
:103CD0000004014070B4026A22F010020262036A1A
:103CE0004268D0F818C02CF4E04C2CF4407C0C68EE
:103CF0004CEA042C23F020038C6843EA0413114C93
:103D0000114DA04201D0A84206D123F08003CE6815
:103D100043EA061323F04003A04201D0A84209D190
:103D200022F4806222F400624C6942EA84028C69C7
:103D300042EA84024260C0F818C0496881630362A5
:103D400070BC7047000001400004014070B4026A7A
:103D500022F480720262036A4268D0F81CC02CF020
:103D6000700C2CF0030C0C6844EA0C0C23F4007368
:103D70008C6843EA0423114C114DA04201D0A842A3
:103D800006D123F40063CE6843EA062323F480635C
:103D9000A04201D0A84209D122F4805222F400525C
:103DA0004C6942EA04128C6942EA04124260C0F88B
:103DB0001CC04968C163036270BC704700000140C9
:103DC0000004014010B4026A22F480520262D0F86A
:103DD00020C04268C36923F4E04323F440730C68B5
:103DE00043EA04232CF4005C8C684CEA043CA0F108
:103DF0008044B4F5803404D0A0F18044B4F582341A
:103E000004D122F480424C6942EA84124260C361C8
:103E100049680164C0F820C010BC704710B5044860
:103E2000FEF790FDBDE81040014800F0EBBA00003D
:103E30003C0900200148FEF785BD00007C090020F8
:103E400010B5806B0021C185C184FEF77AFD10BDDD
:103E500070B5846B20684069C0F3C01094F83910C5
:103E60000025212904D118B1E584204600F054F83A
:103E700020684069C0F3801094F83A10222904D1D8
:103E800018B1E585204600F02CF8E06B40F01000FA
:103E9000E0632046FEF755FD70BD10B50146886B06
:103EA0000968096811F4807F13D10021C185016878
:103EB000CA6822F48072CA6001684A6922F001026D
:103EC0004A6101684A6922F040024A61202180F873
:103ED0003A10FFF7E9F810BD10B5806BFFF7E5F871
:103EE00010BD0168CA6822F49072CA6001684A690C
:103EF00022F001024A61202180F83A10704710B583
:103F00000168CA6822F04002CA60202180F8391096
:103F1000FFF7CCF8002010BD0168CA6822F0C0028B
:103F2000CA60202180F83910704710B590F83A1017
:103F3000222901D0022010BD8168B1F5805F11D027
:103F4000016919B30168496801F07F02816A4B1C5D
:103F500083620A70C18D491E0904090CC1851CD0F9
:103F6000002010BD816A02693AB102685268D2B27B
:103F70000A80816A491C8162ECE702685268C2F3D8
:103F800008020A80816A891C8162E3E701684A6845
:103F9000816A4B1C83620A70DCE70168CA6822F000
:103FA0002002CA600168CA6822F48072CA6001688F
:103FB0004A6922F001024A61202180F83A10FFF795
:103FC00073F8002010BD00002DE9F0410446206880
:103FD0000169E26821F44051114301612169A0683F
:103FE000E26908436169114301432068C26822F411
:103FF000037222F414421143C16020684169A2692E
:1040000021F4407111434161E069BC4ABC49BD4D96
:104010003226B0F5004F5ED02068884202D0904230
:1040200040F01281FDF7A4FF00EBC00101EB00108E
:1040300061688900B0FBF1F7FDF79AFF00EBC00162
:1040400001EB001061688900B0FBF1F0A5FB0010E6
:1040500040096FF01801484307EB800006EB0010A1
:10406000A5FB0010400900F0F007FDF781FF00EB11
:10407000C00101EB001061688900B0FBF1F0A5FB05
:104080000010400907EB0017FDF772FF00EBC001BD
:1040900001EB001061688900B0FBF1F8FDF768FFE3
:1040A00000EBC00101EB001061688900B0FBF1F08A
:1040B000A5FB001040096FF01801484308EB800091
:1040C00006EB0010A5FB00102168C0F34310384434
:1040D0008860BDE8F0812068884201D0904259D1C3
:1040E000FDF746FF00EBC00101EB001061684900DD
:1040F000B0FBF1F0A5FB001040090701FDF738FF08
:1041000000EBC00101EB001061684900B0FBF1F861
:10411000FDF72EFF00EBC00101EB001061684900C4
:10412000B0FBF1F0A5FB001040096FF01801484307
:1041300008EB800006EBC000A5FB0010400900F072
:10414000F80007EB4007FDF713FF00EBC00101EBA0
:10415000001061684900B0FBF1F8FDF709FF00EBC2
:10416000C00101EB001061684900B0FBF1F0A5FB54
:10417000001040096FF01801484308EB800006EB7F
:10418000C000A5FB00102168C0F3421038448860CD
:10419000BDE8F081FDF7DCFE00EBC00101EB001093
:1041A00061684900B0FBF1F0A5FB00104009070170
:1041B000FDF7CEFE00EBC00101EB00106168490085
:1041C000B0FBF1F8FDF7C4FE00EBC00101EB0010FD
:1041D00061684900B0FBF1F0A5FB001040096FF0E9
:1041E0001801484308EB800006EBC000A5FB001057
:1041F000400900F0F80007EB4007FDF7A9FE00EBCF
:10420000C00101EB001061684900B0FBF1F8FDF757
:104210009FFE00EBC00101EB001061684900B0FB9C
:10422000F1F0A5FB001040096FF01801484308EBBE
:10423000800006EBC000A5FB00102168C0F342100F
:1042400038448860BDE8F081FDF782FE00EBC001D4
:1042500001EB001061688900B0FBF1F7FDF778FE13
:1042600000EBC00101EB001061688900B0FBF1F0C8
:10427000A5FB001040096FF01801484307EB8000D0
:1042800006EB0010A5FB0010400900F0F007FDF759
:104290005FFE00EBC00101EB001061688900B0FB1C
:1042A000F1F0A5FB0010400907EB0017FDF750FEE9
:1042B00000EBC00101EB001061688900B0FBF1F870
:1042C000FDF746FE00EBC00101EB001061688900BC
:1042D000B0FBF1F0A5FB001040096FF01801484356
:1042E00008EB800006EB0010A5FB00102168C0F36E
:1042F000431038448860BDE8F0810000001401409C
:10430000001001401F85EB5190F83910212901D090
:10431000022070478168B1F5805F0CD0016A4A1CA9
:104320000262026809785160C18C491E0904090CB7
:10433000C18410D019E0016A02680988C1F308013C
:104340005160016919B1016A491C0162ECE7016A17
:10435000891C0162E8E70168CA6822F08002CA602D
:104360000068C16841F04001C16000207047000052
:10437000014800F047B80000BC09002010B504480F
:10438000FEF7E0FABDE81040014800F03BB800003D
:10439000FC09002010B50448FEF7D4FABDE810402F
:1043A000014800F02FB800003C0A002010B5044876
:1043B000FEF7C8FABDE81040014800F023B800003D
:1043C0007C0A002010B5044600680B49884212D1CF
:1043D0004FF4003003F07EFA0849094802F0C6FCA9
:1043E00012210648FBF796FF2046BDE81040122236
:1043F0000249FEF707BE10BD00100140E810002082
:104400002017002038B5016804460868C043C0067C
:104410000AD40868486800902046FEF766FA2046ED
:10442000BDE83840FFF7CEBF38BD0000074882B076
:104430000068016841680091C16841F01001C160E5
:1044400012220349014802B0FEF7DCBDBC0900207E
:10445000E8100020FEE703B401984100009850EAFC
:10446000C12018BF04204A0D18BF40F0010040F2DF
:10447000FF72B2EB515F08BF40F00200012808BF95
:10448000052002B07047000070B59B482DED020B6F
:104490002DED068B079D25F00044A04218DC9748BF
:1044A000844202DC0AD1069840B19DED060BBDECBA
:1044B000068B02B0BDE8704001F046B9002DCCBFBC
:1044C0009FED8F0B9FED900BBDEC068B02B070BD86
:1044D0008F48A04215DD8F48A042D8BF4FF0FF346F
:1044E00058DD9DED060B51EC100BFFF7B4FF0428CF
:1044F00008BF01F05DF99DED060BBDEC068B02B027
:1045000070BD9DED060B51EC100B01F080FDCDE967
:10451000060181489FED828BA0423CDD8248A0428B
:104520001FDD00249FED82AB9DED060B53EC1A2B93
:1045300051EC100BFBF7F9FE9DED060B41EC190B4E
:1045400053EC1A2B51EC100BFBF796FF53EC182B86
:10455000FBF78CFF53EC192BFCF7C0F8CDE90601F3
:1045600049E09DED060B012453EC182B51EC100B88
:10457000FBF7DBFE9DED060B41EC190B53EC182B02
:1045800051EC100BFBF772FF53EC192BFCF7A6F85C
:10459000CDE906012FE06848A0421FDD02249FED0F
:1045A000689B9DED060B53EC192B51EC100BFBF7A0
:1045B00063FF53EC182BFBF7B8FE9DED060B41ECA7
:1045C000180B53EC192B51EC100BFBF74FFF53EC6E
:1045D000182BFCF783F8CDE906010CE09DED060BE6
:1045E000032453EC102B9FED580B51EC100BFCF7F0
:1045F00075F8CDE906019DED060B53EC102B51EC3F
:10460000100BFBF739FF41EC180B53EC182BFBF7A1
:1046100033FF41EC190B4E480621B0EE490AF0EE8B
:10462000690A784400F0F9FF53EC182B51EC100B99
:10463000FBF722FF41EC180B4648B0EE490AF0EEBA
:10464000690A0521784400F0E8FF53EC192B51EC7E
:10465000100BFBF711FF41EC100B51EC180B53EC56
:10466000102B002C0EDAFBF760FE9DED061B53ECC1
:10467000112BFBF701FF9DED061B53EC112BFBF7F4
:10468000F8FE35E0FBF751FE9DED061B53EC112BB8
:10469000FBF7F2FE41EC100B2F48784400EBC4000E
:1046A00090ED001B51EC100B53EC112BFBF7DEFED1
:1046B0009DED061B53EC112BFBF7D8FE41EC100BC4
:1046C0002648784400EBC40090ED001B51EC100B21
:1046D00053EC112BFBF7CDFE41EC100B002DA2BFCC
:1046E000BDEC068B02B070BD51EC100B81F00041A7
:1046F00041EC100B01E70000000010440000F07FC7
:10470000182D4454FB21F93F182D4454FB21F9BFC7
:104710000000DC3F0000203E0000F33F00000000EE
:10472000000000000000F03F0000E63F0000000035
:104730000000000000000040008003400000000076
:10474000000000000000F83F000000000000F0BF83
:1047500042410000F8400000824000003A40000062
:1047600070B56B4E2DED040B2DED028B82B0DDF894
:104770001CC0DDE905235C422CF000411C4341EAEA
:10478000D474049D22F00040B44205D86C422C43FE
:1047900040EAD474B4420BD99DED061B9DED040B89
:1047A00002B0BDEC028B04B0BDE8704000F0D6BF93
:1047B000ACF14054A4F17F641C430BD0022404EA02
:1047C000AC7444EAD27405439FED538B9FED542B98
:1047D00007D015E09DED040B51EC100B01F026F80D
:1047E00042E0002C11BF012C9DED040B02B0BDEC8A
:1047F000028B04BF04B070BD022C38D0032C3BD018
:104800000B439FED491B9FED4A0B0AD0B14218D1D3
:10481000B04209D121F0804120F0804007910590FD
:104820000FE0002A15DA10E0434B7B44002C08BF50
:1048300093ED000B0DD0012C10D0022C17D0032CBF
:104840001AD0B0421DD1002A03DAB0EE410AF0EED0
:10485000610A02B0BDEC028B04B070BD93ED000B99
:1048600051EC100B81F0004141EC100BF1E7B0EE80
:10487000480AF0EE680AECE7B0EE420AF0EE620A8F
:10488000E7E7401A00153C28C8BF8DED000B19DC86
:10489000BCF1000FBEBF10F13C0F9FED290B8DED59
:1048A000000B0FDB9DED060B53EC102B9DED040B65
:1048B00051EC100BFBF712FF01F0A9FB00F0B6FF63
:1048C000CDE90001002C08BF9DED000BC1D0012CEB
:1048D00010D0022C9FED1C0B53EC102B9DED000B08
:1048E00051EC100B0DD0FBF7C1FD53EC182BFBF76F
:1048F000BDFDB9E7019880F0004001909DED000BEF
:10490000A7E7FBF7B3FD53EC182BFBF7B2FDABE7C2
:104910000000F07F00000000182D4454FB210940E6
:10492000182D4454FB2109C0182D4454FB21F9BF14
:10493000182D4454FB21F93F6A3F0000000000009D
:104940000000000000000000075C143326A6A13C14
:104950002DE9F04D2DED040B2DED0E8B96B0DDE91C
:104960002550279CDDF890A025F0004624F0004853
:10497000BAF1000F14BF0121002101EB4502FC49EF
:1049800053184A1093422AD3002814BF012300234E
:1049900003EB44030B44F7498B4220D358EA000150
:1049A0009FEDF59B76D0DFF8D8B35D4503D1BAF122
:1049B000000F05D188E0BAF1000F08BF002100D038
:1049C000012101EB450111F5001F08D8002814BF93
:1049D0000121002101EB440111F5001F0BD99DEDD0
:1049E000261B9DED240B16B0BDEC0E8B04B0BDE86C
:1049F000F04D00F0B3BE0027002DBCBFE149884553
:104A000021DAE1498845A8BF02271CDAC3451ADC30
:104A1000DE4901EB2851142908DDC1F1340220FAE6
:104A200002F101FA02F282420DD108E058B9C1F157
:104A3000140228FA02F101FA02F2424503D101F010
:104A40000101C1F1020756EA0A0124D1002C22DA41
:104A5000002D18BF022F01D0012F0AD0022000F034
:104A6000C7FE16B0BDEC0E8B04B0BDE8F04D00F0F3
:104A700053BE022000F0BCFE00F04EFE51EC100BC5
:104A800081F0004141EC100B16B0BDEC0E8B04B070
:104A9000BDE8F08D18E09FEDBEAB9FEDBF8B002809
:104AA00071D1B848804522D105F1804010F58010C1
:104AB00008BFBAF1000F07D0B3450ADC002CA8BF2D
:104AC0009DED260BE0DA0DE0B0EE490AF0EE690A42
:104AD000DAE7002C06DA9DED260B51EC100B81F085
:104AE00000416FE0AE48784490ED000BCCE7D8452C
:104AF0004DD1002C48DA2EB186423AD1BAF1000FDE
:104B000042D126E0BAF1000F13D0022000F070FE6F
:104B100000F03EFE8DED020B9DED240B8DED000BA4
:104B200010EE900A039961F31E0003909DED020BB5
:104B3000AAE78DED02AB9DED240B1AEE901A10EE54
:104B4000900A8DED000B61F31E0003909DED020BAA
:104B50009AE78DED028B9DED240B18EE901A10EE66
:104B6000900A8DED000B61F31E0003909DED020B8A
:104B70008AE709DA9DED240B51EC190B53EC102B4D
:104B8000FBF7ACFD1EE020E09DED240B7CE78642A8
:104B90001BDAB4F1804F0DD0A4F10050B0F1FF50FA
:104BA00013D1002D11DB9DED240B51EC100B02F005
:104BB00037F907E09DED240B53EC102B51EC100B53
:104BC00000F0C2BC41EC100B5EE79DED240B51ECF4
:104BD000100B01F01CFABAF1000FCDE90E0142D121
:104BE0009FED710B46B3A6F1E040B0F17F600CD0B1
:104BF0005E4538D1002D00DAA7B3022F0CBF01208B
:104C00004FF0FF30FBF741FEDCE7002D01DD002C0B
:104C10000DDA002D01DD002C1FDB002D16DA002C33
:104C200014DB012F08BF9FED620B3FF42DAFB0EEF8
:104C30004A0AF0EE6A0A27E7022F18BF002D0CD0AF
:104C4000012F0AD1002DFFF61FAF06E0002DB8BFDF
:104C5000002C08DA012F3FF417AFB0EE480AF0EE4F
:104C6000680A11E71BE0012000EBE57050EA07013C
:104C700015D0791EB0EE498AF0EE698A084308BF64
:104C80009FED4D8B4E480025804570DD4D494E48C7
:104C9000884514DDB0420DDB002C19DB2FE001202C
:104CA00000F0A6FD16B0BDEC0E8B04B0BDE8F04DD3
:104CB00000F05EBDB34502DC002C09DC1FE086423B
:104CC00002DA002C1BDA03E05E452BDD002C16DD3A
:104CD000022000F08DFD00F05BFD8DED020B53EC2A
:104CE0001A2B51EC180BFBF7C7FBCDE90001039918
:104CF000019861F31E0003909DED020BC4E60220B3
:104D000000F076FD00F054FD10EE901A18EE900AB7
:104D10008DED020B8DED008B61F31E0003909DED78
:104D2000020BB1E69DED0E0B53EC192B51EC100B61
:104D3000FBF79CFB9FED260BCDE9080153EC102BF4
:104D40009DED080B51EC100BFBF796FB9FED221B22
:104D500053EC112BFBF78DFB9DED081B53EC112B36
:104D6000FBF78AFB9FED1E1B53EC112B3CE08CE004
:104D7000FFFF1F00FFFF0F00000000000000F03FDA
:104D80000000F03F0000F07F0000404301FCFFFF07
:104D9000000000000000F07F0000000000000000A4
:104DA000AE3C000000000000000000000000008099
:104DB000000000000000F0FF000000000000F0BF55
:104DC0000000E0410000F043FFFFEF3F0000000063
:104DD000000000000000D03F555555555555D53FB2
:104DE000000000000000E03FFBF743FB9DED080BD7
:104DF00041EC1A0B53EC102B51EC100BFBF73CFB66
:104E000053EC1A2BFBF738FB41EC1A0B9FEDFE0B12
:104E100053EC102B9DED080B51EC100BFBF72CFB0A
:104E200041EC1B0B9FEDFA0B51EC1A0B53EC102BC2
:104E3000FBF722FB41EC1A0B9FEDF70B53EC102B09
:104E40009DED080B51EC100BFBF716FB53EC1A2BE6
:104E5000FBF70CFB41EC1A0B51EC1B0B53EC1A2B20
:104E6000FBF763FA0690CDE906519DED060B53EC76
:104E70001B2B51EC100BFBF7F9FA53EC1A2BFBF739
:104E8000F8FA41EC100B00F0A1B90020B6F5801F34
:104E90000EDA9FEDE30B53EC102B9DED0E0B51EC56
:104EA000100BFBF7E9FACDE90E016FF034000E4666
:104EB00000EB2650A0F2FF37C6F31300DA4940F0AA
:104EC0007F6646F040568842D8BF002408DDD749A7
:104ED0008142C8BF012403DC0024A6F580167F1C94
:104EE000D348784400EBC4000F9690ED00CB9DEDC5
:104EF0000E0B53EC1C2B51EC100BFBF7B7FA9DED8E
:104F00000E0B41EC1B0B53EC1C2B51EC100BFBF765
:104F10000CFA41EC100B51EC190B53EC102BFBF776
:104F2000DDFB41EC1D0B51EC1B0B53EC1D2BFBF778
:104F3000A3FA41EC1A0BBF488DED10AB78441095E5
:104F400090ED000B4FF0005040EA660000EB84400B
:104F50008DED080B00F5002009909DED080B53EC3A
:104F60001C2B51EC100BFBF781FA9DED0E1B53EC43
:104F7000112BFBF77EFA41EC100B53EC102B9DED3F
:104F8000100B51EC100BFBF777FA9DED080B41EC81
:104F90001C0B53EC102B9DED100B51EC100BFBF781
:104FA0006BFA53EC1B2BFBF764FA53EC1C2BFBF74F
:104FB0005DFA53EC1D2BFBF75FFA41EC1C0B53EC35
:104FC0001A2B51EC1A0BFBF757FA41EC1B0B9A48C2
:104FD0000621B0EE4B0AF0EE6B0A784400F01DFBA0
:104FE000B0EE401AF0EE601AB0EE41DAF0EE61DA9F
:104FF00053EC1B2B51EC1B0BFBF73EFA53EC1D2B18
:10500000FBF73AFA9DED100B41EC1B0B53EC1A2BFE
:1050100051EC100BFBF789F953EC1C2BFBF72CFA26
:1050200053EC1B2BFBF781F99DED100B41EC1B0B97
:1050300053EC102B51EC100BFBF71EFA41EC1D0B3F
:105040009FED7FEB53EC1E2BFBF76FF953EC1B2B03
:10505000FBF76BF90890CDE908519DED080B53EC77
:105060001E2B51EC100BFBF701FA53EC1D2BFBF739
:10507000FDF953EC1B2BFBF7FCF99DED080B41EC04
:105080001D0B53EC102B9DED100B51EC100BFBF78F
:10509000F3F941EC1B0B53EC1A2B51EC1D0BFBF7F6
:1050A000EBF99DED080B41EC1A0B53EC102B51EC76
:1050B0001C0BFBF7E1F953EC1A2BFBF736F941EC2B
:1050C0001A0B51EC1B0B53EC1A2BFBF72EF90C901F
:1050D000CDE90C519DED0C0B53EC1B2B51EC100B3F
:1050E000FBF7C4F953EC1A2BFBF7C3F941EC1B0B8C
:1050F0009FED550B53EC102B9DED0C0B51EC100B51
:10510000FBF7BAF941EC1A0B9FED510B51EC1B0B5D
:1051100053EC102BFBF7B0F941EC1B0B9FED4E0B42
:1051200053EC102B9DED0C0B51EC100BFBF7A4F97D
:1051300053EC1B2BFBF7F9F841EC100B4848784473
:1051400000EBC40090ED001B51EC100B53EC112B45
:10515000FBF7EBF841EC1B0B3846FBF796FBCDE970
:10516000080153EC1B2B51EC1A0BFBF7DEF841EC5A
:10517000100B3C48784400EBC40090ED00CB51ECA0
:10518000100B53EC1C2BFBF7D0F89DED081B53ECD8
:10519000112BFBF7CAF80690CDE906519DED080BDF
:1051A00053EC102B9DED060B51EC100BFBF75EF949
:1051B00053EC1C2BFBF75AF953EC1A2BFBF756F95F
:1051C00053EC1B2BFBF755F941EC100B9DED261B07
:1051D00053EC102B8DED001B00959DED260B51EC33
:1051E000100BFBF749F99DED000B41EC1A0B53EC4A
:1051F000102B9DED260B51EC100BFBF737F99DEDB5
:10520000061B53EC112B2FE0000000604715F73F01
:10521000FE822B654715F73F44DF5DF80BAE543E29
:1052200000000000000040438E9803007AB60B0097
:105230009237000058380000CA3600000000000015
:105240000000000000000840000000E009C7EE3F39
:10525000FD033ADC09C7EE3FF5015B14E02F3EBECB
:105260005635000010350000FBF706F953EC1A2BF9
:10527000FBF75BF89DED060B41EC1A0B53EC102B82
:105280009DED000B51EC100BFBF7F6F8CDE90C018E
:105290009DED0C0B51EC1A0B53EC102BFBF745F862
:1052A000CDE902010C46AA498C422FDB611A084362
:1052B00018D19DED0C0B53EC102B9DED020B51EC16
:1052C000100BFBF7D3F841EC1B0B9FEDA30B51EC3C
:1052D0001A0B53EC102BFBF728F853EC1B2BFBF7A6
:1052E000E5FA2DD2022000F083FA00F051FA10EE18
:1052F000901A18EE900A8DED020B8DED008B61F384
:105300001E0003909DED020BFFF7BEBB944A24F0F4
:105310000041914214D39349214408437FF4EFACF8
:105320009DED0C0B53EC102B9DED020B51EC100B73
:10533000FBF79CF853EC1A2BFBF7B8FA7FF6DFACBF
:1053400024F000408849894A002601EB205182421E
:105350002BDA481C4FF4801121FA00F02044844AD3
:10536000C0F30A517A44A1F2FF3192ED000B814A59
:105370008DED080BCA4020EA0202C0F3130040F48E
:105380008010C1F1140120FA01F60992002CB8BF77
:1053900076429DED080B53EC102B9DED0C0B51EC60
:1053A000100BFBF763F8CDE90C019DED0C0B51ECF4
:1053B0001A0B53EC102BFAF7B8FF9FED6F0B089008
:1053C000CDE9085153EC102B9DED080B51EC100B5F
:1053D000FBF752F841EC1B0B9FED690B53EC102BC4
:1053E0009DED080B51EC100BFBF746F89DED0C0BF7
:1053F00041EC1C0B53EC102B9DED080B51EC100BEA
:10540000FBF734F853EC1A2BFBF733F89FED5E1BD8
:1054100053EC112BFBF730F853EC1C2BFAF785FFFC
:1054200041EC1A0B51EC1B0B53EC1A2BFAF77DFFD6
:10543000CDE902019DED020B53EC1B2B51EC100B3F
:10544000FBF714F853EC1A2BFBF713F89DED020B46
:1054500041EC1A0B53EC102B51EC100BFBF70CF832
:10546000CDE908014A489DED080B0521784400F07C
:10547000D4F89DED081B51EC100B53EC112BFAF7EF
:10548000FBFF9DED021B53EC112BFAF7F2FFCDE968
:1054900006019DED020B53EC1A2B51EC100BFAF7A1
:1054A000EBFF53EC1A2BFAF740FF9FED3B0B41EC5F
:1054B0001A0B53EC102B9DED060B51EC100BFAF769
:1054C000D5FF9DED060B41EC1B0B53EC102B9DED16
:1054D000020B51EC100BFAF7CFFF53EC1B2BFBF731
:1054E000FDF853EC1A2BFAF7C1FF9DED021B53ECAC
:1054F000112BFAF7BBFF53EC192BFAF7BAFFCDE9E2
:10550000020101EB065001150029C8BF039015DC0C
:105510009DED020B324651EC100BFBF74EF9FEF7F6
:105520009AFF042808BF00F043F932469DED020BB4
:1055300051EC100BFBF741F9CDE902019DED020B97
:1055400051EC180B53EC102BFAF796FFFFF73ABB10
:105550000000904000000000FE822B654715973C3C
:1055600000CC904000346F3F01FCFFFF0000E03FA3
:1055700030340000FFFF0F0000000000432EE63F24
:10558000396CA80C615C20BEEF39FAFE422EE63F72
:105590006832000000000000000000000000004031
:1055A00000B52DED048BB0EE409AF0EE609A83B01A
:1055B00051EC190BFBF718F941EC180B18EE100A17
:1055C00018EE901A8DED008B002818BF01200843BB
:1055D00020F00040C0F17F6000F1E040C00F14D027
:1055E00019EE101A19EE900A8DED009B002918BFD4
:1055F0000121084320F00040C0F17F6000F1E0404D
:10560000C00F04BF012000F0F3F8B0EE480A03B069
:10561000F0EE680ABDEC048B00BD70B504462DEDBC
:10562000028B4D1E00EBC500B0EE408AF0EE608AA2
:1056300090ED000B35F0060017D053EC182B51EC11
:10564000100BFAF719FF41EC100B6D1E04EBC500AF
:1056500090ED001B51EC100B53EC112BFAF765FE8B
:1056600041EC100B35F00600E7D1022D36D0042DA9
:105670001CD0062D1CBFBDEC028B70BD53EC182B4B
:1056800051EC100BFAF7F8FE94ED0A1B53EC112BBA
:10569000FAF74BFE53EC182BFAF7EEFE94ED081BCD
:1056A00053EC112BFAF741FE41EC100B53EC182B85
:1056B00051EC100BFAF7E0FE94ED061B53EC112BA6
:1056C000FAF733FE53EC182BFAF7D6FE94ED040BE1
:1056D00053EC102BFAF729FE41EC100B53EC182B6E
:1056E00051EC100BFAF7C8FE94ED021B53EC112B92
:1056F000FAF71BFE53EC182BFAF7BEFE94ED001BD5
:1057000053EC112BFAF711FEBDEC028B41EC100BA0
:1057100070BD0000000000009FED070B10B553ECBA
:10572000102B9FED070B51EC100BFAF7D7FF41EC54
:10573000100B10BD00000000000000000000000081
:10574000000000000000F03F10B553EC102B51ECAE
:10575000100BFAF7EAFD41EC100B10BD10B553EC3D
:10576000112B51EC100BFAF7E0FD41EC100B10BDC2
:105770009FED050B10B553EC102B51EC100BFAF705
:10578000ADFF41EC100B10BD000000000000000058
:105790009FED050B10B553EC102B51EC100BFAF7E5
:1057A0006BFE41EC100B10BD00000000000000700B
:1057B0009FED050B10B553EC102B51EC100BFAF7C5
:1057C0005BFE41EC100B10BD00000000000000105B
:1057D00002E008C8121F08C1002AFAD170477047BA
:1057E000002001E001C1121F002AFBD17047000018
:1057F00001490860704700000001002030EE201AC7
:10580000D0ED001AF4EEC11AF1EE10FA02DCB0EE9F
:10581000611A01E080ED001A30EEC00AB4EEC01A41
:10582000F1EE10FA01D280ED000A704710B541EC9C
:10583000100BFEF729FE51EC100B10BD034909684F
:10584000884301D00020704701207047700000207D
:1058500070B51B4C049D20600020A060E060082013
:10586000206118480C0A04704170110A8170C270DE
:10587000190A01714371290A8171C5711248FBF738
:1058800010FB0028FAD010480168886842010D48D2
:10589000A0F1140001D5012108E08A68120101D5A8
:1058A000022103E08968C90001D5042141604368F1
:1058B000BDE87040034A02490348FBF724B90000E1
:1058C0003C10002030000020AC0700201CB5002256
:1058D0000D49009201928A6008600820C1E9032006
:1058E0000A4801788DF800100069CDF801000848D9
:1058F000FBF7D7FAC0B20028F9D002236A46024962
:105900000348FBF700F91CBD3C100020D01000201C
:10591000AC07002070B51B4C049D20600020A060E7
:10592000E0600820206118480C0A04704170110AD8
:105930008170C270190A01714371290A8171C571A0
:105940001248FBF7AEFA0028FAD0104801688868C0
:1059500042010D48A0F1240001D5012108E08A6828
:10596000120101D5022103E08968C90001D5042193
:1059700081608368BDE87040034A02490348FBF731
:10598000C2B800007010002040000020D4070020A2
:1059900000B58BB00020012103900490CDE90601F1
:1059A000CDE90810059000900190029069461448D6
:1059B000FBF72CF969461248FBF728F90028F9D1C2
:1059C0000E20059069460F48FBF720F969460D48FF
:1059D000FBF71CF90028F9D16420FBF7DFFF08482A
:1059E000FBF795FD02210648FBF77BF80548FBF71E
:1059F0008EFD02210348FBF774F80BB000BD0000D8
:105A0000AC070020D40700200EB5354E354C4FF0C2
:105A1000FF3800254FF4007740F2FF19424601217C
:105A2000684600F0CDFBDDE900100829F6D12E49CB
:105A30000978A9B3C007F1D096ED000AF7EE000A85
:105A40002A4930EE200A10EE100A86ED000A88423C
:105A500006DB1020FFF73AFF9FED250A86ED000ACE
:105A600000950022B4F9043011463846FFF7F0FEE5
:105A7000B4F906000090B4F90220B4F90010002334
:105A80003846FFF747FFB4F90E000090B4F90C3028
:105A9000B4F90A20B4F908104846FFF73BFFBDE708
:105AA000FFE7002004EB400124F81050401C0D815A
:105AB0000428F7DB1020FFF709FF00231A461946D8
:105AC00038460095FFF7C4FE00231A4619463846AB
:105AD0000095FFF71FFF00231A4619460095DBE7E4
